{
  "address": "0xe7f1725E7734CE288F8367e1Bb143E90bb3F0512",
  "abi": [
    {
      "inputs": [
        {
          "internalType": "uint256",
          "name": "_maxTokens",
          "type": "uint256"
        },
        {
          "internalType": "uint256",
          "name": "_maxTokensForWhitelist",
          "type": "uint256"
        },
        {
          "internalType": "uint256",
          "name": "_whitelistTokenPrice",
          "type": "uint256"
        },
        {
          "internalType": "uint256",
          "name": "_publicTokenPrice",
          "type": "uint256"
        },
        {
          "internalType": "uint256",
          "name": "_maxAmountPerMint",
          "type": "uint256"
        },
        {
          "internalType": "uint256",
          "name": "_maxAmountPerWhitelist",
          "type": "uint256"
        },
        {
          "internalType": "uint256",
          "name": "_maxAmountPerAccount",
          "type": "uint256"
        },
        {
          "internalType": "address",
          "name": "_raribleTransferProxy",
          "type": "address"
        },
        {
          "internalType": "address",
          "name": "_founder1",
          "type": "address"
        },
        {
          "internalType": "address",
          "name": "_founder2",
          "type": "address"
        },
        {
          "internalType": "address",
          "name": "_communityWallet",
          "type": "address"
        },
        {
          "internalType": "bytes32",
          "name": "_merkleRoot",
          "type": "bytes32"
        }
      ],
      "stateMutability": "nonpayable",
      "type": "constructor"
    },
    {
      "inputs": [],
      "name": "AlreadyRevealed",
      "type": "error"
    },
    {
      "inputs": [],
      "name": "ApprovalCallerNotOwnerNorApproved",
      "type": "error"
    },
    {
      "inputs": [],
      "name": "ApprovalQueryForNonexistentToken",
      "type": "error"
    },
    {
      "inputs": [],
      "name": "BalanceQueryForZeroAddress",
      "type": "error"
    },
    {
      "inputs": [],
      "name": "InsufficientETH",
      "type": "error"
    },
    {
      "inputs": [],
      "name": "InvalidInput",
      "type": "error"
    },
    {
      "inputs": [],
      "name": "InvalidQueryRange",
      "type": "error"
    },
    {
      "inputs": [],
      "name": "MaxAmountPerAccountExceeded",
      "type": "error"
    },
    {
      "inputs": [],
      "name": "MaxAmountPerMintExceeded",
      "type": "error"
    },
    {
      "inputs": [],
      "name": "MaxAmountPerWhitelistExceeded",
      "type": "error"
    },
    {
      "inputs": [],
      "name": "MaxSupplyExceeded",
      "type": "error"
    },
    {
      "inputs": [],
      "name": "MaxSupplyForWhitelistExceeded",
      "type": "error"
    },
    {
      "inputs": [],
      "name": "MintERC2309QuantityExceedsLimit",
      "type": "error"
    },
    {
      "inputs": [],
      "name": "MintToZeroAddress",
      "type": "error"
    },
    {
      "inputs": [],
      "name": "MintZeroQuantity",
      "type": "error"
    },
    {
      "inputs": [],
      "name": "NotAWhitelisted",
      "type": "error"
    },
    {
      "inputs": [],
      "name": "NotAnAccount",
      "type": "error"
    },
    {
      "inputs": [],
      "name": "NotPublicSalePhase",
      "type": "error"
    },
    {
      "inputs": [],
      "name": "NotWhitelistSalePhase",
      "type": "error"
    },
    {
      "inputs": [],
      "name": "OwnerQueryForNonexistentToken",
      "type": "error"
    },
    {
      "inputs": [],
      "name": "OwnershipNotInitializedForExtraData",
      "type": "error"
    },
    {
      "inputs": [],
      "name": "TransferCallerNotOwnerNorApproved",
      "type": "error"
    },
    {
      "inputs": [],
      "name": "TransferFailed",
      "type": "error"
    },
    {
      "inputs": [],
      "name": "TransferFromIncorrectOwner",
      "type": "error"
    },
    {
      "inputs": [],
      "name": "TransferToNonERC721ReceiverImplementer",
      "type": "error"
    },
    {
      "inputs": [],
      "name": "TransferToZeroAddress",
      "type": "error"
    },
    {
      "inputs": [],
      "name": "URIQueryForNonexistentToken",
      "type": "error"
    },
    {
      "inputs": [],
      "name": "WrongStateForReveal",
      "type": "error"
    },
    {
      "anonymous": false,
      "inputs": [
        {
          "indexed": true,
          "internalType": "address",
          "name": "owner",
          "type": "address"
        },
        {
          "indexed": true,
          "internalType": "address",
          "name": "approved",
          "type": "address"
        },
        {
          "indexed": true,
          "internalType": "uint256",
          "name": "tokenId",
          "type": "uint256"
        }
      ],
      "name": "Approval",
      "type": "event"
    },
    {
      "anonymous": false,
      "inputs": [
        {
          "indexed": true,
          "internalType": "address",
          "name": "owner",
          "type": "address"
        },
        {
          "indexed": true,
          "internalType": "address",
          "name": "operator",
          "type": "address"
        },
        {
          "indexed": false,
          "internalType": "bool",
          "name": "approved",
          "type": "bool"
        }
      ],
      "name": "ApprovalForAll",
      "type": "event"
    },
    {
      "anonymous": false,
      "inputs": [
        {
          "indexed": true,
          "internalType": "uint256",
          "name": "fromTokenId",
          "type": "uint256"
        },
        {
          "indexed": false,
          "internalType": "uint256",
          "name": "toTokenId",
          "type": "uint256"
        },
        {
          "indexed": true,
          "internalType": "address",
          "name": "from",
          "type": "address"
        },
        {
          "indexed": true,
          "internalType": "address",
          "name": "to",
          "type": "address"
        }
      ],
      "name": "ConsecutiveTransfer",
      "type": "event"
    },
    {
      "anonymous": false,
      "inputs": [
        {
          "indexed": true,
          "internalType": "address",
          "name": "previousOwner",
          "type": "address"
        },
        {
          "indexed": true,
          "internalType": "address",
          "name": "newOwner",
          "type": "address"
        }
      ],
      "name": "OwnershipTransferred",
      "type": "event"
    },
    {
      "anonymous": false,
      "inputs": [
        {
          "indexed": true,
          "internalType": "address",
          "name": "from",
          "type": "address"
        },
        {
          "indexed": true,
          "internalType": "address",
          "name": "to",
          "type": "address"
        },
        {
          "indexed": true,
          "internalType": "uint256",
          "name": "tokenId",
          "type": "uint256"
        }
      ],
      "name": "Transfer",
      "type": "event"
    },
    {
      "inputs": [],
      "name": "BASE_URI",
      "outputs": [
        {
          "internalType": "string",
          "name": "",
          "type": "string"
        }
      ],
      "stateMutability": "view",
      "type": "function"
    },
    {
      "inputs": [],
      "name": "COMMUNITY_WALLET",
      "outputs": [
        {
          "internalType": "address",
          "name": "",
          "type": "address"
        }
      ],
      "stateMutability": "view",
      "type": "function"
    },
    {
      "inputs": [],
      "name": "FOUNDER_1",
      "outputs": [
        {
          "internalType": "address",
          "name": "",
          "type": "address"
        }
      ],
      "stateMutability": "view",
      "type": "function"
    },
    {
      "inputs": [],
      "name": "FOUNDER_2",
      "outputs": [
        {
          "internalType": "address",
          "name": "",
          "type": "address"
        }
      ],
      "stateMutability": "view",
      "type": "function"
    },
    {
      "inputs": [],
      "name": "MAX_AMOUNT_PER_ACCOUNT",
      "outputs": [
        {
          "internalType": "uint256",
          "name": "",
          "type": "uint256"
        }
      ],
      "stateMutability": "view",
      "type": "function"
    },
    {
      "inputs": [],
      "name": "MAX_AMOUNT_PER_MINT",
      "outputs": [
        {
          "internalType": "uint256",
          "name": "",
          "type": "uint256"
        }
      ],
      "stateMutability": "view",
      "type": "function"
    },
    {
      "inputs": [],
      "name": "MAX_AMOUNT_PER_WHITELIST",
      "outputs": [
        {
          "internalType": "uint256",
          "name": "",
          "type": "uint256"
        }
      ],
      "stateMutability": "view",
      "type": "function"
    },
    {
      "inputs": [],
      "name": "MAX_TOKENS",
      "outputs": [
        {
          "internalType": "uint256",
          "name": "",
          "type": "uint256"
        }
      ],
      "stateMutability": "view",
      "type": "function"
    },
    {
      "inputs": [],
      "name": "MAX_TOKENS_FOR_WHITELIST",
      "outputs": [
        {
          "internalType": "uint256",
          "name": "",
          "type": "uint256"
        }
      ],
      "stateMutability": "view",
      "type": "function"
    },
    {
      "inputs": [],
      "name": "MERKLE_ROOT",
      "outputs": [
        {
          "internalType": "bytes32",
          "name": "",
          "type": "bytes32"
        }
      ],
      "stateMutability": "view",
      "type": "function"
    },
    {
      "inputs": [],
      "name": "PUBLIC_TOKEN_PRICE",
      "outputs": [
        {
          "internalType": "uint256",
          "name": "",
          "type": "uint256"
        }
      ],
      "stateMutability": "view",
      "type": "function"
    },
    {
      "inputs": [],
      "name": "WHITELIST_TOKEN_PRICE",
      "outputs": [
        {
          "internalType": "uint256",
          "name": "",
          "type": "uint256"
        }
      ],
      "stateMutability": "view",
      "type": "function"
    },
    {
      "inputs": [
        {
          "internalType": "address",
          "name": "to",
          "type": "address"
        },
        {
          "internalType": "uint256",
          "name": "tokenId",
          "type": "uint256"
        }
      ],
      "name": "approve",
      "outputs": [],
      "stateMutability": "payable",
      "type": "function"
    },
    {
      "inputs": [
        {
          "internalType": "address",
          "name": "owner",
          "type": "address"
        }
      ],
      "name": "balanceOf",
      "outputs": [
        {
          "internalType": "uint256",
          "name": "",
          "type": "uint256"
        }
      ],
      "stateMutability": "view",
      "type": "function"
    },
    {
      "inputs": [
        {
          "internalType": "uint256",
          "name": "_index",
          "type": "uint256"
        }
      ],
      "name": "changeState",
      "outputs": [],
      "stateMutability": "nonpayable",
      "type": "function"
    },
    {
      "inputs": [],
      "name": "contractBalance",
      "outputs": [
        {
          "internalType": "uint256",
          "name": "",
          "type": "uint256"
        }
      ],
      "stateMutability": "view",
      "type": "function"
    },
    {
      "inputs": [],
      "name": "currentState",
      "outputs": [
        {
          "internalType": "enum IlkelBenlik.STATE",
          "name": "",
          "type": "uint8"
        }
      ],
      "stateMutability": "view",
      "type": "function"
    },
    {
      "inputs": [
        {
          "internalType": "uint256",
          "name": "tokenId",
          "type": "uint256"
        }
      ],
      "name": "explicitOwnershipOf",
      "outputs": [
        {
          "components": [
            {
              "internalType": "address",
              "name": "addr",
              "type": "address"
            },
            {
              "internalType": "uint64",
              "name": "startTimestamp",
              "type": "uint64"
            },
            {
              "internalType": "bool",
              "name": "burned",
              "type": "bool"
            },
            {
              "internalType": "uint24",
              "name": "extraData",
              "type": "uint24"
            }
          ],
          "internalType": "struct IERC721A.TokenOwnership",
          "name": "",
          "type": "tuple"
        }
      ],
      "stateMutability": "view",
      "type": "function"
    },
    {
      "inputs": [
        {
          "internalType": "uint256[]",
          "name": "tokenIds",
          "type": "uint256[]"
        }
      ],
      "name": "explicitOwnershipsOf",
      "outputs": [
        {
          "components": [
            {
              "internalType": "address",
              "name": "addr",
              "type": "address"
            },
            {
              "internalType": "uint64",
              "name": "startTimestamp",
              "type": "uint64"
            },
            {
              "internalType": "bool",
              "name": "burned",
              "type": "bool"
            },
            {
              "internalType": "uint24",
              "name": "extraData",
              "type": "uint24"
            }
          ],
          "internalType": "struct IERC721A.TokenOwnership[]",
          "name": "",
          "type": "tuple[]"
        }
      ],
      "stateMutability": "view",
      "type": "function"
    },
    {
      "inputs": [
        {
          "internalType": "address",
          "name": "_account",
          "type": "address"
        }
      ],
      "name": "getAccountMintCount",
      "outputs": [
        {
          "internalType": "uint256",
          "name": "",
          "type": "uint256"
        }
      ],
      "stateMutability": "view",
      "type": "function"
    },
    {
      "inputs": [
        {
          "internalType": "uint256",
          "name": "tokenId",
          "type": "uint256"
        }
      ],
      "name": "getApproved",
      "outputs": [
        {
          "internalType": "address",
          "name": "",
          "type": "address"
        }
      ],
      "stateMutability": "view",
      "type": "function"
    },
    {
      "inputs": [
        {
          "internalType": "address",
          "name": "_account",
          "type": "address"
        }
      ],
      "name": "getWhitelistMintCount",
      "outputs": [
        {
          "internalType": "uint64",
          "name": "",
          "type": "uint64"
        }
      ],
      "stateMutability": "view",
      "type": "function"
    },
    {
      "inputs": [
        {
          "internalType": "address",
          "name": "owner",
          "type": "address"
        },
        {
          "internalType": "address",
          "name": "operator",
          "type": "address"
        }
      ],
      "name": "isApprovedForAll",
      "outputs": [
        {
          "internalType": "bool",
          "name": "",
          "type": "bool"
        }
      ],
      "stateMutability": "view",
      "type": "function"
    },
    {
      "inputs": [],
      "name": "isRevealed",
      "outputs": [
        {
          "internalType": "bool",
          "name": "",
          "type": "bool"
        }
      ],
      "stateMutability": "view",
      "type": "function"
    },
    {
      "inputs": [
        {
          "internalType": "address",
          "name": "_account",
          "type": "address"
        },
        {
          "internalType": "bytes32[]",
          "name": "_merkleProof",
          "type": "bytes32[]"
        }
      ],
      "name": "isWhitelisted",
      "outputs": [
        {
          "internalType": "bool",
          "name": "",
          "type": "bool"
        }
      ],
      "stateMutability": "view",
      "type": "function"
    },
    {
      "inputs": [],
      "name": "name",
      "outputs": [
        {
          "internalType": "string",
          "name": "",
          "type": "string"
        }
      ],
      "stateMutability": "view",
      "type": "function"
    },
    {
      "inputs": [],
      "name": "owner",
      "outputs": [
        {
          "internalType": "address",
          "name": "",
          "type": "address"
        }
      ],
      "stateMutability": "view",
      "type": "function"
    },
    {
      "inputs": [
        {
          "internalType": "uint256",
          "name": "tokenId",
          "type": "uint256"
        }
      ],
      "name": "ownerOf",
      "outputs": [
        {
          "internalType": "address",
          "name": "",
          "type": "address"
        }
      ],
      "stateMutability": "view",
      "type": "function"
    },
    {
      "inputs": [
        {
          "internalType": "uint256",
          "name": "_amount",
          "type": "uint256"
        }
      ],
      "name": "publicSaleMint",
      "outputs": [],
      "stateMutability": "payable",
      "type": "function"
    },
    {
      "inputs": [],
      "name": "raribleTransferProxy",
      "outputs": [
        {
          "internalType": "address",
          "name": "",
          "type": "address"
        }
      ],
      "stateMutability": "view",
      "type": "function"
    },
    {
      "inputs": [],
      "name": "renounceOwnership",
      "outputs": [],
      "stateMutability": "nonpayable",
      "type": "function"
    },
    {
      "inputs": [
        {
          "internalType": "string",
          "name": "_newBaseUri",
          "type": "string"
        }
      ],
      "name": "reveal",
      "outputs": [],
      "stateMutability": "nonpayable",
      "type": "function"
    },
    {
      "inputs": [
        {
          "internalType": "uint256",
          "name": "tokenId",
          "type": "uint256"
        },
        {
          "internalType": "uint256",
          "name": "salePrice",
          "type": "uint256"
        }
      ],
      "name": "royaltyInfo",
      "outputs": [
        {
          "internalType": "address",
          "name": "",
          "type": "address"
        },
        {
          "internalType": "uint256",
          "name": "",
          "type": "uint256"
        }
      ],
      "stateMutability": "view",
      "type": "function"
    },
    {
      "inputs": [
        {
          "internalType": "address",
          "name": "from",
          "type": "address"
        },
        {
          "internalType": "address",
          "name": "to",
          "type": "address"
        },
        {
          "internalType": "uint256",
          "name": "tokenId",
          "type": "uint256"
        }
      ],
      "name": "safeTransferFrom",
      "outputs": [],
      "stateMutability": "payable",
      "type": "function"
    },
    {
      "inputs": [
        {
          "internalType": "address",
          "name": "from",
          "type": "address"
        },
        {
          "internalType": "address",
          "name": "to",
          "type": "address"
        },
        {
          "internalType": "uint256",
          "name": "tokenId",
          "type": "uint256"
        },
        {
          "internalType": "bytes",
          "name": "_data",
          "type": "bytes"
        }
      ],
      "name": "safeTransferFrom",
      "outputs": [],
      "stateMutability": "payable",
      "type": "function"
    },
    {
      "inputs": [
        {
          "internalType": "address",
          "name": "operator",
          "type": "address"
        },
        {
          "internalType": "bool",
          "name": "approved",
          "type": "bool"
        }
      ],
      "name": "setApprovalForAll",
      "outputs": [],
      "stateMutability": "nonpayable",
      "type": "function"
    },
    {
      "inputs": [],
      "name": "state",
      "outputs": [
        {
          "internalType": "enum IlkelBenlik.STATE",
          "name": "",
          "type": "uint8"
        }
      ],
      "stateMutability": "view",
      "type": "function"
    },
    {
      "inputs": [
        {
          "internalType": "bytes4",
          "name": "interfaceId",
          "type": "bytes4"
        }
      ],
      "name": "supportsInterface",
      "outputs": [
        {
          "internalType": "bool",
          "name": "",
          "type": "bool"
        }
      ],
      "stateMutability": "view",
      "type": "function"
    },
    {
      "inputs": [],
      "name": "symbol",
      "outputs": [
        {
          "internalType": "string",
          "name": "",
          "type": "string"
        }
      ],
      "stateMutability": "view",
      "type": "function"
    },
    {
      "inputs": [
        {
          "internalType": "uint256",
          "name": "tokenId",
          "type": "uint256"
        }
      ],
      "name": "tokenURI",
      "outputs": [
        {
          "internalType": "string",
          "name": "",
          "type": "string"
        }
      ],
      "stateMutability": "view",
      "type": "function"
    },
    {
      "inputs": [
        {
          "internalType": "address",
          "name": "owner",
          "type": "address"
        }
      ],
      "name": "tokensOfOwner",
      "outputs": [
        {
          "internalType": "uint256[]",
          "name": "",
          "type": "uint256[]"
        }
      ],
      "stateMutability": "view",
      "type": "function"
    },
    {
      "inputs": [
        {
          "internalType": "address",
          "name": "owner",
          "type": "address"
        },
        {
          "internalType": "uint256",
          "name": "start",
          "type": "uint256"
        },
        {
          "internalType": "uint256",
          "name": "stop",
          "type": "uint256"
        }
      ],
      "name": "tokensOfOwnerIn",
      "outputs": [
        {
          "internalType": "uint256[]",
          "name": "",
          "type": "uint256[]"
        }
      ],
      "stateMutability": "view",
      "type": "function"
    },
    {
      "inputs": [],
      "name": "totalSupply",
      "outputs": [
        {
          "internalType": "uint256",
          "name": "",
          "type": "uint256"
        }
      ],
      "stateMutability": "view",
      "type": "function"
    },
    {
      "inputs": [
        {
          "internalType": "address",
          "name": "from",
          "type": "address"
        },
        {
          "internalType": "address",
          "name": "to",
          "type": "address"
        },
        {
          "internalType": "uint256",
          "name": "tokenId",
          "type": "uint256"
        }
      ],
      "name": "transferFrom",
      "outputs": [],
      "stateMutability": "payable",
      "type": "function"
    },
    {
      "inputs": [
        {
          "internalType": "address",
          "name": "newOwner",
          "type": "address"
        }
      ],
      "name": "transferOwnership",
      "outputs": [],
      "stateMutability": "nonpayable",
      "type": "function"
    },
    {
      "inputs": [
        {
          "internalType": "uint256",
          "name": "_amount",
          "type": "uint256"
        },
        {
          "internalType": "bytes32[]",
          "name": "_merkleProof",
          "type": "bytes32[]"
        }
      ],
      "name": "whitelistSaleMint",
      "outputs": [],
      "stateMutability": "payable",
      "type": "function"
    },
    {
      "inputs": [],
      "name": "withdrawAll",
      "outputs": [],
      "stateMutability": "nonpayable",
      "type": "function"
    }
  ],
  "transactionHash": "0xb2d6acc0279a8673428fc2750e42cf74f5f68936af3d9efd4b35b7cbbdd2d23a",
  "args": [
    "200",
    "50",
    "1000000000000000000",
    "1100000000000000000",
    "30",
    "20",
    "50",
    "0x5FbDB2315678afecb367f032d93F642f64180aa3",
    "0x71bE63f3384f5fb98995898A86B02Fb2426c5788",
    "0xFABB0ac9d68B0B445fB7357272Ff202C5651694a",
    "0x1CBd3b2770909D4e10f157cABC84C7264073C9Ec",
    "0x8c9c0323aa8ae8997ed66b48fb515c1db86f841a9dd88f0f7ed4c841d1b3aa5f"
  ],
  "numDeployments": 1,
  "solcInputHash": "8dcd189cce62197528abeec94f083be4",
  "bytecode": "0x600a805460ff60a01b1916905561026060405260436101e08181529062003a7f61020039600c9062000032908262000375565b50600d805460ff1916905534801562000049575f80fd5b5060405162003ac238038062003ac28339810160408190526200006c9162000459565b6040518060400160405280600b81526020016a496c6b656c42656e6c696b60a81b8152506040518060400160405280600281526020016124a160f11b8152508160029081620000bc919062000375565b506003620000cb828262000375565b505060015f5550620000dd336200017f565b8b8b1115620000ff5760405163b4fa3fb360e01b815260040160405180910390fd5b60808c905260a08b905260c08a905260e0899052610100889052610120879052610140869052600b80546001600160a01b0319166001600160a01b0387811691909117909155848116610160528381166101805282166101a0526101c08190526200016d836101f4620001d0565b505050505050505050505050620004ff565b600a80546001600160a01b038381166001600160a01b0319831681179093556040519116919082907f8be0079c531659141344cd1fd0a4f28419497f9722a3daafe3b4186f6b6457e0905f90a35050565b6127106001600160601b0382161115620002445760405162461bcd60e51b815260206004820152602a60248201527f455243323938313a20726f79616c7479206665652077696c6c206578636565646044820152692073616c65507269636560b01b60648201526084015b60405180910390fd5b6001600160a01b0382166200029c5760405162461bcd60e51b815260206004820152601960248201527f455243323938313a20696e76616c69642072656365697665720000000000000060448201526064016200023b565b604080518082019091526001600160a01b039092168083526001600160601b039091166020909201829052600160a01b90910217600855565b634e487b7160e01b5f52604160045260245ffd5b600181811c90821680620002fe57607f821691505b6020821081036200031d57634e487b7160e01b5f52602260045260245ffd5b50919050565b601f82111562000370575f81815260208120601f850160051c810160208610156200034b5750805b601f850160051c820191505b818110156200036c5782815560010162000357565b5050505b505050565b81516001600160401b03811115620003915762000391620002d5565b620003a981620003a28454620002e9565b8462000323565b602080601f831160018114620003df575f8415620003c75750858301515b5f19600386901b1c1916600185901b1785556200036c565b5f85815260208120601f198616915b828110156200040f57888601518255948401946001909101908401620003ee565b50858210156200042d57878501515f19600388901b60f8161c191681555b5050505050600190811b01905550565b80516001600160a01b038116811462000454575f80fd5b919050565b5f805f805f805f805f805f806101808d8f03121562000476575f80fd5b8c519b5060208d01519a5060408d0151995060608d0151985060808d0151975060a08d0151965060c08d01519550620004b260e08e016200043d565b9450620004c36101008e016200043d565b9350620004d46101208e016200043d565b9250620004e56101408e016200043d565b91506101608d015190509295989b509295989b509295989b565b60805160a05160c05160e05161010051610120516101405161016051610180516101a0516101c0516134c0620005bf5f395f8181610525015261137a01525f81816108fb015261169501525f61068101525f8181610763015261165301525f81816108b40152611be801525f818161071c0152610d1001525f818161096c0152611b1f01525f818161060e0152611c5801525f818161042a0152610d8a01525f81816109d20152610ca601525f818161099f0152611b7e01526134c05ff3fe6080604052600436106102f8575f3560e01c806385660e0011610191578063c19d93fb116100dc578063e0cad9b111610087578063f413889711610062578063f41388971461095b578063f47c84c51461098e578063fa260355146109c1575f80fd5b8063e0cad9b1146108ea578063e985e9c51461091d578063f2fde38b1461093c575f80fd5b8063cc97bd9a116100b7578063cc97bd9a14610884578063db4bfb64146108a3578063dbddb26a146108d6575f80fd5b8063c19d93fb14610808578063c23dc68f14610839578063c87b56dd14610865575f80fd5b80639845047b1161013c578063b00741cb11610117578063b00741cb146107c3578063b3ab66b0146107e2578063b88d4fde146107f5575f80fd5b80639845047b1461075257806399a2557a14610785578063a22cb465146107a4575f80fd5b80638ecff0371161016c5780638ecff037146106df578063912457361461070b57806395d89b411461073e575f80fd5b806385660e00146106705780638b7afe2e146106a35780638da5cb5b146106b5575f80fd5b806342842e0e116102515780636352211e116101fc578063763f8d12116101d7578063763f8d12146105fd5780638462151c14610630578063853828b61461065c575f80fd5b80636352211e146105ab57806370a08231146105ca578063715018a6146105e9575f80fd5b806354214f691161022c57806354214f69146105475780635a23dd99146105605780635bbb21771461057f575f80fd5b806342842e0e146104e25780634c261247146104f557806351e75e8b14610514575f80fd5b80630c3f6acf116102b157806323b872dd1161028c57806323b872dd1461044c5780632a55205a1461045f57806338e148cc146104aa575f80fd5b80630c3f6acf146103bd57806318160ddd146103f55780631dee5cd914610419575f80fd5b8063081812fc116102e1578063081812fc14610351578063095ea7b3146103955780630a887cda146103aa575f80fd5b806301ffc9a7146102fc57806306fdde0314610330575b5f80fd5b348015610307575f80fd5b5061031b610316366004612aeb565b6109f4565b60405190151581526020015b60405180910390f35b34801561033b575f80fd5b50610344610a13565b6040516103279190612b71565b34801561035c575f80fd5b5061037061036b366004612b83565b610aa3565b60405173ffffffffffffffffffffffffffffffffffffffff9091168152602001610327565b6103a86103a3366004612bc2565b610b0b565b005b6103a86103b8366004612c2b565b610bf4565b3480156103c8575f80fd5b50600a5474010000000000000000000000000000000000000000900460ff165b6040516103279190612ca0565b348015610400575f80fd5b506001545f54035f19015b604051908152602001610327565b348015610424575f80fd5b5061040b7f000000000000000000000000000000000000000000000000000000000000000081565b6103a861045a366004612cdf565b610e60565b34801561046a575f80fd5b5061047e610479366004612d18565b6110c9565b6040805173ffffffffffffffffffffffffffffffffffffffff9093168352602083019190915201610327565b3480156104b5575f80fd5b506104c96104c4366004612d38565b6111c0565b60405167ffffffffffffffff9091168152602001610327565b6103a86104f0366004612cdf565b6111ed565b348015610500575f80fd5b506103a861050f366004612e0f565b61120c565b34801561051f575f80fd5b5061040b7f000000000000000000000000000000000000000000000000000000000000000081565b348015610552575f80fd5b50600d5461031b9060ff1681565b34801561056b575f80fd5b5061031b61057a366004612e54565b6112f8565b34801561058a575f80fd5b5061059e610599366004612e8a565b6113b0565b6040516103279190612ec9565b3480156105b6575f80fd5b506103706105c5366004612b83565b611478565b3480156105d5575f80fd5b5061040b6105e4366004612d38565b611482565b3480156105f4575f80fd5b506103a8611502565b348015610608575f80fd5b5061040b7f000000000000000000000000000000000000000000000000000000000000000081565b34801561063b575f80fd5b5061064f61064a366004612d38565b611515565b6040516103279190612f52565b348015610667575f80fd5b506103a861163c565b34801561067b575f80fd5b506103707f000000000000000000000000000000000000000000000000000000000000000081565b3480156106ae575f80fd5b504761040b565b3480156106c0575f80fd5b50600a5473ffffffffffffffffffffffffffffffffffffffff16610370565b3480156106ea575f80fd5b50600b546103709073ffffffffffffffffffffffffffffffffffffffff1681565b348015610716575f80fd5b5061040b7f000000000000000000000000000000000000000000000000000000000000000081565b348015610749575f80fd5b506103446116f3565b34801561075d575f80fd5b506103707f000000000000000000000000000000000000000000000000000000000000000081565b348015610790575f80fd5b5061064f61079f366004612f89565b611702565b3480156107af575f80fd5b506103a86107be366004612fb9565b6118c0565b3480156107ce575f80fd5b506103a86107dd366004612b83565b611956565b6103a86107f0366004612b83565b611a7c565b6103a8610803366004612ff2565b611cc0565b348015610813575f80fd5b50600a546103e89074010000000000000000000000000000000000000000900460ff1681565b348015610844575f80fd5b50610858610853366004612b83565b611d30565b6040516103279190613069565b348015610870575f80fd5b5061034461087f366004612b83565b611db5565b34801561088f575f80fd5b5061040b61089e366004612d38565b611ee5565b3480156108ae575f80fd5b5061040b7f000000000000000000000000000000000000000000000000000000000000000081565b3480156108e1575f80fd5b50610344611f26565b3480156108f5575f80fd5b506103707f000000000000000000000000000000000000000000000000000000000000000081565b348015610928575f80fd5b5061031b6109373660046130bb565b611fb2565b348015610947575f80fd5b506103a8610956366004612d38565b612019565b348015610966575f80fd5b5061040b7f000000000000000000000000000000000000000000000000000000000000000081565b348015610999575f80fd5b5061040b7f000000000000000000000000000000000000000000000000000000000000000081565b3480156109cc575f80fd5b5061040b7f000000000000000000000000000000000000000000000000000000000000000081565b5f6109fe826120cd565b80610a0d5750610a0d826121ad565b92915050565b606060028054610a22906130ec565b80601f0160208091040260200160405190810160405280929190818152602001828054610a4e906130ec565b8015610a995780601f10610a7057610100808354040283529160200191610a99565b820191905f5260205f20905b815481529060010190602001808311610a7c57829003601f168201915b5050505050905090565b5f610aad82612243565b610ae3576040517fcf4700e400000000000000000000000000000000000000000000000000000000815260040160405180910390fd5b505f9081526006602052604090205473ffffffffffffffffffffffffffffffffffffffff1690565b5f610b1582611478565b90503373ffffffffffffffffffffffffffffffffffffffff821614610b7457610b3e8133611fb2565b610b74576040517fcfb3b94200000000000000000000000000000000000000000000000000000000815260040160405180910390fd5b5f8281526006602052604080822080547fffffffffffffffffffffffff00000000000000000000000000000000000000001673ffffffffffffffffffffffffffffffffffffffff87811691821790925591518593918516917f8c5be1e5ebec7d5bd14f71427d1e84f3dd0314c0f7b2291e5b200ac8c7c3b92591a4505050565b8181610c013383836112f8565b610c37576040517f48df50e800000000000000000000000000000000000000000000000000000000815260040160405180910390fd5b6001600a5474010000000000000000000000000000000000000000900460ff166002811115610c6857610c68612c73565b14610c9f576040517f5b77ceac00000000000000000000000000000000000000000000000000000000815260040160405180910390fd5b6001545f547f0000000000000000000000000000000000000000000000000000000000000000918791035f1901610cd6919061316a565b1115610d0e576040517fde42be6c00000000000000000000000000000000000000000000000000000000815260040160405180910390fd5b7f000000000000000000000000000000000000000000000000000000000000000085610d39336111c0565b67ffffffffffffffff16610d4d919061316a565b1115610d85576040517f37ac80a200000000000000000000000000000000000000000000000000000000815260040160405180910390fd5b610daf7f00000000000000000000000000000000000000000000000000000000000000008661317d565b341015610de8576040517f6a12f10400000000000000000000000000000000000000000000000000000000815260040160405180910390fd5b610e4f3386610df6336111c0565b610e009190613194565b73ffffffffffffffffffffffffffffffffffffffff9091165f908152600560205260409020805477ffffffffffffffffffffffffffffffffffffffffffffffff1660c09290921b919091179055565b610e59338661228e565b5050505050565b5f610e6a826123c6565b90508373ffffffffffffffffffffffffffffffffffffffff168173ffffffffffffffffffffffffffffffffffffffff1614610ed1576040517fa114810000000000000000000000000000000000000000000000000000000000815260040160405180910390fd5b5f82815260066020526040902080543380821473ffffffffffffffffffffffffffffffffffffffff881690911417610f4357610f0d8633611fb2565b610f43576040517f59c896be00000000000000000000000000000000000000000000000000000000815260040160405180910390fd5b73ffffffffffffffffffffffffffffffffffffffff8516610f90576040517fea553b3400000000000000000000000000000000000000000000000000000000815260040160405180910390fd5b8015610f9a575f82555b73ffffffffffffffffffffffffffffffffffffffff8681165f9081526005602052604080822080545f19019055918716808252919020805460010190554260a01b177c0200000000000000000000000000000000000000000000000000000000175f858152600460205260408120919091557c02000000000000000000000000000000000000000000000000000000008416900361106557600184015f818152600460205260408120549003611063575f548114611063575f8181526004602052604090208490555b505b838573ffffffffffffffffffffffffffffffffffffffff168773ffffffffffffffffffffffffffffffffffffffff167fddf252ad1be2c89b69c2b068fc378daa952ba7f163c4a11628f55a4df523b3ef60405160405180910390a45b505050505050565b5f82815260096020908152604080832081518083019092525473ffffffffffffffffffffffffffffffffffffffff8116808352740100000000000000000000000000000000000000009091046bffffffffffffffffffffffff1692820192909252829161118357506040805180820190915260085473ffffffffffffffffffffffffffffffffffffffff811682527401000000000000000000000000000000000000000090046bffffffffffffffffffffffff1660208201525b60208101515f90612710906111a6906bffffffffffffffffffffffff168761317d565b6111b091906131bc565b91519350909150505b9250929050565b73ffffffffffffffffffffffffffffffffffffffff81165f9081526005602052604081205460c01c610a0d565b61120783838360405180602001604052805f815250611cc0565b505050565b611214612461565b6002600a5474010000000000000000000000000000000000000000900460ff16600281111561124557611245612c73565b1461127c576040517fede6977100000000000000000000000000000000000000000000000000000000815260040160405180910390fd5b600d5460ff1615156001036112bd576040517fa89ac15100000000000000000000000000000000000000000000000000000000815260040160405180910390fd5b600d80547fffffffffffffffffffffffffffffffffffffffffffffffffffffffffffffff00166001179055600c6112f48282613239565b5050565b6040517fffffffffffffffffffffffffffffffffffffffff000000000000000000000000606085901b1660208201525f9081906034016040516020818303038152906040528051906020012090506113a58484808060200260200160405190810160405280939291908181526020018383602002808284375f920191909152507f000000000000000000000000000000000000000000000000000000000000000092508591506124e29050565b9150505b9392505050565b6060815f8167ffffffffffffffff8111156113cd576113cd612d51565b60405190808252806020026020018201604052801561141d57816020015b604080516080810182525f8082526020808301829052928201819052606082015282525f199092019101816113eb5790505b5090505f5b82811461146f5761144a86868381811061143e5761143e613313565b90506020020135611d30565b82828151811061145c5761145c613313565b6020908102919091010152600101611422565b50949350505050565b5f610a0d826123c6565b5f73ffffffffffffffffffffffffffffffffffffffff82166114d0576040517f8f4eb60400000000000000000000000000000000000000000000000000000000815260040160405180910390fd5b5073ffffffffffffffffffffffffffffffffffffffff165f9081526005602052604090205467ffffffffffffffff1690565b61150a612461565b6115135f6124f7565b565b60605f805f61152385611482565b90505f8167ffffffffffffffff81111561153f5761153f612d51565b604051908082528060200260200182016040528015611568578160200160208202803683370190505b50604080516080810182525f80825260208201819052918101829052606081019190915290915060015b838614611630576115a28161256d565b9150816040015161162857815173ffffffffffffffffffffffffffffffffffffffff16156115cf57815194505b8773ffffffffffffffffffffffffffffffffffffffff168573ffffffffffffffffffffffffffffffffffffffff1603611628578083878060010198508151811061161b5761161b613313565b6020026020010181815250505b600101611592565b50909695505050505050565b611644612461565b478061164e575f80fd5b6116907f00000000000000000000000000000000000000000000000000000000000000006103e8611681846103b661317d565b61168b91906131bc565b612610565b6116c27f00000000000000000000000000000000000000000000000000000000000000006103e861168184603261317d565b47156116f0576116f06116ea600a5473ffffffffffffffffffffffffffffffffffffffff1690565b47612610565b50565b606060038054610a22906130ec565b606081831061173d576040517f32c1995a00000000000000000000000000000000000000000000000000000000815260040160405180910390fd5b5f806117475f5490565b9050600185101561175757600194505b80841115611763578093505b5f61176d87611482565b90508486101561178c5785850381811015611786578091505b5061178f565b505f5b5f8167ffffffffffffffff8111156117a9576117a9612d51565b6040519080825280602002602001820160405280156117d2578160200160208202803683370190505b509050815f036117e75793506113a992505050565b5f6117f188611d30565b90505f8160400151611801575080515b885b8881141580156118135750848714155b156118af576118218161256d565b925082604001516118a757825173ffffffffffffffffffffffffffffffffffffffff161561184e57825191505b8a73ffffffffffffffffffffffffffffffffffffffff168273ffffffffffffffffffffffffffffffffffffffff16036118a7578084888060010199508151811061189a5761189a613313565b6020026020010181815250505b600101611803565b505050928352509095945050505050565b335f81815260076020908152604080832073ffffffffffffffffffffffffffffffffffffffff87168085529083529281902080547fffffffffffffffffffffffffffffffffffffffffffffffffffffffffffffff001686151590811790915590519081529192917f17307eab39ab6107e8899845ad3d59bd9653f200f220920489ca2b5937696c31910160405180910390a35050565b61195e612461565b805f036119ae57600a80545f91907fffffffffffffffffffffff00ffffffffffffffffffffffffffffffffffffffff1674010000000000000000000000000000000000000000835b021790555050565b806001036119fc57600a8054600191907fffffffffffffffffffffff00ffffffffffffffffffffffffffffffffffffffff1674010000000000000000000000000000000000000000836119a6565b80600203611a4a57600a8054600291907fffffffffffffffffffffff00ffffffffffffffffffffffffffffffffffffffff1674010000000000000000000000000000000000000000836119a6565b6040517fb4fa3fb300000000000000000000000000000000000000000000000000000000815260040160405180910390fd5b333214611ab5576040517fea8370b000000000000000000000000000000000000000000000000000000000815260040160405180910390fd5b6002600a5474010000000000000000000000000000000000000000900460ff166002811115611ae657611ae6612c73565b14611b1d576040517faf1fd67500000000000000000000000000000000000000000000000000000000815260040160405180910390fd5b7f0000000000000000000000000000000000000000000000000000000000000000811115611b77576040517f6b35016900000000000000000000000000000000000000000000000000000000815260040160405180910390fd5b6001545f547f0000000000000000000000000000000000000000000000000000000000000000918391035f1901611bae919061316a565b1115611be6576040517f8a164f6300000000000000000000000000000000000000000000000000000000815260040160405180910390fd5b7f000000000000000000000000000000000000000000000000000000000000000081611c1133611ee5565b611c1b919061316a565b1115611c53576040517f2fa72bd800000000000000000000000000000000000000000000000000000000815260040160405180910390fd5b611c7d7f00000000000000000000000000000000000000000000000000000000000000008261317d565b341015611cb6576040517f6a12f10400000000000000000000000000000000000000000000000000000000815260040160405180910390fd5b6116f0338261228e565b611ccb848484610e60565b73ffffffffffffffffffffffffffffffffffffffff83163b15611d2a57611cf4848484846126a6565b611d2a576040517fd1a57ed600000000000000000000000000000000000000000000000000000000815260040160405180910390fd5b50505050565b604080516080810182525f808252602082018190529181018290526060810191909152604080516080810182525f8082526020820181905291810182905260608101919091526001831080611d8657505f548310155b15611d915792915050565b611d9a8361256d565b9050806040015115611dac5792915050565b6113a98361281c565b6060611dc082612243565b611e51576040517f08c379a000000000000000000000000000000000000000000000000000000000815260206004820152602f60248201527f4552433732314d657461646174613a2055524920717565727920666f72206e6f60448201527f6e6578697374656e7420746f6b656e000000000000000000000000000000000060648201526084015b60405180910390fd5b5f611e5a6128b9565b600d5490915060ff1615155f03611eae575f815111611e875760405180602001604052805f8152506113a9565b80604051602001611e989190613340565b6040516020818303038152906040529392505050565b5f815111611eca5760405180602001604052805f8152506113a9565b80611ed4846128c8565b604051602001611e989291906133a6565b73ffffffffffffffffffffffffffffffffffffffff81165f908152600560205260408082205460c081901c911c67ffffffffffffffff16610a0d91906133fc565b600c8054611f33906130ec565b80601f0160208091040260200160405190810160405280929190818152602001828054611f5f906130ec565b8015611faa5780601f10611f8157610100808354040283529160200191611faa565b820191905f5260205f20905b815481529060010190602001808311611f8d57829003601f168201915b505050505081565b600b545f9073ffffffffffffffffffffffffffffffffffffffff90811690831603611fdf57506001610a0d565b73ffffffffffffffffffffffffffffffffffffffff8084165f9081526007602090815260408083209386168352929052205460ff166113a9565b612021612461565b73ffffffffffffffffffffffffffffffffffffffff81166120c4576040517f08c379a000000000000000000000000000000000000000000000000000000000815260206004820152602660248201527f4f776e61626c653a206e6577206f776e657220697320746865207a65726f206160448201527f64647265737300000000000000000000000000000000000000000000000000006064820152608401611e48565b6116f0816124f7565b5f7f01ffc9a7000000000000000000000000000000000000000000000000000000007fffffffff000000000000000000000000000000000000000000000000000000008316148061215f57507f80ac58cd000000000000000000000000000000000000000000000000000000007fffffffff000000000000000000000000000000000000000000000000000000008316145b80610a0d5750507fffffffff00000000000000000000000000000000000000000000000000000000167f5b5e139f000000000000000000000000000000000000000000000000000000001490565b5f7fffffffff0000000000000000000000000000000000000000000000000000000082167f2a55205a000000000000000000000000000000000000000000000000000000001480610a0d57507f01ffc9a7000000000000000000000000000000000000000000000000000000007fffffffff00000000000000000000000000000000000000000000000000000000831614610a0d565b5f8160011115801561225557505f5482105b8015610a0d5750505f908152600460205260409020547c0100000000000000000000000000000000000000000000000000000000161590565b5f8054908290036122cb576040517fb562e8dd00000000000000000000000000000000000000000000000000000000815260040160405180910390fd5b73ffffffffffffffffffffffffffffffffffffffff83165f8181526005602090815260408083208054680100000000000000018802019055848352600490915281206001851460e11b4260a01b178317905582840190839083907fddf252ad1be2c89b69c2b068fc378daa952ba7f163c4a11628f55a4df523b3ef8180a4600183015b8181146123845780835f7fddf252ad1be2c89b69c2b068fc378daa952ba7f163c4a11628f55a4df523b3ef5f80a460010161234e565b50815f036123be576040517f2e07630000000000000000000000000000000000000000000000000000000000815260040160405180910390fd5b5f5550505050565b5f818060011161242f575f5481101561242f575f81815260046020526040812054907c01000000000000000000000000000000000000000000000000000000008216900361242d575b805f036113a957505f19015f8181526004602052604090205461240f565b505b6040517fdf2d9b4200000000000000000000000000000000000000000000000000000000815260040160405180910390fd5b600a5473ffffffffffffffffffffffffffffffffffffffff163314611513576040517f08c379a000000000000000000000000000000000000000000000000000000000815260206004820181905260248201527f4f776e61626c653a2063616c6c6572206973206e6f7420746865206f776e65726044820152606401611e48565b5f826124ee8584612965565b14949350505050565b600a805473ffffffffffffffffffffffffffffffffffffffff8381167fffffffffffffffffffffffff0000000000000000000000000000000000000000831681179093556040519116919082907f8be0079c531659141344cd1fd0a4f28419497f9722a3daafe3b4186f6b6457e0905f90a35050565b604080516080810182525f8082526020820181905291810182905260608101919091525f82815260046020526040902054610a0d906040805160808101825273ffffffffffffffffffffffffffffffffffffffff8316815260a083901c67ffffffffffffffff1660208201527c0100000000000000000000000000000000000000000000000000000000831615159181019190915260e89190911c606082015290565b5f8273ffffffffffffffffffffffffffffffffffffffff16826040515f6040518083038185875af1925050503d805f8114612666576040519150601f19603f3d011682016040523d82523d5f602084013e61266b565b606091505b5050905080611207576040517f90b8ec1800000000000000000000000000000000000000000000000000000000815260040160405180910390fd5b6040517f150b7a020000000000000000000000000000000000000000000000000000000081525f9073ffffffffffffffffffffffffffffffffffffffff85169063150b7a029061270090339089908890889060040161340f565b6020604051808303815f875af1925050508015612758575060408051601f3d9081017fffffffffffffffffffffffffffffffffffffffffffffffffffffffffffffffe016820190925261275591810190613457565b60015b6127cd573d808015612785576040519150601f19603f3d011682016040523d82523d5f602084013e61278a565b606091505b5080515f036127c5576040517fd1a57ed600000000000000000000000000000000000000000000000000000000815260040160405180910390fd5b805181602001fd5b7fffffffff00000000000000000000000000000000000000000000000000000000167f150b7a02000000000000000000000000000000000000000000000000000000001490505b949350505050565b604080516080810182525f808252602082018190529181018290526060810191909152610a0d61284b836123c6565b6040805160808101825273ffffffffffffffffffffffffffffffffffffffff8316815260a083901c67ffffffffffffffff1660208201527c0100000000000000000000000000000000000000000000000000000000831615159181019190915260e89190911c606082015290565b6060600c8054610a22906130ec565b60605f6128d4836129b1565b60010190505f8167ffffffffffffffff8111156128f3576128f3612d51565b6040519080825280601f01601f19166020018201604052801561291d576020820181803683370190505b5090508181016020015b5f19017f3031323334353637383961626364656600000000000000000000000000000000600a86061a8153600a850494508461292757509392505050565b5f81815b84518110156129a9576129958286838151811061298857612988613313565b6020026020010151612a92565b9150806129a181613472565b915050612969565b509392505050565b5f807a184f03e93ff9f4daa797ed6e38ed64bf6a1f01000000000000000083106129f9577a184f03e93ff9f4daa797ed6e38ed64bf6a1f010000000000000000830492506040015b6d04ee2d6d415b85acef81000000008310612a25576d04ee2d6d415b85acef8100000000830492506020015b662386f26fc100008310612a4357662386f26fc10000830492506010015b6305f5e1008310612a5b576305f5e100830492506008015b6127108310612a6f57612710830492506004015b60648310612a81576064830492506002015b600a8310610a0d5760010192915050565b5f818310612aac575f8281526020849052604090206113a9565b5f8381526020839052604090206113a9565b7fffffffff00000000000000000000000000000000000000000000000000000000811681146116f0575f80fd5b5f60208284031215612afb575f80fd5b81356113a981612abe565b5f5b83811015612b20578181015183820152602001612b08565b50505f910152565b5f8151808452612b3f816020860160208601612b06565b601f017fffffffffffffffffffffffffffffffffffffffffffffffffffffffffffffffe0169290920160200192915050565b602081525f6113a96020830184612b28565b5f60208284031215612b93575f80fd5b5035919050565b803573ffffffffffffffffffffffffffffffffffffffff81168114612bbd575f80fd5b919050565b5f8060408385031215612bd3575f80fd5b612bdc83612b9a565b946020939093013593505050565b5f8083601f840112612bfa575f80fd5b50813567ffffffffffffffff811115612c11575f80fd5b6020830191508360208260051b85010111156111b9575f80fd5b5f805f60408486031215612c3d575f80fd5b83359250602084013567ffffffffffffffff811115612c5a575f80fd5b612c6686828701612bea565b9497909650939450505050565b7f4e487b71000000000000000000000000000000000000000000000000000000005f52602160045260245ffd5b6020810160038310612cd9577f4e487b71000000000000000000000000000000000000000000000000000000005f52602160045260245ffd5b91905290565b5f805f60608486031215612cf1575f80fd5b612cfa84612b9a565b9250612d0860208501612b9a565b9150604084013590509250925092565b5f8060408385031215612d29575f80fd5b50508035926020909101359150565b5f60208284031215612d48575f80fd5b6113a982612b9a565b7f4e487b71000000000000000000000000000000000000000000000000000000005f52604160045260245ffd5b5f67ffffffffffffffff80841115612d9857612d98612d51565b604051601f85017fffffffffffffffffffffffffffffffffffffffffffffffffffffffffffffffe0908116603f01168101908282118183101715612dde57612dde612d51565b81604052809350858152868686011115612df6575f80fd5b858560208301375f602087830101525050509392505050565b5f60208284031215612e1f575f80fd5b813567ffffffffffffffff811115612e35575f80fd5b8201601f81018413612e45575f80fd5b61281484823560208401612d7e565b5f805f60408486031215612e66575f80fd5b612e6f84612b9a565b9250602084013567ffffffffffffffff811115612c5a575f80fd5b5f8060208385031215612e9b575f80fd5b823567ffffffffffffffff811115612eb1575f80fd5b612ebd85828601612bea565b90969095509350505050565b602080825282518282018190525f9190848201906040850190845b8181101561163057612f3f83855173ffffffffffffffffffffffffffffffffffffffff815116825267ffffffffffffffff602082015116602083015260408101511515604083015262ffffff60608201511660608301525050565b9284019260809290920191600101612ee4565b602080825282518282018190525f9190848201906040850190845b8181101561163057835183529284019291840191600101612f6d565b5f805f60608486031215612f9b575f80fd5b612fa484612b9a565b95602085013595506040909401359392505050565b5f8060408385031215612fca575f80fd5b612fd383612b9a565b915060208301358015158114612fe7575f80fd5b809150509250929050565b5f805f8060808587031215613005575f80fd5b61300e85612b9a565b935061301c60208601612b9a565b925060408501359150606085013567ffffffffffffffff81111561303e575f80fd5b8501601f8101871361304e575f80fd5b61305d87823560208401612d7e565b91505092959194509250565b815173ffffffffffffffffffffffffffffffffffffffff16815260208083015167ffffffffffffffff169082015260408083015115159082015260608083015162ffffff169082015260808101610a0d565b5f80604083850312156130cc575f80fd5b6130d583612b9a565b91506130e360208401612b9a565b90509250929050565b600181811c9082168061310057607f821691505b602082108103613137577f4e487b71000000000000000000000000000000000000000000000000000000005f52602260045260245ffd5b50919050565b7f4e487b71000000000000000000000000000000000000000000000000000000005f52601160045260245ffd5b80820180821115610a0d57610a0d61313d565b8082028115828204841417610a0d57610a0d61313d565b67ffffffffffffffff8181168382160190808211156131b5576131b561313d565b5092915050565b5f826131ef577f4e487b71000000000000000000000000000000000000000000000000000000005f52601260045260245ffd5b500490565b601f821115611207575f81815260208120601f850160051c8101602086101561321a5750805b601f850160051c820191505b818110156110c157828155600101613226565b815167ffffffffffffffff81111561325357613253612d51565b6132678161326184546130ec565b846131f4565b602080601f83116001811461329a575f84156132835750858301515b5f19600386901b1c1916600185901b1785556110c1565b5f858152602081207fffffffffffffffffffffffffffffffffffffffffffffffffffffffffffffffe08616915b828110156132e6578886015182559484019460019091019084016132c7565b508582101561330357878501515f19600388901b60f8161c191681555b5050505050600190811b01905550565b7f4e487b71000000000000000000000000000000000000000000000000000000005f52603260045260245ffd5b5f8251613351818460208701612b06565b7f68696464656e00000000000000000000000000000000000000000000000000009201918252507f2e6a736f6e0000000000000000000000000000000000000000000000000000006006820152600b01919050565b5f83516133b7818460208801612b06565b8351908301906133cb818360208801612b06565b7f2e6a736f6e0000000000000000000000000000000000000000000000000000009101908152600501949350505050565b81810381811115610a0d57610a0d61313d565b5f73ffffffffffffffffffffffffffffffffffffffff80871683528086166020840152508360408301526080606083015261344d6080830184612b28565b9695505050505050565b5f60208284031215613467575f80fd5b81516113a981612abe565b5f5f1982036134835761348361313d565b506001019056fea2646970667358221220280d4f9c49f4f2256ba5dc4300b15edf787dc1888ca84371e4d901d9b2dc474b64736f6c63430008140033697066733a2f2f62616679626569686177706d677135766c6b7537673261616f6375326532653766717a76716537717471346b6176326765326a79356f6a737174652f",
  "devdoc": {
    "events": {
      "Approval(address,address,uint256)": {
        "details": "Emitted when `owner` enables `approved` to manage the `tokenId` token."
      },
      "ApprovalForAll(address,address,bool)": {
        "details": "Emitted when `owner` enables or disables (`approved`) `operator` to manage all of its assets."
      },
      "ConsecutiveTransfer(uint256,uint256,address,address)": {
        "details": "Emitted when tokens in `fromTokenId` to `toTokenId` (inclusive) is transferred from `from` to `to`, as defined in the [ERC2309](https://eips.ethereum.org/EIPS/eip-2309) standard. See {_mintERC2309} for more details."
      },
      "Transfer(address,address,uint256)": {
        "details": "Emitted when `tokenId` token is transferred from `from` to `to`."
      }
    },
    "kind": "dev",
    "methods": {
      "approve(address,uint256)": {
        "details": "Gives permission to `to` to transfer `tokenId` token to another account. The approval is cleared when the token is transferred. Only a single account can be approved at a time, so approving the zero address clears previous approvals. Requirements: - The caller must own the token or be an approved operator. - `tokenId` must exist. Emits an {Approval} event."
      },
      "balanceOf(address)": {
        "details": "Returns the number of tokens in `owner`'s account."
      },
      "changeState(uint256)": {
        "params": {
          "_index": "index of state (0: closed, 1: whitelist, 2: public)"
        }
      },
      "explicitOwnershipOf(uint256)": {
        "details": "Returns the `TokenOwnership` struct at `tokenId` without reverting. If the `tokenId` is out of bounds: - `addr = address(0)` - `startTimestamp = 0` - `burned = false` - `extraData = 0` If the `tokenId` is burned: - `addr = <Address of owner before token was burned>` - `startTimestamp = <Timestamp when token was burned>` - `burned = true` - `extraData = <Extra data when token was burned>` Otherwise: - `addr = <Address of owner>` - `startTimestamp = <Timestamp of start of ownership>` - `burned = false` - `extraData = <Extra data at start of ownership>`"
      },
      "explicitOwnershipsOf(uint256[])": {
        "details": "Returns an array of `TokenOwnership` structs at `tokenIds` in order. See {ERC721AQueryable-explicitOwnershipOf}"
      },
      "getApproved(uint256)": {
        "details": "Returns the account approved for `tokenId` token. Requirements: - `tokenId` must exist."
      },
      "isApprovedForAll(address,address)": {
        "details": "inherits ERC721 and bypass approval requests from opensea and rarible",
        "returns": {
          "_0": "true if the operator opensea or rarible"
        }
      },
      "name()": {
        "details": "Returns the token collection name."
      },
      "owner()": {
        "details": "Returns the address of the current owner."
      },
      "ownerOf(uint256)": {
        "details": "Returns the owner of the `tokenId` token. Requirements: - `tokenId` must exist."
      },
      "publicSaleMint(uint256)": {
        "params": {
          "_amount": "token amount to mint"
        }
      },
      "renounceOwnership()": {
        "details": "Leaves the contract without owner. It will not be possible to call `onlyOwner` functions. Can only be called by the current owner. NOTE: Renouncing ownership will leave the contract without an owner, thereby disabling any functionality that is only available to the owner."
      },
      "reveal(string)": {
        "params": {
          "_newBaseUri": "actual URI"
        }
      },
      "royaltyInfo(uint256,uint256)": {
        "details": "Returns how much royalty is owed and to whom, based on a sale price that may be denominated in any unit of exchange. The royalty amount is denominated and should be paid in that same unit of exchange."
      },
      "safeTransferFrom(address,address,uint256)": {
        "details": "Equivalent to `safeTransferFrom(from, to, tokenId, '')`."
      },
      "safeTransferFrom(address,address,uint256,bytes)": {
        "details": "Safely transfers `tokenId` token from `from` to `to`. Requirements: - `from` cannot be the zero address. - `to` cannot be the zero address. - `tokenId` token must exist and be owned by `from`. - If the caller is not `from`, it must be approved to move this token by either {approve} or {setApprovalForAll}. - If `to` refers to a smart contract, it must implement {IERC721Receiver-onERC721Received}, which is called upon a safe transfer. Emits a {Transfer} event."
      },
      "setApprovalForAll(address,bool)": {
        "details": "Approve or remove `operator` as an operator for the caller. Operators can call {transferFrom} or {safeTransferFrom} for any token owned by the caller. Requirements: - The `operator` cannot be the caller. Emits an {ApprovalForAll} event."
      },
      "symbol()": {
        "details": "Returns the token collection symbol."
      },
      "tokenURI(uint256)": {
        "params": {
          "tokenId": "querying token id"
        },
        "returns": {
          "_0": "token URI"
        }
      },
      "tokensOfOwner(address)": {
        "details": "Returns an array of token IDs owned by `owner`. This function scans the ownership mapping and is O(`totalSupply`) in complexity. It is meant to be called off-chain. See {ERC721AQueryable-tokensOfOwnerIn} for splitting the scan into multiple smaller scans if the collection is large enough to cause an out-of-gas error (10K collections should be fine)."
      },
      "tokensOfOwnerIn(address,uint256,uint256)": {
        "details": "Returns an array of token IDs owned by `owner`, in the range [`start`, `stop`) (i.e. `start <= tokenId < stop`). This function allows for tokens to be queried if the collection grows too big for a single call of {ERC721AQueryable-tokensOfOwner}. Requirements: - `start < stop`"
      },
      "totalSupply()": {
        "details": "Returns the total number of tokens in existence. Burned tokens will reduce the count. To get the total number of tokens minted, please see {_totalMinted}."
      },
      "transferFrom(address,address,uint256)": {
        "details": "Transfers `tokenId` from `from` to `to`. Requirements: - `from` cannot be the zero address. - `to` cannot be the zero address. - `tokenId` token must be owned by `from`. - If the caller is not `from`, it must be approved to move this token by either {approve} or {setApprovalForAll}. Emits a {Transfer} event."
      },
      "transferOwnership(address)": {
        "details": "Transfers ownership of the contract to a new account (`newOwner`). Can only be called by the current owner."
      },
      "whitelistSaleMint(uint256,bytes32[])": {
        "params": {
          "_amount": "token amount to mint"
        }
      },
      "withdrawAll()": {
        "details": "calls _withdraw function to withdraw assets"
      }
    },
    "version": 1
  },
  "userdoc": {
    "errors": {
      "ApprovalCallerNotOwnerNorApproved()": [
        {
          "notice": "The caller must own the token or be an approved operator."
        }
      ],
      "ApprovalQueryForNonexistentToken()": [
        {
          "notice": "The token does not exist."
        }
      ],
      "BalanceQueryForZeroAddress()": [
        {
          "notice": "Cannot query the balance for the zero address."
        }
      ],
      "InvalidQueryRange()": [
        {
          "notice": "Invalid query range (`start` >= `stop`)."
        }
      ],
      "MintERC2309QuantityExceedsLimit()": [
        {
          "notice": "The `quantity` minted with ERC2309 exceeds the safety limit."
        }
      ],
      "MintToZeroAddress()": [
        {
          "notice": "Cannot mint to the zero address."
        }
      ],
      "MintZeroQuantity()": [
        {
          "notice": "The quantity of tokens minted must be more than zero."
        }
      ],
      "OwnerQueryForNonexistentToken()": [
        {
          "notice": "The token does not exist."
        }
      ],
      "OwnershipNotInitializedForExtraData()": [
        {
          "notice": "The `extraData` cannot be set on an unintialized ownership slot."
        }
      ],
      "TransferCallerNotOwnerNorApproved()": [
        {
          "notice": "The caller must own the token or be an approved operator."
        }
      ],
      "TransferFromIncorrectOwner()": [
        {
          "notice": "The token must be owned by `from`."
        }
      ],
      "TransferToNonERC721ReceiverImplementer()": [
        {
          "notice": "Cannot safely transfer to a contract that does not implement the ERC721Receiver interface."
        }
      ],
      "TransferToZeroAddress()": [
        {
          "notice": "Cannot transfer to the zero address."
        }
      ],
      "URIQueryForNonexistentToken()": [
        {
          "notice": "The token does not exist."
        }
      ]
    },
    "kind": "user",
    "methods": {
      "changeState(uint256)": {
        "notice": "owner can changes the sale state"
      },
      "constructor": {
        "notice": "state variables define and royalty sets in constructor"
      },
      "contractBalance()": {
        "notice": "returns contract balance"
      },
      "currentState()": {
        "notice": "returns current state of sale"
      },
      "getAccountMintCount(address)": {
        "notice": "returns mint amounts during public sale of addresses"
      },
      "getWhitelistMintCount(address)": {
        "notice": "returns mint amounts during whitelist sale of whitelisted addresses"
      },
      "isWhitelisted(address,bytes32[])": {
        "notice": "returns if an address whitelisted or not"
      },
      "publicSaleMint(uint256)": {
        "notice": "all addressses can mint tokens for a certain ETH within a certain limit during public sale"
      },
      "reveal(string)": {
        "notice": "owner should reveal the metadata after sale phase only for once"
      },
      "whitelistSaleMint(uint256,bytes32[])": {
        "notice": "whitelisted addressses can mint tokens for a certain ETH within a certain limit during whitelist sale"
      },
      "withdrawAll()": {
        "notice": "owner can withdraw the all balance to associated accounts at any time"
      }
    },
    "version": 1
  },
  "storageLayout": {
    "storage": [
      {
        "astId": 2963,
        "contract": "contracts/IlkelBenlik.sol:IlkelBenlik",
        "label": "_currentIndex",
        "offset": 0,
        "slot": "0",
        "type": "t_uint256"
      },
      {
        "astId": 2965,
        "contract": "contracts/IlkelBenlik.sol:IlkelBenlik",
        "label": "_burnCounter",
        "offset": 0,
        "slot": "1",
        "type": "t_uint256"
      },
      {
        "astId": 2967,
        "contract": "contracts/IlkelBenlik.sol:IlkelBenlik",
        "label": "_name",
        "offset": 0,
        "slot": "2",
        "type": "t_string_storage"
      },
      {
        "astId": 2969,
        "contract": "contracts/IlkelBenlik.sol:IlkelBenlik",
        "label": "_symbol",
        "offset": 0,
        "slot": "3",
        "type": "t_string_storage"
      },
      {
        "astId": 2973,
        "contract": "contracts/IlkelBenlik.sol:IlkelBenlik",
        "label": "_packedOwnerships",
        "offset": 0,
        "slot": "4",
        "type": "t_mapping(t_uint256,t_uint256)"
      },
      {
        "astId": 2977,
        "contract": "contracts/IlkelBenlik.sol:IlkelBenlik",
        "label": "_packedAddressData",
        "offset": 0,
        "slot": "5",
        "type": "t_mapping(t_address,t_uint256)"
      },
      {
        "astId": 2982,
        "contract": "contracts/IlkelBenlik.sol:IlkelBenlik",
        "label": "_tokenApprovals",
        "offset": 0,
        "slot": "6",
        "type": "t_mapping(t_uint256,t_struct(TokenApprovalRef)2895_storage)"
      },
      {
        "astId": 2988,
        "contract": "contracts/IlkelBenlik.sol:IlkelBenlik",
        "label": "_operatorApprovals",
        "offset": 0,
        "slot": "7",
        "type": "t_mapping(t_address,t_mapping(t_address,t_bool))"
      },
      {
        "astId": 148,
        "contract": "contracts/IlkelBenlik.sol:IlkelBenlik",
        "label": "_defaultRoyaltyInfo",
        "offset": 0,
        "slot": "8",
        "type": "t_struct(RoyaltyInfo)145_storage"
      },
      {
        "astId": 153,
        "contract": "contracts/IlkelBenlik.sol:IlkelBenlik",
        "label": "_tokenRoyaltyInfo",
        "offset": 0,
        "slot": "9",
        "type": "t_mapping(t_uint256,t_struct(RoyaltyInfo)145_storage)"
      },
      {
        "astId": 7,
        "contract": "contracts/IlkelBenlik.sol:IlkelBenlik",
        "label": "_owner",
        "offset": 0,
        "slot": "10",
        "type": "t_address"
      },
      {
        "astId": 2179,
        "contract": "contracts/IlkelBenlik.sol:IlkelBenlik",
        "label": "state",
        "offset": 20,
        "slot": "10",
        "type": "t_enum(STATE)2174"
      },
      {
        "astId": 2181,
        "contract": "contracts/IlkelBenlik.sol:IlkelBenlik",
        "label": "raribleTransferProxy",
        "offset": 0,
        "slot": "11",
        "type": "t_address"
      },
      {
        "astId": 2184,
        "contract": "contracts/IlkelBenlik.sol:IlkelBenlik",
        "label": "BASE_URI",
        "offset": 0,
        "slot": "12",
        "type": "t_string_storage"
      },
      {
        "astId": 2187,
        "contract": "contracts/IlkelBenlik.sol:IlkelBenlik",
        "label": "isRevealed",
        "offset": 0,
        "slot": "13",
        "type": "t_bool"
      }
    ],
    "types": {
      "t_address": {
        "encoding": "inplace",
        "label": "address",
        "numberOfBytes": "20"
      },
      "t_bool": {
        "encoding": "inplace",
        "label": "bool",
        "numberOfBytes": "1"
      },
      "t_enum(STATE)2174": {
        "encoding": "inplace",
        "label": "enum IlkelBenlik.STATE",
        "numberOfBytes": "1"
      },
      "t_mapping(t_address,t_bool)": {
        "encoding": "mapping",
        "key": "t_address",
        "label": "mapping(address => bool)",
        "numberOfBytes": "32",
        "value": "t_bool"
      },
      "t_mapping(t_address,t_mapping(t_address,t_bool))": {
        "encoding": "mapping",
        "key": "t_address",
        "label": "mapping(address => mapping(address => bool))",
        "numberOfBytes": "32",
        "value": "t_mapping(t_address,t_bool)"
      },
      "t_mapping(t_address,t_uint256)": {
        "encoding": "mapping",
        "key": "t_address",
        "label": "mapping(address => uint256)",
        "numberOfBytes": "32",
        "value": "t_uint256"
      },
      "t_mapping(t_uint256,t_struct(RoyaltyInfo)145_storage)": {
        "encoding": "mapping",
        "key": "t_uint256",
        "label": "mapping(uint256 => struct ERC2981.RoyaltyInfo)",
        "numberOfBytes": "32",
        "value": "t_struct(RoyaltyInfo)145_storage"
      },
      "t_mapping(t_uint256,t_struct(TokenApprovalRef)2895_storage)": {
        "encoding": "mapping",
        "key": "t_uint256",
        "label": "mapping(uint256 => struct ERC721A.TokenApprovalRef)",
        "numberOfBytes": "32",
        "value": "t_struct(TokenApprovalRef)2895_storage"
      },
      "t_mapping(t_uint256,t_uint256)": {
        "encoding": "mapping",
        "key": "t_uint256",
        "label": "mapping(uint256 => uint256)",
        "numberOfBytes": "32",
        "value": "t_uint256"
      },
      "t_string_storage": {
        "encoding": "bytes",
        "label": "string",
        "numberOfBytes": "32"
      },
      "t_struct(RoyaltyInfo)145_storage": {
        "encoding": "inplace",
        "label": "struct ERC2981.RoyaltyInfo",
        "members": [
          {
            "astId": 142,
            "contract": "contracts/IlkelBenlik.sol:IlkelBenlik",
            "label": "receiver",
            "offset": 0,
            "slot": "0",
            "type": "t_address"
          },
          {
            "astId": 144,
            "contract": "contracts/IlkelBenlik.sol:IlkelBenlik",
            "label": "royaltyFraction",
            "offset": 20,
            "slot": "0",
            "type": "t_uint96"
          }
        ],
        "numberOfBytes": "32"
      },
      "t_struct(TokenApprovalRef)2895_storage": {
        "encoding": "inplace",
        "label": "struct ERC721A.TokenApprovalRef",
        "members": [
          {
            "astId": 2894,
            "contract": "contracts/IlkelBenlik.sol:IlkelBenlik",
            "label": "value",
            "offset": 0,
            "slot": "0",
            "type": "t_address"
          }
        ],
        "numberOfBytes": "32"
      },
      "t_uint256": {
        "encoding": "inplace",
        "label": "uint256",
        "numberOfBytes": "32"
      },
      "t_uint96": {
        "encoding": "inplace",
        "label": "uint96",
        "numberOfBytes": "12"
      }
    }
  }
}