{
  "address": "0xe7f1725E7734CE288F8367e1Bb143E90bb3F0512",
  "abi": [
    {
      "inputs": [
        {
          "internalType": "uint256",
          "name": "_maxTokens",
          "type": "uint256"
        },
        {
          "internalType": "uint256",
          "name": "_maxTokensForWhitelist",
          "type": "uint256"
        },
        {
          "internalType": "uint256",
          "name": "_maxTokensForAirdrop",
          "type": "uint256"
        },
        {
          "internalType": "uint256",
          "name": "_whitelistTokenPrice",
          "type": "uint256"
        },
        {
          "internalType": "uint256",
          "name": "_publicTokenPrice",
          "type": "uint256"
        },
        {
          "internalType": "uint256",
          "name": "_maxAmountPerMint",
          "type": "uint256"
        },
        {
          "internalType": "uint256",
          "name": "_maxAmountPerWhitelist",
          "type": "uint256"
        },
        {
          "internalType": "uint256",
          "name": "_maxAmountPerAccount",
          "type": "uint256"
        },
        {
          "internalType": "address",
          "name": "_raribleTransferProxy",
          "type": "address"
        },
        {
          "internalType": "address",
          "name": "_founder1",
          "type": "address"
        },
        {
          "internalType": "address",
          "name": "_founder2",
          "type": "address"
        },
        {
          "internalType": "address",
          "name": "_communityWallet",
          "type": "address"
        },
        {
          "internalType": "bytes32",
          "name": "_merkleRoot",
          "type": "bytes32"
        }
      ],
      "stateMutability": "nonpayable",
      "type": "constructor"
    },
    {
      "inputs": [],
      "name": "AlreadyRevealed",
      "type": "error"
    },
    {
      "inputs": [],
      "name": "ApprovalCallerNotOwnerNorApproved",
      "type": "error"
    },
    {
      "inputs": [],
      "name": "ApprovalQueryForNonexistentToken",
      "type": "error"
    },
    {
      "inputs": [],
      "name": "BalanceQueryForZeroAddress",
      "type": "error"
    },
    {
      "inputs": [],
      "name": "InsufficientETH",
      "type": "error"
    },
    {
      "inputs": [],
      "name": "InvalidInput",
      "type": "error"
    },
    {
      "inputs": [],
      "name": "InvalidQueryRange",
      "type": "error"
    },
    {
      "inputs": [],
      "name": "MaxAmountPerAccountExceeded",
      "type": "error"
    },
    {
      "inputs": [],
      "name": "MaxAmountPerMintExceeded",
      "type": "error"
    },
    {
      "inputs": [],
      "name": "MaxAmountPerWhitelistExceeded",
      "type": "error"
    },
    {
      "inputs": [],
      "name": "MaxSupplyExceeded",
      "type": "error"
    },
    {
      "inputs": [],
      "name": "MaxSupplyForAirdropExceeded",
      "type": "error"
    },
    {
      "inputs": [],
      "name": "MaxSupplyForWhitelistExceeded",
      "type": "error"
    },
    {
      "inputs": [],
      "name": "MintERC2309QuantityExceedsLimit",
      "type": "error"
    },
    {
      "inputs": [],
      "name": "MintToZeroAddress",
      "type": "error"
    },
    {
      "inputs": [],
      "name": "MintZeroQuantity",
      "type": "error"
    },
    {
      "inputs": [],
      "name": "NotAWhitelisted",
      "type": "error"
    },
    {
      "inputs": [],
      "name": "NotAnAccount",
      "type": "error"
    },
    {
      "inputs": [],
      "name": "NotPublicSalePhase",
      "type": "error"
    },
    {
      "inputs": [],
      "name": "NotWhitelistSalePhase",
      "type": "error"
    },
    {
      "inputs": [],
      "name": "OwnerQueryForNonexistentToken",
      "type": "error"
    },
    {
      "inputs": [],
      "name": "OwnershipNotInitializedForExtraData",
      "type": "error"
    },
    {
      "inputs": [],
      "name": "StillAirdropPhase",
      "type": "error"
    },
    {
      "inputs": [],
      "name": "TransferCallerNotOwnerNorApproved",
      "type": "error"
    },
    {
      "inputs": [],
      "name": "TransferFailed",
      "type": "error"
    },
    {
      "inputs": [],
      "name": "TransferFromIncorrectOwner",
      "type": "error"
    },
    {
      "inputs": [],
      "name": "TransferToNonERC721ReceiverImplementer",
      "type": "error"
    },
    {
      "inputs": [],
      "name": "TransferToZeroAddress",
      "type": "error"
    },
    {
      "inputs": [],
      "name": "URIQueryForNonexistentToken",
      "type": "error"
    },
    {
      "inputs": [],
      "name": "WrongStateForReveal",
      "type": "error"
    },
    {
      "anonymous": false,
      "inputs": [
        {
          "indexed": true,
          "internalType": "address",
          "name": "owner",
          "type": "address"
        },
        {
          "indexed": true,
          "internalType": "address",
          "name": "approved",
          "type": "address"
        },
        {
          "indexed": true,
          "internalType": "uint256",
          "name": "tokenId",
          "type": "uint256"
        }
      ],
      "name": "Approval",
      "type": "event"
    },
    {
      "anonymous": false,
      "inputs": [
        {
          "indexed": true,
          "internalType": "address",
          "name": "owner",
          "type": "address"
        },
        {
          "indexed": true,
          "internalType": "address",
          "name": "operator",
          "type": "address"
        },
        {
          "indexed": false,
          "internalType": "bool",
          "name": "approved",
          "type": "bool"
        }
      ],
      "name": "ApprovalForAll",
      "type": "event"
    },
    {
      "anonymous": false,
      "inputs": [
        {
          "indexed": true,
          "internalType": "uint256",
          "name": "fromTokenId",
          "type": "uint256"
        },
        {
          "indexed": false,
          "internalType": "uint256",
          "name": "toTokenId",
          "type": "uint256"
        },
        {
          "indexed": true,
          "internalType": "address",
          "name": "from",
          "type": "address"
        },
        {
          "indexed": true,
          "internalType": "address",
          "name": "to",
          "type": "address"
        }
      ],
      "name": "ConsecutiveTransfer",
      "type": "event"
    },
    {
      "anonymous": false,
      "inputs": [
        {
          "indexed": true,
          "internalType": "address",
          "name": "previousOwner",
          "type": "address"
        },
        {
          "indexed": true,
          "internalType": "address",
          "name": "newOwner",
          "type": "address"
        }
      ],
      "name": "OwnershipTransferred",
      "type": "event"
    },
    {
      "anonymous": false,
      "inputs": [
        {
          "indexed": true,
          "internalType": "address",
          "name": "from",
          "type": "address"
        },
        {
          "indexed": true,
          "internalType": "address",
          "name": "to",
          "type": "address"
        },
        {
          "indexed": true,
          "internalType": "uint256",
          "name": "tokenId",
          "type": "uint256"
        }
      ],
      "name": "Transfer",
      "type": "event"
    },
    {
      "inputs": [],
      "name": "AIRDROP_BASE_URI",
      "outputs": [
        {
          "internalType": "string",
          "name": "",
          "type": "string"
        }
      ],
      "stateMutability": "view",
      "type": "function"
    },
    {
      "inputs": [],
      "name": "BASE_URI",
      "outputs": [
        {
          "internalType": "string",
          "name": "",
          "type": "string"
        }
      ],
      "stateMutability": "view",
      "type": "function"
    },
    {
      "inputs": [],
      "name": "COMMUNITY_WALLET",
      "outputs": [
        {
          "internalType": "address",
          "name": "",
          "type": "address"
        }
      ],
      "stateMutability": "view",
      "type": "function"
    },
    {
      "inputs": [],
      "name": "FOUNDER_1",
      "outputs": [
        {
          "internalType": "address",
          "name": "",
          "type": "address"
        }
      ],
      "stateMutability": "view",
      "type": "function"
    },
    {
      "inputs": [],
      "name": "FOUNDER_2",
      "outputs": [
        {
          "internalType": "address",
          "name": "",
          "type": "address"
        }
      ],
      "stateMutability": "view",
      "type": "function"
    },
    {
      "inputs": [],
      "name": "MAX_AMOUNT_PER_ACCOUNT",
      "outputs": [
        {
          "internalType": "uint256",
          "name": "",
          "type": "uint256"
        }
      ],
      "stateMutability": "view",
      "type": "function"
    },
    {
      "inputs": [],
      "name": "MAX_AMOUNT_PER_MINT",
      "outputs": [
        {
          "internalType": "uint256",
          "name": "",
          "type": "uint256"
        }
      ],
      "stateMutability": "view",
      "type": "function"
    },
    {
      "inputs": [],
      "name": "MAX_AMOUNT_PER_WHITELIST",
      "outputs": [
        {
          "internalType": "uint256",
          "name": "",
          "type": "uint256"
        }
      ],
      "stateMutability": "view",
      "type": "function"
    },
    {
      "inputs": [],
      "name": "MAX_TOKENS",
      "outputs": [
        {
          "internalType": "uint256",
          "name": "",
          "type": "uint256"
        }
      ],
      "stateMutability": "view",
      "type": "function"
    },
    {
      "inputs": [],
      "name": "MAX_TOKENS_FOR_AIRDROP",
      "outputs": [
        {
          "internalType": "uint256",
          "name": "",
          "type": "uint256"
        }
      ],
      "stateMutability": "view",
      "type": "function"
    },
    {
      "inputs": [],
      "name": "MAX_TOKENS_FOR_WHITELIST",
      "outputs": [
        {
          "internalType": "uint256",
          "name": "",
          "type": "uint256"
        }
      ],
      "stateMutability": "view",
      "type": "function"
    },
    {
      "inputs": [],
      "name": "MERKLE_ROOT",
      "outputs": [
        {
          "internalType": "bytes32",
          "name": "",
          "type": "bytes32"
        }
      ],
      "stateMutability": "view",
      "type": "function"
    },
    {
      "inputs": [],
      "name": "PUBLIC_TOKEN_PRICE",
      "outputs": [
        {
          "internalType": "uint256",
          "name": "",
          "type": "uint256"
        }
      ],
      "stateMutability": "view",
      "type": "function"
    },
    {
      "inputs": [],
      "name": "WHITELIST_TOKEN_PRICE",
      "outputs": [
        {
          "internalType": "uint256",
          "name": "",
          "type": "uint256"
        }
      ],
      "stateMutability": "view",
      "type": "function"
    },
    {
      "inputs": [
        {
          "internalType": "address",
          "name": "_to",
          "type": "address"
        },
        {
          "internalType": "uint256",
          "name": "_amount",
          "type": "uint256"
        }
      ],
      "name": "airdropMint",
      "outputs": [],
      "stateMutability": "nonpayable",
      "type": "function"
    },
    {
      "inputs": [
        {
          "internalType": "address",
          "name": "to",
          "type": "address"
        },
        {
          "internalType": "uint256",
          "name": "tokenId",
          "type": "uint256"
        }
      ],
      "name": "approve",
      "outputs": [],
      "stateMutability": "payable",
      "type": "function"
    },
    {
      "inputs": [
        {
          "internalType": "address",
          "name": "owner",
          "type": "address"
        }
      ],
      "name": "balanceOf",
      "outputs": [
        {
          "internalType": "uint256",
          "name": "",
          "type": "uint256"
        }
      ],
      "stateMutability": "view",
      "type": "function"
    },
    {
      "inputs": [
        {
          "internalType": "uint256",
          "name": "_index",
          "type": "uint256"
        }
      ],
      "name": "changeState",
      "outputs": [],
      "stateMutability": "nonpayable",
      "type": "function"
    },
    {
      "inputs": [],
      "name": "contractBalance",
      "outputs": [
        {
          "internalType": "uint256",
          "name": "",
          "type": "uint256"
        }
      ],
      "stateMutability": "view",
      "type": "function"
    },
    {
      "inputs": [],
      "name": "currentState",
      "outputs": [
        {
          "internalType": "enum IlkelBenlik.STATE",
          "name": "",
          "type": "uint8"
        }
      ],
      "stateMutability": "view",
      "type": "function"
    },
    {
      "inputs": [
        {
          "internalType": "uint256",
          "name": "tokenId",
          "type": "uint256"
        }
      ],
      "name": "explicitOwnershipOf",
      "outputs": [
        {
          "components": [
            {
              "internalType": "address",
              "name": "addr",
              "type": "address"
            },
            {
              "internalType": "uint64",
              "name": "startTimestamp",
              "type": "uint64"
            },
            {
              "internalType": "bool",
              "name": "burned",
              "type": "bool"
            },
            {
              "internalType": "uint24",
              "name": "extraData",
              "type": "uint24"
            }
          ],
          "internalType": "struct IERC721A.TokenOwnership",
          "name": "",
          "type": "tuple"
        }
      ],
      "stateMutability": "view",
      "type": "function"
    },
    {
      "inputs": [
        {
          "internalType": "uint256[]",
          "name": "tokenIds",
          "type": "uint256[]"
        }
      ],
      "name": "explicitOwnershipsOf",
      "outputs": [
        {
          "components": [
            {
              "internalType": "address",
              "name": "addr",
              "type": "address"
            },
            {
              "internalType": "uint64",
              "name": "startTimestamp",
              "type": "uint64"
            },
            {
              "internalType": "bool",
              "name": "burned",
              "type": "bool"
            },
            {
              "internalType": "uint24",
              "name": "extraData",
              "type": "uint24"
            }
          ],
          "internalType": "struct IERC721A.TokenOwnership[]",
          "name": "",
          "type": "tuple[]"
        }
      ],
      "stateMutability": "view",
      "type": "function"
    },
    {
      "inputs": [
        {
          "internalType": "address",
          "name": "_to",
          "type": "address"
        },
        {
          "internalType": "uint256",
          "name": "_amount",
          "type": "uint256"
        }
      ],
      "name": "externalPublicSaleMint",
      "outputs": [],
      "stateMutability": "nonpayable",
      "type": "function"
    },
    {
      "inputs": [
        {
          "internalType": "address",
          "name": "_to",
          "type": "address"
        },
        {
          "internalType": "uint256",
          "name": "_amount",
          "type": "uint256"
        }
      ],
      "name": "externalWhitelistSaleMint",
      "outputs": [],
      "stateMutability": "nonpayable",
      "type": "function"
    },
    {
      "inputs": [
        {
          "internalType": "address",
          "name": "_account",
          "type": "address"
        }
      ],
      "name": "getAirdropMintCounter",
      "outputs": [
        {
          "internalType": "uint32",
          "name": "",
          "type": "uint32"
        }
      ],
      "stateMutability": "view",
      "type": "function"
    },
    {
      "inputs": [
        {
          "internalType": "uint256",
          "name": "tokenId",
          "type": "uint256"
        }
      ],
      "name": "getApproved",
      "outputs": [
        {
          "internalType": "address",
          "name": "",
          "type": "address"
        }
      ],
      "stateMutability": "view",
      "type": "function"
    },
    {
      "inputs": [
        {
          "internalType": "address",
          "name": "_account",
          "type": "address"
        }
      ],
      "name": "getPublicMintCounter",
      "outputs": [
        {
          "internalType": "uint256",
          "name": "",
          "type": "uint256"
        }
      ],
      "stateMutability": "view",
      "type": "function"
    },
    {
      "inputs": [
        {
          "internalType": "address",
          "name": "_account",
          "type": "address"
        }
      ],
      "name": "getWhitelistMintCounter",
      "outputs": [
        {
          "internalType": "uint32",
          "name": "",
          "type": "uint32"
        }
      ],
      "stateMutability": "view",
      "type": "function"
    },
    {
      "inputs": [
        {
          "internalType": "address",
          "name": "owner",
          "type": "address"
        },
        {
          "internalType": "address",
          "name": "operator",
          "type": "address"
        }
      ],
      "name": "isApprovedForAll",
      "outputs": [
        {
          "internalType": "bool",
          "name": "",
          "type": "bool"
        }
      ],
      "stateMutability": "view",
      "type": "function"
    },
    {
      "inputs": [],
      "name": "isRevealed",
      "outputs": [
        {
          "internalType": "bool",
          "name": "",
          "type": "bool"
        }
      ],
      "stateMutability": "view",
      "type": "function"
    },
    {
      "inputs": [
        {
          "internalType": "address",
          "name": "_account",
          "type": "address"
        },
        {
          "internalType": "bytes32[]",
          "name": "_merkleProof",
          "type": "bytes32[]"
        }
      ],
      "name": "isWhitelisted",
      "outputs": [
        {
          "internalType": "bool",
          "name": "",
          "type": "bool"
        }
      ],
      "stateMutability": "view",
      "type": "function"
    },
    {
      "inputs": [],
      "name": "name",
      "outputs": [
        {
          "internalType": "string",
          "name": "",
          "type": "string"
        }
      ],
      "stateMutability": "view",
      "type": "function"
    },
    {
      "inputs": [],
      "name": "owner",
      "outputs": [
        {
          "internalType": "address",
          "name": "",
          "type": "address"
        }
      ],
      "stateMutability": "view",
      "type": "function"
    },
    {
      "inputs": [
        {
          "internalType": "uint256",
          "name": "tokenId",
          "type": "uint256"
        }
      ],
      "name": "ownerOf",
      "outputs": [
        {
          "internalType": "address",
          "name": "",
          "type": "address"
        }
      ],
      "stateMutability": "view",
      "type": "function"
    },
    {
      "inputs": [
        {
          "internalType": "uint256",
          "name": "_amount",
          "type": "uint256"
        }
      ],
      "name": "publicSaleMint",
      "outputs": [],
      "stateMutability": "payable",
      "type": "function"
    },
    {
      "inputs": [],
      "name": "raribleTransferProxy",
      "outputs": [
        {
          "internalType": "address",
          "name": "",
          "type": "address"
        }
      ],
      "stateMutability": "view",
      "type": "function"
    },
    {
      "inputs": [],
      "name": "renounceOwnership",
      "outputs": [],
      "stateMutability": "nonpayable",
      "type": "function"
    },
    {
      "inputs": [
        {
          "internalType": "string",
          "name": "_newBaseUri",
          "type": "string"
        }
      ],
      "name": "reveal",
      "outputs": [],
      "stateMutability": "nonpayable",
      "type": "function"
    },
    {
      "inputs": [
        {
          "internalType": "uint256",
          "name": "tokenId",
          "type": "uint256"
        },
        {
          "internalType": "uint256",
          "name": "salePrice",
          "type": "uint256"
        }
      ],
      "name": "royaltyInfo",
      "outputs": [
        {
          "internalType": "address",
          "name": "",
          "type": "address"
        },
        {
          "internalType": "uint256",
          "name": "",
          "type": "uint256"
        }
      ],
      "stateMutability": "view",
      "type": "function"
    },
    {
      "inputs": [
        {
          "internalType": "address",
          "name": "from",
          "type": "address"
        },
        {
          "internalType": "address",
          "name": "to",
          "type": "address"
        },
        {
          "internalType": "uint256",
          "name": "tokenId",
          "type": "uint256"
        }
      ],
      "name": "safeTransferFrom",
      "outputs": [],
      "stateMutability": "payable",
      "type": "function"
    },
    {
      "inputs": [
        {
          "internalType": "address",
          "name": "from",
          "type": "address"
        },
        {
          "internalType": "address",
          "name": "to",
          "type": "address"
        },
        {
          "internalType": "uint256",
          "name": "tokenId",
          "type": "uint256"
        },
        {
          "internalType": "bytes",
          "name": "_data",
          "type": "bytes"
        }
      ],
      "name": "safeTransferFrom",
      "outputs": [],
      "stateMutability": "payable",
      "type": "function"
    },
    {
      "inputs": [
        {
          "internalType": "address",
          "name": "operator",
          "type": "address"
        },
        {
          "internalType": "bool",
          "name": "approved",
          "type": "bool"
        }
      ],
      "name": "setApprovalForAll",
      "outputs": [],
      "stateMutability": "nonpayable",
      "type": "function"
    },
    {
      "inputs": [],
      "name": "state",
      "outputs": [
        {
          "internalType": "enum IlkelBenlik.STATE",
          "name": "",
          "type": "uint8"
        }
      ],
      "stateMutability": "view",
      "type": "function"
    },
    {
      "inputs": [
        {
          "internalType": "bytes4",
          "name": "interfaceId",
          "type": "bytes4"
        }
      ],
      "name": "supportsInterface",
      "outputs": [
        {
          "internalType": "bool",
          "name": "",
          "type": "bool"
        }
      ],
      "stateMutability": "view",
      "type": "function"
    },
    {
      "inputs": [],
      "name": "symbol",
      "outputs": [
        {
          "internalType": "string",
          "name": "",
          "type": "string"
        }
      ],
      "stateMutability": "view",
      "type": "function"
    },
    {
      "inputs": [
        {
          "internalType": "uint256",
          "name": "_tokenId",
          "type": "uint256"
        }
      ],
      "name": "tokenURI",
      "outputs": [
        {
          "internalType": "string",
          "name": "",
          "type": "string"
        }
      ],
      "stateMutability": "view",
      "type": "function"
    },
    {
      "inputs": [
        {
          "internalType": "address",
          "name": "owner",
          "type": "address"
        }
      ],
      "name": "tokensOfOwner",
      "outputs": [
        {
          "internalType": "uint256[]",
          "name": "",
          "type": "uint256[]"
        }
      ],
      "stateMutability": "view",
      "type": "function"
    },
    {
      "inputs": [
        {
          "internalType": "address",
          "name": "owner",
          "type": "address"
        },
        {
          "internalType": "uint256",
          "name": "start",
          "type": "uint256"
        },
        {
          "internalType": "uint256",
          "name": "stop",
          "type": "uint256"
        }
      ],
      "name": "tokensOfOwnerIn",
      "outputs": [
        {
          "internalType": "uint256[]",
          "name": "",
          "type": "uint256[]"
        }
      ],
      "stateMutability": "view",
      "type": "function"
    },
    {
      "inputs": [],
      "name": "totalSupply",
      "outputs": [
        {
          "internalType": "uint256",
          "name": "",
          "type": "uint256"
        }
      ],
      "stateMutability": "view",
      "type": "function"
    },
    {
      "inputs": [
        {
          "internalType": "address",
          "name": "from",
          "type": "address"
        },
        {
          "internalType": "address",
          "name": "to",
          "type": "address"
        },
        {
          "internalType": "uint256",
          "name": "tokenId",
          "type": "uint256"
        }
      ],
      "name": "transferFrom",
      "outputs": [],
      "stateMutability": "payable",
      "type": "function"
    },
    {
      "inputs": [
        {
          "internalType": "address",
          "name": "newOwner",
          "type": "address"
        }
      ],
      "name": "transferOwnership",
      "outputs": [],
      "stateMutability": "nonpayable",
      "type": "function"
    },
    {
      "inputs": [
        {
          "internalType": "uint256",
          "name": "_amount",
          "type": "uint256"
        },
        {
          "internalType": "bytes32[]",
          "name": "_merkleProof",
          "type": "bytes32[]"
        }
      ],
      "name": "whitelistSaleMint",
      "outputs": [],
      "stateMutability": "payable",
      "type": "function"
    },
    {
      "inputs": [],
      "name": "withdrawAll",
      "outputs": [],
      "stateMutability": "nonpayable",
      "type": "function"
    }
  ],
  "transactionHash": "0xde68f46935e08f6b103e4adfffcd1b86c0b54adb5923e81ed867ca1c4318f293",
  "args": [
    "210",
    "50",
    "10",
    "1000000000000000000",
    "1100000000000000000",
    "30",
    "20",
    "50",
    "0x5FbDB2315678afecb367f032d93F642f64180aa3",
    "0x71bE63f3384f5fb98995898A86B02Fb2426c5788",
    "0xFABB0ac9d68B0B445fB7357272Ff202C5651694a",
    "0x1CBd3b2770909D4e10f157cABC84C7264073C9Ec",
    "0xa1c002e633f0237d9a4cb590efdf9eeb8d6b0d87cd1f9cc970e3a29aba305756"
  ],
  "numDeployments": 1,
  "solcInputHash": "411af97c853dfc9cd3a716f22267ebd9",
  "bytecode": "0x6102006040523462000141576200002f62000019620002bc565b9b9a909a99919998929897939796949662000639565b60405161408462000aef82396080518181816112de015281816120b8015261234d015260a05181818161133001528181611e87015261221c015260c051818181610eea01528181611be001528181611d1f01528181611e66015281816121fb0152612824015260e0518181816107050152611f51015261010051818181610c2701526121750152610120518181816112a5015281816120580152612311015261014051818181610dae01528181611ef4015261228c0152610160518181816110730152818161211801526123b5015261018051818181610e02015261243a01526101a05181610ced01526101c051818181611215015261248f01526101e051818181610a320152612cd0015261408490f35b5f80fd5b634e487b7160e01b5f52604160045260245ffd5b90601f01601f191681019081106001600160401b038211176200017b57604052565b62000145565b90620001986200019060405190565b928362000159565b565b805b036200014157565b9050519062000198826200019a565b6001600160a01b031690565b90565b6001600160a01b0381166200019c565b905051906200019882620001c2565b6101a0818303126200014157620001f98282620001a4565b92620002098360208401620001a4565b92620002198160408501620001a4565b92620002298260608301620001a4565b92620002398360808401620001a4565b92620002498160a08501620001a4565b92620002598260c08301620001a4565b92620002698360e08401620001a4565b926200027a816101008501620001d2565b926200028b826101208301620001d2565b92620001bf620002a0846101408501620001d2565b93620002b1816101608601620001d2565b9361018001620001a4565b620002df62004b7380380380620002d38162000181565b928339810190620001e1565b909192939495969798999a9b9c565b6001600160401b0381116200017b57602090601f01601f19160190565b90620003216200031b83620002ee565b62000181565b918252565b62000332600b6200030b565b6a496c6b656c42656e6c696b60a81b602082015290565b620001bf62000326565b6200035f60026200030b565b6124a160f11b602082015290565b620001bf62000353565b9060ff60a01b9060a01b5b9181191691161790565b634e487b7160e01b5f52602160045260245ffd5b60031115620003ab57565b6200038c565b906200019882620003a0565b620001bf90620003b1565b90620003dc620001bf620003e492620003bd565b825462000377565b9055565b634e487b7160e01b5f52602260045260245ffd5b90600160028304921680156200041f575b60208310146200041957565b620003e8565b91607f16916200040d565b915f1960089290920291821b911b62000382565b620001bf620001bf620001bf9290565b919062000463620001bf620003e4936200043e565b9083546200042a565b62000198915f916200044e565b81811062000485575050565b80620004945f6001936200046c565b0162000479565b9190601f8111620004ab57505050565b620004bd62000198935f5260205f2090565b906020601f840181900483019310620004e1575b6020601f90910104019062000479565b9091508190620004d1565b6002620005206274652f60e81b926200051360436200050c8354620003fc565b836200049b565b608781555f5260205f2090565b7f697066733a2f2f62616679626569686177706d677135766c6b7537673261616f81557f6375326532653766717a76716537717471346b6176326765326a79356f6a737160018201550155565b6200019890620004ec565b9060ff9062000382565b9062000595620001bf620003e492151590565b825462000578565b634e487b7160e01b5f52601160045260245ffd5b91908201809211620005bf57565b6200059d565b906001600160a01b039062000382565b620001bf90620001b3906001600160a01b031682565b620001bf90620005d5565b620001bf90620005eb565b9062000615620001bf620003e492620005f6565b8254620005c5565b6200062d620001bf620001bf9290565b6001600160601b031690565b969492909b999a989795939162000696818e6200066a6200065962000349565b620006636200036d565b9062000702565b620006905f6200067c81600a620003c8565b62000688600c6200056d565b600d62000582565b620005b1565b8810620006f057620001989c620006cb9860805260a05260c05260e05261010052610120526101405261016052600b62000601565b61018052826101a0526101c0526101e052620006e96101f46200061d565b9062000a4a565b60405163b4fa3fb360e01b8152600490fd5b906200070e9162000719565b620001983362000884565b6200019891829182918291829182918291906200083e565b906200073b815190565b906001600160401b0382116200017b5762000763826200075c8554620003fc565b856200049b565b602090601f8311600114620007a057620003e492915f918362000794575b50505f19600883021c1916906002021790565b015190505f8062000781565b601f19831691620007b4855f5260205f2090565b925f5b818110620007f357509160029391856001969410620007da575b50505002019055565b01515f196008601f8516021c191690555f8080620007d1565b91936020600181928787015181550195019201620007b7565b90620001989162000731565b905f199062000382565b9062000836620001bf620003e4926200043e565b825462000818565b9062000850620008589260026200080c565b60036200080c565b620001986200086662000ae2565b5f62000822565b620001bf90620001b3565b620001bf90546200086d565b62000890600a62000878565b906200089e81600a62000601565b620008d5620008ce7f8be0079c531659141344cd1fd0a4f28419497f9722a3daafe3b4186f6b6457e093620005f6565b91620005f6565b91620008e060405190565b5f90a3565b15620008ed57565b60405162461bcd60e51b815260206004820152602a60248201527f455243323938313a20726f79616c7479206665652077696c6c206578636565646044820152692073616c65507269636560b01b6064820152608490fd5b620001b3620001bf620001bf9290565b620001bf9062000945565b156200096857565b60405162461bcd60e51b815260206004820152601960248201527f455243323938313a20696e76616c6964207265636569766572000000000000006044820152606490fd5b620001bf604062000181565b906001600160a01b03199060a01b62000382565b620001bf906200062d906001600160601b031682565b90620009f7620001bf620003e492620009cd565b8254620009b9565b620001989162000a379060209062000a2962000a2282516001600160a01b031690565b8562000601565b01516001600160601b031690565b90620009e3565b906200019891620009ff565b62000acd620001989262000a7762000a656200062d62000ad5565b6001600160601b0383161115620008e5565b62000abd5f9362000aa262000a90620001b38762000955565b6001600160a01b038316141562000960565b62000aac620009ad565b948501906001600160a01b03169052565b6001600160601b03166020830152565b600862000a3e565b620001bf6127106200061d565b620001bf60016200043e56fe60806040526004361015610011575f80fd5b5f3560e01c806301ffc9a714610360578063051bcd691461035b57806306fdde0314610356578063081812fc14610351578063095ea7b31461034c5780630a887cda146103475780630c3f6acf1461034257806318160ddd1461033d5780631dee5cd91461033857806322ad06701461033357806323b872dd1461032e578063271047bc146103295780632a55205a14610324578063314843131461031f57806342842e0e1461031a57806347992844146103155780634c2612471461031057806351e75e8b1461030b57806354214f69146103065780635a23dd99146103015780635bbb2177146102fc5780636352211e146102f757806370a08231146102f2578063715018a6146102ed578063763f8d12146102e85780638462151c146102e3578063853828b6146102de57806385660e00146102d95780638b7afe2e146102d45780638da5cb5b146102cf5780638ecff037146102ca57806391245736146102c557806395d89b41146102c05780639845047b146102bb57806399a2557a146102b65780639b398f84146102b1578063a22cb465146102ac578063a8550e7e146102a7578063b00741cb146102a2578063b3ab66b01461029d578063b88d4fde14610298578063c19d93fb14610293578063c23dc68f1461028e578063c87b56dd14610289578063db4bfb6414610284578063dbddb26a1461027f578063e0cad9b11461027a578063e985e9c514610275578063f2fde38b14610270578063f41388971461026b578063f47c84c514610266578063f5b0b808146102615763fa260355036103905761131b565b611302565b6112c9565b611290565b611278565b61125c565b611200565b6111e5565b61105e565b611043565b61101c565b610fac565b610f89565b610f26565b610f0e565b610ed5565b610ebc565b610e69565b610e4d565b610ded565b610dd2565b610d99565b610d7e565b610d2c565b610d11565b610cd8565b610cc0565b610c99565b610c12565b610bfa565b610bdf565b610bc4565b610b9c565b610aad565b610a7b565b610a1d565b610a05565b610974565b61082d565b610814565b6107e5565b610786565b610772565b610729565b6106f0565b6106c5565b61069e565b610622565b61059f565b61053a565b6104ec565b610446565b6103be565b7fffffffff0000000000000000000000000000000000000000000000000000000081165b0361039057565b5f80fd5b905035906103a182610365565b565b90602082820312610390576103b791610394565b90565b9052565b34610390576103ec6103d96103d43660046103a3565b611847565b6040515b91829182901515815260200190565b0390f35b73ffffffffffffffffffffffffffffffffffffffff1690565b73ffffffffffffffffffffffffffffffffffffffff8116610389565b905035906103a182610409565b90602082820312610390576103b791610425565b34610390576103ec61046161045c366004610432565b612e25565b6040519182918263ffffffff909116815260200190565b5f91031261039057565b5f5b8381106104935750505f910152565b8181015183820152602001610484565b6104c46104cd6020936104d7936104b8815190565b80835293849260200190565b95869101610482565b601f01601f191690565b0190565b60208082526103b7929101906104a3565b34610390576104fc366004610478565b6103ec610507613119565b604051918291826104db565b80610389565b905035906103a182610513565b90602082820312610390576103b791610519565b34610390576103ec610555610550366004610526565b6132f9565b6040519182918273ffffffffffffffffffffffffffffffffffffffff909116815260200190565b9190604083820312610390576103b7906105968185610425565b93602001610519565b6105b36105ad36600461057c565b90613231565b604051005b909182601f830112156103905781359167ffffffffffffffff831161039057602001926020830284011161039057565b919091604081840312610390576105ff8382610519565b92602082013567ffffffffffffffff81116103905761061e92016105b8565b9091565b6105b36106303660046105e8565b91611fc0565b7f4e487b71000000000000000000000000000000000000000000000000000000005f52602160045260245ffd5b6003111561066d57565b610636565b906103a182610663565b6103b790610672565b6103ba9061067c565b6020810192916103a19190610685565b34610390576106ae366004610478565b6103ec6106b9612e81565b6040519182918261068e565b34610390576106d5366004610478565b6103ec6106e0612ea9565b6040519182918290815260200190565b3461039057610700366004610478565b6103ec7f00000000000000000000000000000000000000000000000000000000000000006106e0565b34610390576105b361073c36600461057c565b90611d9b565b9091606082840312610390576103b761075b8484610425565b936107698160208601610425565b93604001610519565b6105b3610780366004610742565b91613442565b34610390576103ec61046161079c366004610432565b612df6565b9190604083820312610390576103b7906105968185610519565b73ffffffffffffffffffffffffffffffffffffffff90911681526040810192916103a19160200152565b34610390576107fe6107f83660046107a1565b9061175a565b906103ec61080b60405190565b928392836107bb565b34610390576105b361082736600461057c565b906123f2565b6105b361083b366004610742565b916136f1565b7f4e487b71000000000000000000000000000000000000000000000000000000005f52604160045260245ffd5b90601f01601f1916810190811067ffffffffffffffff82111761089057604052565b610841565b906103a16108a260405190565b928361086e565b67ffffffffffffffff811161089057602090601f01601f19160190565b906108d86108d3836108a9565b610895565b918252565b6108e760436108c6565b7f697066733a2f2f6261667962656967356d6269696e69726e6464366d34336c3260208201527f6e6f3261343677636e6e7369686f64346f6f32687a6f6972356679786b6c777560408201527f63692f0000000000000000000000000000000000000000000000000000000000606082015290565b6103b76108dd565b6103b761095c565b6103b7610964565b3461039057610984366004610478565b6103ec61050761096c565b90825f939282370152565b909291926109aa6108d3826108a9565b93818552602085019082840111610390576103a19261098f565b9080601f83011215610390578160206103b79335910161099a565b9060208282031261039057813567ffffffffffffffff8111610390576103b792016109c4565b34610390576105b3610a183660046109df565b611b85565b3461039057610a2d366004610478565b6103ec7f00000000000000000000000000000000000000000000000000000000000000006106e0565b6103b7916008021c5b60ff1690565b906103b79154610a56565b6103b75f600d610a65565b3461039057610a8b366004610478565b6103ec6103d9610a70565b919091604081840312610390576105ff8382610425565b34610390576103ec6103d9610ac3366004610a96565b91612c8d565b9060208282031261039057813567ffffffffffffffff81116103905761061e92016105b8565b90610b0f610b08610afe845190565b8084529260200190565b9260200190565b905f5b818110610b1f5750505090565b909192610b83610b7c6001928651805173ffffffffffffffffffffffffffffffffffffffff16825260208082015167ffffffffffffffff169083015260408082015115159083015260609081015162ffffff169082015260800190565b9460200190565b929101610b12565b60208082526103b792910190610aef565b34610390576103ec610bb8610bb2366004610ac9565b90613cc2565b60405191829182610b8b565b34610390576103ec610555610bda366004610526565b61312d565b34610390576103ec6106e0610bf5366004610432565b612ef0565b3461039057610c0a366004610478565b6105b36113a8565b3461039057610c22366004610478565b6103ec7f00000000000000000000000000000000000000000000000000000000000000006106e0565b90610c5a610b08610afe845190565b905f5b818110610c6a5750505090565b909192610c80610b7c6001928651815260200190565b929101610c5d565b60208082526103b792910190610c4b565b34610390576103ec610cb4610caf366004610432565b613f42565b60405191829182610c88565b3461039057610cd0366004610478565b6105b36124e9565b3461039057610ce8366004610478565b6103ec7f0000000000000000000000000000000000000000000000000000000000000000610555565b3461039057610d21366004610478565b6103ec6106e0612e8b565b3461039057610d3c366004610478565b6103ec610555611367565b6103b7916008021c73ffffffffffffffffffffffffffffffffffffffff1690565b906103b79154610d47565b6103b75f600b610d68565b3461039057610d8e366004610478565b6103ec610555610d73565b3461039057610da9366004610478565b6103ec7f00000000000000000000000000000000000000000000000000000000000000006106e0565b3461039057610de2366004610478565b6103ec610507613123565b3461039057610dfd366004610478565b6103ec7f0000000000000000000000000000000000000000000000000000000000000000610555565b9091606082840312610390576103b7610e3f8484610425565b936107698160208601610519565b34610390576103ec610cb4610e63366004610e26565b91613d32565b34610390576103ec6106e0610e7f366004610432565b612e53565b801515610389565b905035906103a182610e84565b9190604083820312610390576103b790610eb38185610425565b93602001610e8c565b34610390576105b3610ecf366004610e99565b90613349565b3461039057610ee5366004610478565b6103ec7f00000000000000000000000000000000000000000000000000000000000000006106e0565b34610390576105b3610f21366004610526565b611cb4565b6105b3610f34366004610526565b6121a9565b9060808282031261039057610f4e8183610425565b92610f5c8260208501610425565b92610f6a8360408301610519565b92606082013567ffffffffffffffff8111610390576103b792016109c4565b6105b3610f97366004610f39565b92919091613701565b6103b76014600a610a65565b3461039057610fbc366004610478565b6103ec6106b9610fa0565b6080810192916103a19190805173ffffffffffffffffffffffffffffffffffffffff16825260208082015167ffffffffffffffff169083015260408082015115159083015260609081015162ffffff16910152565b34610390576103ec611037611032366004610526565b613b0d565b60405191829182610fc7565b34610390576103ec610507611059366004610526565b612811565b346103905761106e366004610478565b6103ec7f00000000000000000000000000000000000000000000000000000000000000006106e0565b7f4e487b71000000000000000000000000000000000000000000000000000000005f525f60045260245ffd5b7f4e487b71000000000000000000000000000000000000000000000000000000005f52602260045260245ffd5b9060016002830492168015611110575b602083101461110b57565b6110c3565b91607f1691611100565b80545f93929161113661112c836110f0565b8085529360200190565b9160018116908115611185575060011461114f57505050565b61116091929394505f5260205f2090565b915f925b8184106111715750500190565b805484840152602090930192600101611164565b92949550505060ff1916825215156020020190565b906103b79161111a565b906103a16111be926111b560405190565b9384809261119a565b038361086e565b905f106111d5576103b7906111a4565b611097565b6103b75f600c6111c5565b34610390576111f5366004610478565b6103ec6105076111da565b3461039057611210366004610478565b6103ec7f0000000000000000000000000000000000000000000000000000000000000000610555565b9190604083820312610390576103b7906112538185610425565b93602001610425565b34610390576103ec6103d9611272366004611239565b90612bb7565b34610390576105b361128b366004610432565b611523565b34610390576112a0366004610478565b6103ec7f00000000000000000000000000000000000000000000000000000000000000006106e0565b34610390576112d9366004610478565b6103ec7f00000000000000000000000000000000000000000000000000000000000000006106e0565b34610390576105b361131536600461057c565b906122d3565b346103905761132b366004610478565b6103ec7f00000000000000000000000000000000000000000000000000000000000000006106e0565b6103b7906103f0565b6103b79054611354565b6103b7600a61135d565b61137961141e565b6103a1611397565b6103f06103b76103b79290565b6103b790611381565b6103a16113a35f61138e565b61159e565b6103a1611371565b156113b757565b6040517f08c379a00000000000000000000000000000000000000000000000000000000081528061141a600482016020808252818101527f4f776e61626c653a2063616c6c6572206973206e6f7420746865206f776e6572604082015260600190565b0390fd5b6103a1611429611367565b61144f611435336103f0565b9173ffffffffffffffffffffffffffffffffffffffff1690565b146113b0565b6103a19061146161141e565b6114f2565b1561146d57565b6040517f08c379a000000000000000000000000000000000000000000000000000000000815260206004820152602660248201527f4f776e61626c653a206e6577206f776e657220697320746865207a65726f206160448201527f64647265737300000000000000000000000000000000000000000000000000006064820152608490fd5b6103a1906113a36115056103f05f61138e565b73ffffffffffffffffffffffffffffffffffffffff83161415611466565b6103a190611455565b9073ffffffffffffffffffffffffffffffffffffffff905b9181191691161790565b6103f06103b76103b79273ffffffffffffffffffffffffffffffffffffffff1690565b6103b79061154e565b6103b790611571565b906115936103b761159a9261157a565b825461152c565b9055565b6115a8600a61135d565b906115b481600a611583565b6115e76115e17f8be0079c531659141344cd1fd0a4f28419497f9722a3daafe3b4186f6b6457e09361157a565b9161157a565b916115f160405190565b80805b0390a3565b6103b76103b76103b79290565b90611610906115f9565b5f5260205260405f2090565b6103b79060a01c5b6bffffffffffffffffffffffff1690565b6103b7905461161c565b6103b76040610895565b906103a161168a5f61165961163f565b9461168461166883830161135d565b73ffffffffffffffffffffffffffffffffffffffff1687840152565b01611635565b6bffffffffffffffffffffffff166020840152565b6103b790611649565b6103b76103b76103b7926bffffffffffffffffffffffff1690565b7f4e487b71000000000000000000000000000000000000000000000000000000005f52601160045260245ffd5b91906116fb565b9290565b9180830292818404149015171561170e57565b6116c3565b7f4e487b71000000000000000000000000000000000000000000000000000000005f52601260045260245ffd5b9061174a565b9190565b908115611755570490565b611713565b6117736117789193929361176b5f90565b506009611606565b61169f565b91611797835173ffffffffffffffffffffffffffffffffffffffff1690565b905f916117a96114356103f08561138e565b1461180e575b906117f26117e1611746936117db6117d660208901516bffffffffffffffffffffffff1690565b6116a8565b906116f0565b6117ec6117d661183c565b90611740565b93015173ffffffffffffffffffffffffffffffffffffffff1690565b9250611746906117f26117e1611824600861169f565b9592935050506117af565b6116246103b76103b79290565b6103b761271061182f565b61185081613082565b90811561185b575090565b6103b791507f2a55205a000000000000000000000000000000000000000000000000000000007fffffffff000000000000000000000000000000000000000000000000000000008216149081156118b0575090565b6103b791506119007f01ffc9a7000000000000000000000000000000000000000000000000000000005b917fffffffff000000000000000000000000000000000000000000000000000000001690565b1490565b6103a19061191061141e565b611adb565b6103b79060a01c610a5f565b6103b79054611915565b6103b790610a5f565b6103b7905461192b565b9060ff90611544565b906119576103b761159a92151590565b825461193e565b919060086115449102916119725f19841b90565b921b90565b91906119886103b761159a936115f9565b90835461195e565b6103a1915f91611977565b8181106119a6575050565b806119b35f600193611990565b0161199b565b9190601f81116119c857505050565b6119d86103a1935f5260205f2090565b906020601f8401819004830193106119fa575b6020601f90910104019061199b565b90915081906119eb565b90611a0d815190565b9067ffffffffffffffff821161089057611a3182611a2b85546110f0565b856119b9565b602090601f8311600114611a6a5761159a92915f9183611a5f575b50505f19600883021c1916906002021790565b015190505f80611a4c565b601f19831691611a7d855f5260205f2090565b925f5b818110611ab957509160029391856001969410611aa1575b50505002019055565b01515f196008601f8516021c191690555f8080611a98565b91936020600181928787015181550195019201611a80565b906103a191611a04565b611ae5600a611921565b611af8611af26002610672565b91610672565b14611b28576040517fede69771000000000000000000000000000000000000000000000000000000008152600490fd5b611b32600d611934565b611b3e60015b91151590565b14611b5a576103a190611b536001600d611947565b600c611ad1565b6040517fa89ac151000000000000000000000000000000000000000000000000000000008152600490fd5b6103a190611904565b6103a190611b9a61141e565b611bd6565b9074ff00000000000000000000000000000000000000009060a01b611544565b90611bcf6103b761159a9261067c565b8254611b9f565b611bde612ea9565b7f000000000000000000000000000000000000000000000000000000000000000011611c89575f611c0e816115f9565b8203611c20576103a19150600a611bbf565b506001611c2c816115f9565b8203611c3e576103a19150600a611bbf565b50600290611c4e611746836115f9565b03611c5e576103a190600a611bbf565b6040517fb4fa3fb3000000000000000000000000000000000000000000000000000000008152600490fd5b6040517fec2c6727000000000000000000000000000000000000000000000000000000008152600490fd5b6103a190611b8e565b906103a191611cca61141e565b611d0b565b9190820180921161170e57565b611ce96103b76103b79290565b63ffffffff1690565b63ffffffff9081169116019063ffffffff821161170e57565b90611d1d81611d18612ea9565b611ccf565b7f000000000000000000000000000000000000000000000000000000000000000010611d705781611d6b611d65611d566103a195612df6565b611d5f85611cdc565b90611cf2565b82612584565b6138b4565b6040517fca586aa8000000000000000000000000000000000000000000000000000000008152600490fd5b906103a191611cbd565b9190611db9611db5838333612c8d565b1590565b611dc6576103a192611e04565b6040517f48df50e8000000000000000000000000000000000000000000000000000000008152600490fd5b6103b76103b76103b79263ffffffff1690565b915050611e11600a611921565b611e1e611af26001610672565b14611e4f576040515b7f5b77ceac000000000000000000000000000000000000000000000000000000008152600490fd5b611e5b81611d18612ea9565b611eab6117466103b77f00000000000000000000000000000000000000000000000000000000000000007f0000000000000000000000000000000000000000000000000000000000000000611ccf565b1115611edd576040515b7fde42be6c000000000000000000000000000000000000000000000000000000008152600490fd5b611ef281611d18611eed33612e25565b611df1565b7f00000000000000000000000000000000000000000000000000000000000000001015611f45576040515b7f37ac80a2000000000000000000000000000000000000000000000000000000008152600490fd5b34611f766117466103b77f0000000000000000000000000000000000000000000000000000000000000000856116f0565b10611f95576103a19033611d6b611f8f611d5683612e25565b826125e9565b6040517f6a12f104000000000000000000000000000000000000000000000000000000008152600490fd5b906103a19291611da5565b33611fd532611435565b03611fe3576103a19061200e565b6040517fea8370b0000000000000000000000000000000000000000000000000000000008152600490fd5b612018600a611921565b612025611af26002610672565b14612056576040515b7faf1fd675000000000000000000000000000000000000000000000000000000008152600490fd5b7f00000000000000000000000000000000000000000000000000000000000000008111156120aa576040515b7f6b350169000000000000000000000000000000000000000000000000000000008152600490fd5b6120b681611d18612ea9565b7f00000000000000000000000000000000000000000000000000000000000000001015612109576040515b7f8a164f63000000000000000000000000000000000000000000000000000000008152600490fd5b61211681611d1833612e53565b7f00000000000000000000000000000000000000000000000000000000000000001015612169576040515b7f2fa72bd8000000000000000000000000000000000000000000000000000000008152600490fd5b3461219a6117466103b77f0000000000000000000000000000000000000000000000000000000000000000856116f0565b10611f95576103a190336138b4565b6103a190611fcb565b906103a1916121bf61141e565b906121ca600a611921565b6121d7611af26001610672565b146121e457604051611e27565b6121f081611d18612ea9565b6122406117466103b77f00000000000000000000000000000000000000000000000000000000000000007f0000000000000000000000000000000000000000000000000000000000000000611ccf565b116122cb576122516103f05f61138e565b73ffffffffffffffffffffffffffffffffffffffff83160361227a576103a19150611d6b611367565b61228a81611d18611eed85612e25565b7f0000000000000000000000000000000000000000000000000000000000000000106122c35781611d6b611f8f611d566103a195612e25565b604051611f1d565b604051611eb5565b906103a1916121b2565b906103a1916122ea61141e565b906122f5600a611921565b612302611af26002610672565b1461230f5760405161202e565b7f000000000000000000000000000000000000000000000000000000000000000081111561233f57604051612082565b61234b81611d18612ea9565b7f0000000000000000000000000000000000000000000000000000000000000000106123ea5761237d6103f05f61138e565b73ffffffffffffffffffffffffffffffffffffffff8316036123a6576103a19150611d6b611367565b6123b381611d1884612e53565b7f0000000000000000000000000000000000000000000000000000000000000000106123e2576103a1916138b4565b604051612141565b6040516120e1565b906103a1916122dd565b61240461141e565b6103a1612413565b1561039057565b61241c3061157a565b5f6124bf823161243561242e846115f9565b821161240c565b6124817f000000000000000000000000000000000000000000000000000000000000000061248761247061246a6103b66115f9565b856116f0565b916124816103e8936117ec856115f9565b9061250f565b6117ec6124b97f0000000000000000000000000000000000000000000000000000000000000000946117db60326115f9565b916115f9565b6124cd6117468331926115f9565b116124d55750565b6103a1906124e1611367565b90319061250f565b6103a16123fc565b3d1561250a576125003d6108c6565b903d5f602084013e565b606090565b5f80916125339361251f60405190565b90818003925af161252e6124f1565b501590565b61253957565b6040517f90b8ec18000000000000000000000000000000000000000000000000000000008152600490fd5b6125776103b76103b79263ffffffff1690565b67ffffffffffffffff1690565b6125906103a192612564565b9061300b565b6103b7906125a76117466103b79490565b901b90565b6125776103b76103b79290565b6125d69067ffffffffffffffff165b9167ffffffffffffffff1690565b019067ffffffffffffffff821161170e57565b61259061261361260e6103a19461260961260360206115f9565b91611df1565b612596565b6125ac565b61262461261f84612df6565b612564565b906125b9565b1561263157565b6040517f08c379a000000000000000000000000000000000000000000000000000000000815260206004820152602f60248201527f4552433732314d657461646174613a2055524920717565727920666f72206e6f60448201527f6e6578697374656e7420746f6b656e00000000000000000000000000000000006064820152608490fd5b6103b790546110f0565b6103b75f6108c6565b6103b76126c0565b80545f9392916126e76126e3836110f0565b9390565b9160018116908115612735575060011461270057505050565b61271191929394505f5260205f2090565b5f905b8382106127215750500190565b600181602092548486015201910190612714565b7fffffffffffffffffffffffffffffffffffffffffffffffffffffffffffffff001683525050811515909102019150565b61277661279f916103b7936126d1565b7f68696464656e0000000000000000000000000000000000000000000000000000815260060190565b7f2e6a736f6e000000000000000000000000000000000000000000000000000000815260050190565b6104d76127e0926020926127da815190565b94859290565b93849101610482565b916127fa6103b79361279f936126d1565b906127c8565b916127fa6103b79361279f936127c8565b61282261281d826133c6565b61262a565b7f000000000000000000000000000000000000000000000000000000000000000081116128b55761285b6128576103b7610964565b5190565b6128676117465f6115f9565b11156128ac576128a06103b76103b792612888612882610964565b91612983565b9061289260405190565b938492602084019283612800565b9081038252038261086e565b506103b76126c9565b6128bf600d611934565b5f906128ca82611b38565b1461292257600c906128e76117466128e1846126b6565b926115f9565b1115612918576103b76128a0916129006103b794612983565b9061290a60405190565b9384926020840192836127e9565b50506103b76126c9565b600c91506129356117466128e1846126b6565b11156128ac576103b7906103b761294b60405190565b80926128a0602083019182612766565b369037565b906103a1612976612970846108c6565b936108a9565b601f19016020840161295b565b61298c81612a14565b9061299c6001926104d7846115f9565b91806129a784612960565b936020018401905b6129ba575b50505090565b6129f4905f1901927f3031323334353637383961626364656600000000000000000000000000000000600a82061a84536117ec600a6115f9565b9081612a026117465f6115f9565b14612a0f579091816129af565b6129b4565b612a1d5f6115f9565b907a184f03e93ff9f4daa797ed6e38ed64bf6a1f010000000000000000612a43816115f9565b821015612b95575b506d04ee2d6d415b85acef8100000000612a64816115f9565b821015612b73575b50662386f26fc10000612a7e816115f9565b821015612b51575b506305f5e100612a95816115f9565b821015612b2f575b50612710612aaa816115f9565b821015612b0d575b506064612abe816115f9565b821015612aeb575b50612ad4611746600a6115f9565b1015612add5790565b6103b7906104d760016115f9565b612b06916117ec612afb926115f9565b916104d760026115f9565b905f612ac6565b612b28916117ec612b1d926115f9565b916104d760046115f9565b905f612ab2565b612b4a916117ec612b3f926115f9565b916104d760086115f9565b905f612a9d565b612b6c916117ec612b61926115f9565b916104d760106115f9565b905f612a86565b612b8e916117ec612b83926115f9565b916104d760206115f9565b905f612a6c565b612bb0916117ec612ba5926115f9565b916104d760406115f9565b905f612a4b565b90612bc56103f0600b61135d565b73ffffffffffffffffffffffffffffffffffffffff821614612bea576103b7916133a7565b5050600190565b6103ba9073ffffffffffffffffffffffffffffffffffffffff1660601b90565b6104d781601493612bf1565b67ffffffffffffffff81116108905760208091020190565b90929192612c456108d382612c1d565b938185526020808601920283019281841161039057915b838310612c695750505050565b60208091612c778486610519565b815201920191612c5c565b6103b7913691612c35565b90612cf56103b79392612c9d5f90565b50612cba612caa60405190565b80926128a0602083019182612c11565b612ccc612cc5825190565b9160200190565b20927f000000000000000000000000000000000000000000000000000000000000000092612c82565b6116f7611900929361174692612d085f90565b50612d68565b5f19811461170e5760010190565b7f4e487b71000000000000000000000000000000000000000000000000000000005f52603260045260245ffd5b90612d52825190565b811015612d63576020809102010190565b612d1c565b612d715f6115f9565b915b612d7e6103b7835190565b831015612db057612da4612daa91612d9e612d998686612d49565b612857565b90612db6565b92612d0e565b91612d73565b91505090565b81811015612dcf57906103b7915f5260205260405f2090565b6103b7915f5260205260405f2090565b611ce96103b76103b79267ffffffffffffffff1690565b612e0a6103b791612e045f90565b50612fae565b612ddf565b61257790612e206125c86103b79490565b901c90565b612e0a612e366103b792612e045f90565b612e4060206115f9565b90612e0f565b9190820391821161170e57565b6103b790612e75611eed612e7b612e6984612f7d565b612e75611eed86612df6565b90612e46565b92612e25565b6103b7600a611921565b612e943061157a565b3190565b6103b79081565b6103b79054612e98565b6103b7612ec7612eb85f612e9f565b612ec26001612e9f565b900390565b612ec25b6103b760016115f9565b906116109061157a565b6103b767ffffffffffffffff6115f9565b612efc6103f05f61138e565b73ffffffffffffffffffffffffffffffffffffffff821614612f3757612f26612f2b916005612ed5565b612e9f565b612f33612edf565b1690565b6040517f8f4eb604000000000000000000000000000000000000000000000000000000008152600490fd5b6103b760406115f9565b6103b790612e206117466103b79490565b612f96612f26612f2b92612f8e5f90565b506005612ed5565b612f9e612f62565b90612f6c565b6103b760c06115f9565b61260e612fc2612f266103b793612f8e5f90565b612f9e612fa4565b6103b777ffffffffffffffffffffffffffffffffffffffffffffffff6115f9565b905f1990611544565b906130046103b761159a926115f9565b8254612feb565b906130456103a19260059261303e613026612f268487612ed5565b61302e612fca565b1691613038612fa4565b90612596565b1792612ed5565b612ff4565b61305d6130576103b79290565b60e01b90565b7fffffffff000000000000000000000000000000000000000000000000000000001690565b61308f6301ffc9a761304a565b7fffffffff000000000000000000000000000000000000000000000000000000008216149081156130d7575b81156130c5575090565b90506119006118da635b5e139f61304a565b90506130e66380ac58cd61304a565b7fffffffff00000000000000000000000000000000000000000000000000000000821614906130bb565b6103b7906111a4565b6103b76002613110565b6103b76003613110565b6131496131446103b79261313e5f90565b50613174565b611381565b611571565b6103b77c01000000000000000000000000000000000000000000000000000000006115f9565b90819061317f612ecb565b8310156131b2575b6040517fdf2d9b42000000000000000000000000000000000000000000000000000000008152600490fd5b6131be6103b75f612e9f565b831015613187576131d4612f2660049485611606565b806131dd61314e565b165f906131ec611746836115f9565b146131f8575050613187565b92905b613204846115f9565b810361322957505f19019161320461321f612f268587611606565b91939190506131fb565b925050915090565b9061323b8161312d565b913373ffffffffffffffffffffffffffffffffffffffff841681036132b7575b50613272815f61326c856006611606565b01611583565b6132a86128e16132a27f8c5be1e5ebec7d5bd14f71427d1e84f3dd0314c0f7b2291e5b200ac8c7c3b9259561157a565b9261157a565b926132b260405190565b5f90a4565b611db56132c49185612bb7565b6132ce575f61325b565b6040517fcfb3b942000000000000000000000000000000000000000000000000000000008152600490fd5b613305611db5826133c6565b61331e575f6133186103b7926006611606565b0161135d565b6040517fcf4700e4000000000000000000000000000000000000000000000000000000008152600490fd5b33613367836133628461335d856007612ed5565b612ed5565b611947565b6115f461339d6133977f17307eab39ab6107e8899845ad3d59bd9653f200f220920489ca2b5937696c319361157a565b9361157a565b936103dd60405190565b6103b79161335d6133c1926133b95f90565b506007612ed5565b611934565b6133ce612ecb565b8110159081613406575b816133e1575090565b6133f19150612f26906004611606565b6133f961314e565b166119006117465f6115f9565b90506134146103b75f612e9f565b8110906133d8565b6103b77c02000000000000000000000000000000000000000000000000000000006115f9565b919061344d82613174565b61345961314982611381565b61347873ffffffffffffffffffffffffffffffffffffffff8616611435565b0361367d57613486836136d5565b90919033613498611db58289856136a8565b61363b575b505f926134ac6103f08561138e565b73ffffffffffffffffffffffffffffffffffffffff861614613610578391613608575b50506135116134ff84600561335d6134e78a83612ed5565b6134f96134f382612e9f565b5f190190565b90612ff4565b6134f961350b82612e9f565b60010190565b61351961341c565b61354a613527838689613a96565b82178573ffffffffffffffffffffffffffffffffffffffff16904260a01b171790565b9061355b6004926130458885611606565b8216613569611746856115f9565b146135a2575b5050506132a86128e16132a27fddf252ad1be2c89b69c2b068fc378daa952ba7f163c4a11628f55a4df523b3ef9561157a565b6135b46135af60016115f9565b860190565b926135c2612f268584611606565b6135ce611746836115f9565b146135da575b5061356f565b6103b76135e691612e9f565b83036135f3575b806135d4565b6136009261304591611606565b5f80806135ed565b55815f6134cf565b6040517fea553b34000000000000000000000000000000000000000000000000000000008152600490fd5b611db56136489188612bb7565b613652575f61349d565b6040517f59c896be000000000000000000000000000000000000000000000000000000008152600490fd5b6040517fa1148100000000000000000000000000000000000000000000000000000000008152600490fd5b919073ffffffffffffffffffffffffffffffffffffffff80916136c85f90565b5016911691821491141790565b6103b76136eb916136e35f90565b506006611606565b90815490565b90916103a1926136ff6126c9565b925b91929092613710818585613442565b833b61371e6117465f6115f9565b0361372a575b50505050565b61373793611db5936137e2565b613744575f808080613724565b6040515b7fd1a57ed6000000000000000000000000000000000000000000000000000000008152600490fd5b905051906103a182610365565b90602082820312610390576103b791613770565b73ffffffffffffffffffffffffffffffffffffffff91821681529116602082015260408101919091526080606082018190526103b7929101906104a3565b61305d6130576103b79263ffffffff1690565b909392916020906137fb6137f65f9761157a565b61157a565b63150b7a02935f3361382b61380f60405190565b988996879586946138208c60e01b90565b865260048601613791565b03925af15f9281613884575b50613871575050600161384657565b61384e6124f1565b805161385c6117465f6115f9565b0361386957604051613748565b805190602001fd5b6119009192935061305d6118da916137cf565b6138a691935060203d81116138ad575b61389e818361086e565b81019061377d565b915f613837565b503d613894565b9190916138c05f612e9f565b925f906138cc826115f9565b8114613a3a578461398e849273ffffffffffffffffffffffffffffffffffffffff6001928392613931613919613900612f62565b61391361390c886115f9565b9182612596565b17830290565b6134f96139278a6005612ed5565b916104d783612e9f565b61398961397d6001831460e11b61395b61394a8c61138e565b6139538d6115f9565b9b8c91613a96565b178b73ffffffffffffffffffffffffffffffffffffffff16904260a01b171790565b61304560049d8e611606565b850190565b9616928084877fddf252ad1be2c89b69c2b068fc378daa952ba7f163c4a11628f55a4df523b3ef8180a4015b858103613a0b575050146139d3576103a1929350612ff4565b61141a846139e060405190565b7f2e076300000000000000000000000000000000000000000000000000000000008152918291820190565b80829184877fddf252ad1be2c89b69c2b068fc378daa952ba7f163c4a11628f55a4df523b3ef8180a4016139ba565b6040517fb562e8dd000000000000000000000000000000000000000000000000000000008152600490fd5b6103b760e86115f9565b613a7c6103b76103b79290565b62ffffff1690565b6103b76103b76103b79262ffffff1690565b613aca612609916103b79493613aa95f90565b50613ac4613abf613ab8613a65565b8097612f6c565b613a6f565b91613acf565b613a84565b5050506103b75f90565b6103b76080610895565b613aeb613ad9565b5f8082526020820181905260408201819052606082015290565b6103b7613ae3565b613b15613b05565b50613b1e613b05565b613b296103b7612ecb565b82108015613b65575b613b605750613b4081613b96565b90613b4e6040830151151590565b613b5c576103b79150613b82565b5090565b905090565b50613b716103b7613b79565b821015613b32565b6103b75f612e9f565b613b916103b79161313e613b05565b613bba565b613b91612f266103b792613ba8613b05565b506004611606565b6103b760a06115f9565b906103a1613bc6613b05565b6060613c4b613abf8396613bf9613bdf61314983611381565b73ffffffffffffffffffffffffffffffffffffffff168652565b613c21613c1061260e613c0a613bb0565b84612f6c565b67ffffffffffffffff166020870152565b613c43613c2c61314e565b8216613c3a6117465f6115f9565b14156040870152565b612f9e613a65565b62ffffff16910152565b906108d86108d383612c1d565b5f5b828110613c7057505050565b602090613c7b613b05565b8184015201613c64565b906103a1613c9b613c9584613c55565b93612c1d565b601f190160208401613c62565b9190811015612d63576020020190565b356103b781610513565b91908092613ccf84613c85565b925f5b855b8114613d1a57613d1381613cf7611032613cf2613cd4958989613ca8565b613cb8565b613d018289612d49565b52613d0c8188612d49565b5060010190565b9050613cd2565b509350505090565b906103a1612976613c9584613c55565b9082811015613f17575f91613d45613b79565b613d4d612ecb565b808410613f0f575b50808511613f07575b50613d6881612ef0565b84831015613ef857828503818110613ef0575b505b613d8681613d22565b955f91613d92836115f9565b8114613ee757613da185613b0d565b945f95613db4611db56040830151151590565b613ec4575b505b875b81141580613eba575b15613ead5783613dd582613b96565b6040810151613e9e5701805173ffffffffffffffffffffffffffffffffffffffff16613e066114356103f08861138e565b03613e7f575b508873ffffffffffffffffffffffffffffffffffffffff861673ffffffffffffffffffffffffffffffffffffffff881614613e52575b50613dbd906001015b9050613dbb565b9681613e76613dbd93613e7384613e6d613e4b969160010190565b9c612d49565b52565b91505088613e42565b5173ffffffffffffffffffffffffffffffffffffffff1695505f613e0c565b5050613e4b613dbd9160010190565b5050959450505050815290565b5081871415613dc6565b84015173ffffffffffffffffffffffffffffffffffffffff169550613dbd613db9565b50945050505050565b90505f613d7b565b50613f025f6115f9565b613d7d565b93505f613d5e565b92505f613d55565b6040517f32c1995a000000000000000000000000000000000000000000000000000000008152600490fd5b5f80613f4d83612ef0565b92613f5784613d22565b94613f60613b05565b50613f69612ecb565b855b851461404657613f7a81613b96565b604081015161403957805173ffffffffffffffffffffffffffffffffffffffff16905f91613fad6114356103f08561138e565b03614014575b5050613ffb613f6b91613fd98573ffffffffffffffffffffffffffffffffffffffff1690565b73ffffffffffffffffffffffffffffffffffffffff8716146140025760010190565b9050613f69565b61350b81613e7360018a01998c612d49565b015173ffffffffffffffffffffffffffffffffffffffff169350613ffb613f6b613fb3565b50613f6b90600101613ffb565b50935050505056fea2646970667358221220a0b8a61156ebd00d3d4fb6c03cd84ea8e435ec72b5b6173d211eaaebe55d09d764736f6c63430008140033",
  "devdoc": {
    "events": {
      "Approval(address,address,uint256)": {
        "details": "Emitted when `owner` enables `approved` to manage the `tokenId` token."
      },
      "ApprovalForAll(address,address,bool)": {
        "details": "Emitted when `owner` enables or disables (`approved`) `operator` to manage all of its assets."
      },
      "ConsecutiveTransfer(uint256,uint256,address,address)": {
        "details": "Emitted when tokens in `fromTokenId` to `toTokenId` (inclusive) is transferred from `from` to `to`, as defined in the [ERC2309](https://eips.ethereum.org/EIPS/eip-2309) standard. See {_mintERC2309} for more details."
      },
      "Transfer(address,address,uint256)": {
        "details": "Emitted when `tokenId` token is transferred from `from` to `to`."
      }
    },
    "kind": "dev",
    "methods": {
      "airdropMint(address,uint256)": {
        "details": "caller is owner but minter is '_to''_setAirdropMintCounter' increases number of minted tokens of owner in airdrop mint as auxiliary data",
        "params": {
          "_amount": "token amount of airdrop",
          "_to": "airdrop recipient"
        }
      },
      "approve(address,uint256)": {
        "details": "Gives permission to `to` to transfer `tokenId` token to another account. The approval is cleared when the token is transferred. Only a single account can be approved at a time, so approving the zero address clears previous approvals. Requirements: - The caller must own the token or be an approved operator. - `tokenId` must exist. Emits an {Approval} event."
      },
      "balanceOf(address)": {
        "details": "Returns the number of tokens in `owner`'s account."
      },
      "changeState(uint256)": {
        "details": "airdrop phase must be finished to change the state",
        "params": {
          "_index": "index of state (0: closed, 1: whitelist, 2: public)"
        }
      },
      "explicitOwnershipOf(uint256)": {
        "details": "Returns the `TokenOwnership` struct at `tokenId` without reverting. If the `tokenId` is out of bounds: - `addr = address(0)` - `startTimestamp = 0` - `burned = false` - `extraData = 0` If the `tokenId` is burned: - `addr = <Address of owner before token was burned>` - `startTimestamp = <Timestamp when token was burned>` - `burned = true` - `extraData = <Extra data when token was burned>` Otherwise: - `addr = <Address of owner>` - `startTimestamp = <Timestamp of start of ownership>` - `burned = false` - `extraData = <Extra data at start of ownership>`"
      },
      "explicitOwnershipsOf(uint256[])": {
        "details": "Returns an array of `TokenOwnership` structs at `tokenIds` in order. See {ERC721AQueryable-explicitOwnershipOf}"
      },
      "externalPublicSaleMint(address,uint256)": {
        "params": {
          "_amount": "token amount to mint"
        }
      },
      "externalWhitelistSaleMint(address,uint256)": {
        "details": "'_setWhitelistMintCounter' increases number of minted tokens of owner in whitelist sale as auxiliary data",
        "params": {
          "_amount": "token amount to mint"
        }
      },
      "getAirdropMintCounter(address)": {
        "details": "returns [0..31] bits of '_auxData' ([192..223] bits of '_packedAddressData')",
        "params": {
          "_account": "querying address"
        }
      },
      "getApproved(uint256)": {
        "details": "Returns the account approved for `tokenId` token. Requirements: - `tokenId` must exist."
      },
      "getPublicMintCounter(address)": {
        "details": "(total minted) - (minted in whitelist sale) - (minted in airdrop)"
      },
      "getWhitelistMintCounter(address)": {
        "details": "returns [32..63] bits of '_auxData' ([224..255] bits of '_packedAddressData')",
        "params": {
          "_account": "querying address"
        }
      },
      "isApprovedForAll(address,address)": {
        "details": "inherits from ERC721A and bypass approval requests from rarible",
        "returns": {
          "_0": "true if the operator is rarible"
        }
      },
      "name()": {
        "details": "Returns the token collection name."
      },
      "owner()": {
        "details": "Returns the address of the current owner."
      },
      "ownerOf(uint256)": {
        "details": "Returns the owner of the `tokenId` token. Requirements: - `tokenId` must exist."
      },
      "publicSaleMint(uint256)": {
        "params": {
          "_amount": "token amount to mint"
        }
      },
      "renounceOwnership()": {
        "details": "Leaves the contract without owner. It will not be possible to call `onlyOwner` functions. Can only be called by the current owner. NOTE: Renouncing ownership will leave the contract without an owner, thereby disabling any functionality that is only available to the owner."
      },
      "reveal(string)": {
        "params": {
          "_newBaseUri": "actual URI"
        }
      },
      "royaltyInfo(uint256,uint256)": {
        "details": "Returns how much royalty is owed and to whom, based on a sale price that may be denominated in any unit of exchange. The royalty amount is denominated and should be paid in that same unit of exchange."
      },
      "safeTransferFrom(address,address,uint256)": {
        "details": "Equivalent to `safeTransferFrom(from, to, tokenId, '')`."
      },
      "safeTransferFrom(address,address,uint256,bytes)": {
        "details": "Safely transfers `tokenId` token from `from` to `to`. Requirements: - `from` cannot be the zero address. - `to` cannot be the zero address. - `tokenId` token must exist and be owned by `from`. - If the caller is not `from`, it must be approved to move this token by either {approve} or {setApprovalForAll}. - If `to` refers to a smart contract, it must implement {IERC721Receiver-onERC721Received}, which is called upon a safe transfer. Emits a {Transfer} event."
      },
      "setApprovalForAll(address,bool)": {
        "details": "Approve or remove `operator` as an operator for the caller. Operators can call {transferFrom} or {safeTransferFrom} for any token owned by the caller. Requirements: - The `operator` cannot be the caller. Emits an {ApprovalForAll} event."
      },
      "symbol()": {
        "details": "Returns the token collection symbol."
      },
      "tokenURI(uint256)": {
        "params": {
          "_tokenId": "querying token id"
        },
        "returns": {
          "_0": "token URI"
        }
      },
      "tokensOfOwner(address)": {
        "details": "Returns an array of token IDs owned by `owner`. This function scans the ownership mapping and is O(`totalSupply`) in complexity. It is meant to be called off-chain. See {ERC721AQueryable-tokensOfOwnerIn} for splitting the scan into multiple smaller scans if the collection is large enough to cause an out-of-gas error (10K collections should be fine)."
      },
      "tokensOfOwnerIn(address,uint256,uint256)": {
        "details": "Returns an array of token IDs owned by `owner`, in the range [`start`, `stop`) (i.e. `start <= tokenId < stop`). This function allows for tokens to be queried if the collection grows too big for a single call of {ERC721AQueryable-tokensOfOwner}. Requirements: - `start < stop`"
      },
      "totalSupply()": {
        "details": "Returns the total number of tokens in existence. Burned tokens will reduce the count. To get the total number of tokens minted, please see {_totalMinted}."
      },
      "transferFrom(address,address,uint256)": {
        "details": "Transfers `tokenId` from `from` to `to`. Requirements: - `from` cannot be the zero address. - `to` cannot be the zero address. - `tokenId` token must be owned by `from`. - If the caller is not `from`, it must be approved to move this token by either {approve} or {setApprovalForAll}. Emits a {Transfer} event."
      },
      "transferOwnership(address)": {
        "details": "Transfers ownership of the contract to a new account (`newOwner`). Can only be called by the current owner."
      },
      "whitelistSaleMint(uint256,bytes32[])": {
        "details": "'_setWhitelistMintCounter' increases number of minted tokens of owner in whitelist sale as auxiliary data",
        "params": {
          "_amount": "token amount to mint"
        }
      },
      "withdrawAll()": {
        "details": "calls _withdraw function to withdraw assets"
      }
    },
    "version": 1
  },
  "userdoc": {
    "errors": {
      "ApprovalCallerNotOwnerNorApproved()": [
        {
          "notice": "The caller must own the token or be an approved operator."
        }
      ],
      "ApprovalQueryForNonexistentToken()": [
        {
          "notice": "The token does not exist."
        }
      ],
      "BalanceQueryForZeroAddress()": [
        {
          "notice": "Cannot query the balance for the zero address."
        }
      ],
      "InvalidQueryRange()": [
        {
          "notice": "Invalid query range (`start` >= `stop`)."
        }
      ],
      "MintERC2309QuantityExceedsLimit()": [
        {
          "notice": "The `quantity` minted with ERC2309 exceeds the safety limit."
        }
      ],
      "MintToZeroAddress()": [
        {
          "notice": "Cannot mint to the zero address."
        }
      ],
      "MintZeroQuantity()": [
        {
          "notice": "The quantity of tokens minted must be more than zero."
        }
      ],
      "OwnerQueryForNonexistentToken()": [
        {
          "notice": "The token does not exist."
        }
      ],
      "OwnershipNotInitializedForExtraData()": [
        {
          "notice": "The `extraData` cannot be set on an unintialized ownership slot."
        }
      ],
      "TransferCallerNotOwnerNorApproved()": [
        {
          "notice": "The caller must own the token or be an approved operator."
        }
      ],
      "TransferFromIncorrectOwner()": [
        {
          "notice": "The token must be owned by `from`."
        }
      ],
      "TransferToNonERC721ReceiverImplementer()": [
        {
          "notice": "Cannot safely transfer to a contract that does not implement the ERC721Receiver interface."
        }
      ],
      "TransferToZeroAddress()": [
        {
          "notice": "Cannot transfer to the zero address."
        }
      ],
      "URIQueryForNonexistentToken()": [
        {
          "notice": "The token does not exist."
        }
      ]
    },
    "kind": "user",
    "methods": {
      "airdropMint(address,uint256)": {
        "notice": "owner can mint the tokens for airdrop before sale phases"
      },
      "changeState(uint256)": {
        "notice": "owner can changes the sale state"
      },
      "constructor": {
        "notice": "state variables are defined and royalty is set in constructor"
      },
      "contractBalance()": {
        "notice": "returns contract balance"
      },
      "currentState()": {
        "notice": "returns current state of sale"
      },
      "externalPublicSaleMint(address,uint256)": {
        "notice": "any EOA address can mint tokens for a certain ETH within a certain limit during public sale"
      },
      "externalWhitelistSaleMint(address,uint256)": {
        "notice": "whitelisted addressses can mint tokens for a certain ETH within a certain limit during whitelist sale"
      },
      "getAirdropMintCounter(address)": {
        "notice": "returns total airdrop amount of an address"
      },
      "getPublicMintCounter(address)": {
        "notice": "returns mint amounts during public sale of addresses"
      },
      "getWhitelistMintCounter(address)": {
        "notice": "returns total airdrop amount of an address"
      },
      "isWhitelisted(address,bytes32[])": {
        "notice": "returns if an address whitelisted or not by verifying merkle proof"
      },
      "publicSaleMint(uint256)": {
        "notice": "any EOA address can mint tokens for a certain ETH within a certain limit during public sale"
      },
      "reveal(string)": {
        "notice": "owner should reveal the metadata after sale phase only for once"
      },
      "whitelistSaleMint(uint256,bytes32[])": {
        "notice": "whitelisted addressses can mint tokens for a certain ETH within a certain limit during whitelist sale"
      },
      "withdrawAll()": {
        "notice": "owner can withdraw the all balance to associated accounts at any time"
      }
    },
    "version": 1
  },
  "storageLayout": {
    "storage": [
      {
        "astId": 3592,
        "contract": "contracts/IlkelBenlik.sol:IlkelBenlik",
        "label": "_currentIndex",
        "offset": 0,
        "slot": "0",
        "type": "t_uint256"
      },
      {
        "astId": 3594,
        "contract": "contracts/IlkelBenlik.sol:IlkelBenlik",
        "label": "_burnCounter",
        "offset": 0,
        "slot": "1",
        "type": "t_uint256"
      },
      {
        "astId": 3596,
        "contract": "contracts/IlkelBenlik.sol:IlkelBenlik",
        "label": "_name",
        "offset": 0,
        "slot": "2",
        "type": "t_string_storage"
      },
      {
        "astId": 3598,
        "contract": "contracts/IlkelBenlik.sol:IlkelBenlik",
        "label": "_symbol",
        "offset": 0,
        "slot": "3",
        "type": "t_string_storage"
      },
      {
        "astId": 3602,
        "contract": "contracts/IlkelBenlik.sol:IlkelBenlik",
        "label": "_packedOwnerships",
        "offset": 0,
        "slot": "4",
        "type": "t_mapping(t_uint256,t_uint256)"
      },
      {
        "astId": 3606,
        "contract": "contracts/IlkelBenlik.sol:IlkelBenlik",
        "label": "_packedAddressData",
        "offset": 0,
        "slot": "5",
        "type": "t_mapping(t_address,t_uint256)"
      },
      {
        "astId": 3611,
        "contract": "contracts/IlkelBenlik.sol:IlkelBenlik",
        "label": "_tokenApprovals",
        "offset": 0,
        "slot": "6",
        "type": "t_mapping(t_uint256,t_struct(TokenApprovalRef)3524_storage)"
      },
      {
        "astId": 3617,
        "contract": "contracts/IlkelBenlik.sol:IlkelBenlik",
        "label": "_operatorApprovals",
        "offset": 0,
        "slot": "7",
        "type": "t_mapping(t_address,t_mapping(t_address,t_bool))"
      },
      {
        "astId": 264,
        "contract": "contracts/IlkelBenlik.sol:IlkelBenlik",
        "label": "_defaultRoyaltyInfo",
        "offset": 0,
        "slot": "8",
        "type": "t_struct(RoyaltyInfo)261_storage"
      },
      {
        "astId": 269,
        "contract": "contracts/IlkelBenlik.sol:IlkelBenlik",
        "label": "_tokenRoyaltyInfo",
        "offset": 0,
        "slot": "9",
        "type": "t_mapping(t_uint256,t_struct(RoyaltyInfo)261_storage)"
      },
      {
        "astId": 7,
        "contract": "contracts/IlkelBenlik.sol:IlkelBenlik",
        "label": "_owner",
        "offset": 0,
        "slot": "10",
        "type": "t_address"
      },
      {
        "astId": 2301,
        "contract": "contracts/IlkelBenlik.sol:IlkelBenlik",
        "label": "state",
        "offset": 20,
        "slot": "10",
        "type": "t_enum(STATE)2296"
      },
      {
        "astId": 2303,
        "contract": "contracts/IlkelBenlik.sol:IlkelBenlik",
        "label": "raribleTransferProxy",
        "offset": 0,
        "slot": "11",
        "type": "t_address"
      },
      {
        "astId": 2306,
        "contract": "contracts/IlkelBenlik.sol:IlkelBenlik",
        "label": "BASE_URI",
        "offset": 0,
        "slot": "12",
        "type": "t_string_storage"
      },
      {
        "astId": 2312,
        "contract": "contracts/IlkelBenlik.sol:IlkelBenlik",
        "label": "isRevealed",
        "offset": 0,
        "slot": "13",
        "type": "t_bool"
      }
    ],
    "types": {
      "t_address": {
        "encoding": "inplace",
        "label": "address",
        "numberOfBytes": "20"
      },
      "t_bool": {
        "encoding": "inplace",
        "label": "bool",
        "numberOfBytes": "1"
      },
      "t_enum(STATE)2296": {
        "encoding": "inplace",
        "label": "enum IlkelBenlik.STATE",
        "numberOfBytes": "1"
      },
      "t_mapping(t_address,t_bool)": {
        "encoding": "mapping",
        "key": "t_address",
        "label": "mapping(address => bool)",
        "numberOfBytes": "32",
        "value": "t_bool"
      },
      "t_mapping(t_address,t_mapping(t_address,t_bool))": {
        "encoding": "mapping",
        "key": "t_address",
        "label": "mapping(address => mapping(address => bool))",
        "numberOfBytes": "32",
        "value": "t_mapping(t_address,t_bool)"
      },
      "t_mapping(t_address,t_uint256)": {
        "encoding": "mapping",
        "key": "t_address",
        "label": "mapping(address => uint256)",
        "numberOfBytes": "32",
        "value": "t_uint256"
      },
      "t_mapping(t_uint256,t_struct(RoyaltyInfo)261_storage)": {
        "encoding": "mapping",
        "key": "t_uint256",
        "label": "mapping(uint256 => struct ERC2981.RoyaltyInfo)",
        "numberOfBytes": "32",
        "value": "t_struct(RoyaltyInfo)261_storage"
      },
      "t_mapping(t_uint256,t_struct(TokenApprovalRef)3524_storage)": {
        "encoding": "mapping",
        "key": "t_uint256",
        "label": "mapping(uint256 => struct ERC721A.TokenApprovalRef)",
        "numberOfBytes": "32",
        "value": "t_struct(TokenApprovalRef)3524_storage"
      },
      "t_mapping(t_uint256,t_uint256)": {
        "encoding": "mapping",
        "key": "t_uint256",
        "label": "mapping(uint256 => uint256)",
        "numberOfBytes": "32",
        "value": "t_uint256"
      },
      "t_string_storage": {
        "encoding": "bytes",
        "label": "string",
        "numberOfBytes": "32"
      },
      "t_struct(RoyaltyInfo)261_storage": {
        "encoding": "inplace",
        "label": "struct ERC2981.RoyaltyInfo",
        "members": [
          {
            "astId": 258,
            "contract": "contracts/IlkelBenlik.sol:IlkelBenlik",
            "label": "receiver",
            "offset": 0,
            "slot": "0",
            "type": "t_address"
          },
          {
            "astId": 260,
            "contract": "contracts/IlkelBenlik.sol:IlkelBenlik",
            "label": "royaltyFraction",
            "offset": 20,
            "slot": "0",
            "type": "t_uint96"
          }
        ],
        "numberOfBytes": "32"
      },
      "t_struct(TokenApprovalRef)3524_storage": {
        "encoding": "inplace",
        "label": "struct ERC721A.TokenApprovalRef",
        "members": [
          {
            "astId": 3523,
            "contract": "contracts/IlkelBenlik.sol:IlkelBenlik",
            "label": "value",
            "offset": 0,
            "slot": "0",
            "type": "t_address"
          }
        ],
        "numberOfBytes": "32"
      },
      "t_uint256": {
        "encoding": "inplace",
        "label": "uint256",
        "numberOfBytes": "32"
      },
      "t_uint96": {
        "encoding": "inplace",
        "label": "uint96",
        "numberOfBytes": "12"
      }
    }
  }
}