{
  "address": "0x9fE46736679d2D9a65F0992F2272dE9f3c7fa6e0",
  "abi": [
    {
      "inputs": [
        {
          "internalType": "address",
          "name": "_mintingContract",
          "type": "address"
        }
      ],
      "stateMutability": "nonpayable",
      "type": "constructor"
    },
    {
      "anonymous": false,
      "inputs": [
        {
          "indexed": true,
          "internalType": "address",
          "name": "previousOwner",
          "type": "address"
        },
        {
          "indexed": true,
          "internalType": "address",
          "name": "newOwner",
          "type": "address"
        }
      ],
      "name": "OwnershipTransferred",
      "type": "event"
    },
    {
      "inputs": [
        {
          "internalType": "address",
          "name": "_tokenAddress",
          "type": "address"
        },
        {
          "internalType": "uint256",
          "name": "_tokenId",
          "type": "uint256"
        }
      ],
      "name": "listToken",
      "outputs": [],
      "stateMutability": "nonpayable",
      "type": "function"
    },
    {
      "inputs": [
        {
          "internalType": "uint256",
          "name": "_amount",
          "type": "uint256"
        }
      ],
      "name": "mintToken",
      "outputs": [],
      "stateMutability": "payable",
      "type": "function"
    },
    {
      "inputs": [],
      "name": "mintingContract",
      "outputs": [
        {
          "internalType": "address",
          "name": "",
          "type": "address"
        }
      ],
      "stateMutability": "view",
      "type": "function"
    },
    {
      "inputs": [],
      "name": "owner",
      "outputs": [
        {
          "internalType": "address",
          "name": "",
          "type": "address"
        }
      ],
      "stateMutability": "view",
      "type": "function"
    },
    {
      "inputs": [
        {
          "internalType": "address",
          "name": "_tokenAddress",
          "type": "address"
        },
        {
          "internalType": "uint256",
          "name": "_tokenId",
          "type": "uint256"
        }
      ],
      "name": "receiveBack",
      "outputs": [],
      "stateMutability": "nonpayable",
      "type": "function"
    },
    {
      "inputs": [],
      "name": "renounceOwnership",
      "outputs": [],
      "stateMutability": "nonpayable",
      "type": "function"
    },
    {
      "inputs": [],
      "name": "tokenInterface",
      "outputs": [
        {
          "internalType": "contract IERC721",
          "name": "",
          "type": "address"
        }
      ],
      "stateMutability": "view",
      "type": "function"
    },
    {
      "inputs": [
        {
          "internalType": "address",
          "name": "newOwner",
          "type": "address"
        }
      ],
      "name": "transferOwnership",
      "outputs": [],
      "stateMutability": "nonpayable",
      "type": "function"
    }
  ],
  "transactionHash": "0xbe954e94c6256e7df6ff7208584fae3269632736596bef96d68e59539f5a3754",
  "args": [
    "0xe7f1725E7734CE288F8367e1Bb143E90bb3F0512"
  ],
  "numDeployments": 1,
  "solcInputHash": "411af97c853dfc9cd3a716f22267ebd9",
  "bytecode": "0x60a06040523462000040576200001e62000018620000e0565b62000103565b6040516108f1620001ea82396080518181816101f801526106f401526108f190f35b5f80fd5b634e487b7160e01b5f52604160045260245ffd5b90601f01601f191681019081106001600160401b038211176200007a57604052565b62000044565b90620000976200008f60405190565b928362000058565b565b6001600160a01b031690565b90565b6001600160a01b038116036200004057565b905051906200009782620000a8565b906020828203126200004057620000a591620000ba565b620000a562000adb80380380620000f78162000080565b928339810190620000c9565b6200010d62000112565b608052565b62000097336200018a565b546001600160a01b031690565b620000a59062000099906001600160a01b031682565b620000a5906200012a565b620000a59062000140565b906200016a620000a562000186926200014b565b82546001600160a01b0319166001600160a01b03919091161790565b9055565b620001955f6200011d565b90620001a2815f62000156565b620001d9620001d27f8be0079c531659141344cd1fd0a4f28419497f9722a3daafe3b4186f6b6457e0936200014b565b916200014b565b91620001e460405190565b5f90a356fe60806040526004361015610011575f80fd5b5f3560e01c80630717d7c314610090578063715018a61461008b578063729a0bd5146100865780638da5cb5b14610081578063c634d0321461007c578063d2f6f67d14610077578063f2fde38b146100725763f343d683036100d0576102cd565b610230565b6101e3565b6101d0565b61017a565b61015d565b610145565b610119565b73ffffffffffffffffffffffffffffffffffffffff1690565b90565b73ffffffffffffffffffffffffffffffffffffffff81165b036100d057565b5f80fd5b905035906100e1826100b1565b565b806100c9565b905035906100e1826100e3565b91906040838203126100d0576100ae9061011081856100d4565b936020016100e9565b346100d05761013261012c3660046100f6565b906107e3565b604051005b0390f35b5f9103126100d057565b346100d05761015536600461013b565b610132610347565b346100d0576101326101703660046100f6565b90610875565b9052565b346100d05761018a36600461013b565b610137610195610307565b6040519182918273ffffffffffffffffffffffffffffffffffffffff909116815260200190565b906020828203126100d0576100ae916100e9565b6101326101de3660046101bc565b610788565b346100d0576101f336600461013b565b6101377f0000000000000000000000000000000000000000000000000000000000000000610195565b906020828203126100d0576100ae916100d4565b346100d05761013261024336600461021c565b6104c2565b6100ae916008021c73ffffffffffffffffffffffffffffffffffffffff1690565b906100ae9154610248565b6100ae5f6001610269565b6100956100ae6100ae9273ffffffffffffffffffffffffffffffffffffffff1690565b6100ae9061027f565b6100ae906102a2565b610176906102ab565b6020810192916100e191906102b4565b346100d0576102dd36600461013b565b6101376102e8610274565b604051918291826102bd565b6100ae90610095565b6100ae90546102f4565b6100ae5f6102fd565b6103186103bd565b6100e1610336565b6100956100ae6100ae9290565b6100ae90610320565b6100e16103425f61032d565b610520565b6100e1610310565b1561035657565b6040517f08c379a0000000000000000000000000000000000000000000000000000000008152806103b9600482016020808252818101527f4f776e61626c653a2063616c6c6572206973206e6f7420746865206f776e6572604082015260600190565b0390fd5b6100e16103c8610307565b6103ee6103d433610095565b9173ffffffffffffffffffffffffffffffffffffffff1690565b1461034f565b6100e1906104006103bd565b610491565b1561040c57565b6040517f08c379a000000000000000000000000000000000000000000000000000000000815260206004820152602660248201527f4f776e61626c653a206e6577206f776e657220697320746865207a65726f206160448201527f64647265737300000000000000000000000000000000000000000000000000006064820152608490fd5b6100e1906103426104a46100955f61032d565b73ffffffffffffffffffffffffffffffffffffffff83161415610405565b6100e1906103f4565b906104db6100ae61051c926102ab565b82547fffffffffffffffffffffffff00000000000000000000000000000000000000001673ffffffffffffffffffffffffffffffffffffffff919091161790565b9055565b6105295f6102fd565b90610534815f6104cb565b6105676105617f8be0079c531659141344cd1fd0a4f28419497f9722a3daafe3b4186f6b6457e0936102ab565b916102ab565b9161057160405190565b5f90a3565b6100e1906105826103bd565b6106e3565b7f4e487b71000000000000000000000000000000000000000000000000000000005f52604160045260245ffd5b90601f017fffffffffffffffffffffffffffffffffffffffffffffffffffffffffffffffe016810190811067ffffffffffffffff8211176105f457604052565b610587565b906100e161060660405190565b92836105b4565b67ffffffffffffffff81116105f457602090601f017fffffffffffffffffffffffffffffffffffffffffffffffffffffffffffffffe0160190565b9061065a6106558361060d565b6105f9565b918252565b3d156106785761066e3d610648565b903d5f602084013e565b606090565b1561068457565b6040517f08c379a000000000000000000000000000000000000000000000000000000000815260206004820152601660248201527f4c6f772d6c6576656c2063616c6c206661696c656421000000000000000000006044820152606490fd5b5f806100e19261076261071d6107187f00000000000000000000000000000000000000000000000000000000000000006102ab565b6102ab565b91610771349161072c60405190565b9384916004602084017fb3ab66b00000000000000000000000000000000000000000000000000000000081520190815260200190565b602082018103825203836105b4565b602082019151925af161078261065f565b5061067d565b6100e190610576565b73ffffffffffffffffffffffffffffffffffffffff9182168152911660208201526100ae916080820191906107c7906040830152565b60608183039101525f815260200190565b6040513d5f823e3d90fd5b6107ef6107f6916102ab565b60016104cb565b61080361071860016102fd565b9063b88d4fde913390610815306102ab565b93813b156100d0575f61083d91610848829661083060405190565b9889978896879560e01b90565b855260048501610791565b03925af18015610870576108595750565b6100e1905f61086881836105b4565b81019061013b565b6107d8565b6107ef610881916102ab565b61088e61071860016102fd565b9063b88d4fde9161089e306102ab565b903393813b156100d0575f61083d9161084882966108306040519056fea26469706673582212205bbef0234fc6f5b3a9f5e27caef2a770aae3e02a28b503b1adcb93dff3cc1ab564736f6c63430008140033",
  "devdoc": {
    "kind": "dev",
    "methods": {
      "owner()": {
        "details": "Returns the address of the current owner."
      },
      "renounceOwnership()": {
        "details": "Leaves the contract without owner. It will not be possible to call `onlyOwner` functions. Can only be called by the current owner. NOTE: Renouncing ownership will leave the contract without an owner, thereby disabling any functionality that is only available to the owner."
      },
      "transferOwnership(address)": {
        "details": "Transfers ownership of the contract to a new account (`newOwner`). Can only be called by the current owner."
      }
    },
    "version": 1
  },
  "userdoc": {
    "kind": "user",
    "methods": {},
    "version": 1
  },
  "storageLayout": {
    "storage": [
      {
        "astId": 7,
        "contract": "contracts/MinterContract.sol:MinterContract",
        "label": "_owner",
        "offset": 0,
        "slot": "0",
        "type": "t_address"
      },
      {
        "astId": 3326,
        "contract": "contracts/MinterContract.sol:MinterContract",
        "label": "tokenInterface",
        "offset": 0,
        "slot": "1",
        "type": "t_contract(IERC721)247"
      }
    ],
    "types": {
      "t_address": {
        "encoding": "inplace",
        "label": "address",
        "numberOfBytes": "20"
      },
      "t_contract(IERC721)247": {
        "encoding": "inplace",
        "label": "contract IERC721",
        "numberOfBytes": "20"
      }
    }
  }
}