{
  "address": "0x9fE46736679d2D9a65F0992F2272dE9f3c7fa6e0",
  "abi": [
    {
      "inputs": [
        {
          "internalType": "address",
          "name": "_mintingContract",
          "type": "address"
        }
      ],
      "stateMutability": "nonpayable",
      "type": "constructor"
    },
    {
      "anonymous": false,
      "inputs": [
        {
          "indexed": true,
          "internalType": "address",
          "name": "previousOwner",
          "type": "address"
        },
        {
          "indexed": true,
          "internalType": "address",
          "name": "newOwner",
          "type": "address"
        }
      ],
      "name": "OwnershipTransferred",
      "type": "event"
    },
    {
      "inputs": [
        {
          "internalType": "address",
          "name": "_tokenAddress",
          "type": "address"
        },
        {
          "internalType": "uint256",
          "name": "_tokenId",
          "type": "uint256"
        }
      ],
      "name": "listToken",
      "outputs": [],
      "stateMutability": "nonpayable",
      "type": "function"
    },
    {
      "inputs": [
        {
          "internalType": "uint256",
          "name": "_amount",
          "type": "uint256"
        }
      ],
      "name": "mintToken",
      "outputs": [],
      "stateMutability": "payable",
      "type": "function"
    },
    {
      "inputs": [],
      "name": "mintingContract",
      "outputs": [
        {
          "internalType": "address",
          "name": "",
          "type": "address"
        }
      ],
      "stateMutability": "view",
      "type": "function"
    },
    {
      "inputs": [],
      "name": "owner",
      "outputs": [
        {
          "internalType": "address",
          "name": "",
          "type": "address"
        }
      ],
      "stateMutability": "view",
      "type": "function"
    },
    {
      "inputs": [
        {
          "internalType": "address",
          "name": "_tokenAddress",
          "type": "address"
        },
        {
          "internalType": "uint256",
          "name": "_tokenId",
          "type": "uint256"
        }
      ],
      "name": "receiveBack",
      "outputs": [],
      "stateMutability": "nonpayable",
      "type": "function"
    },
    {
      "inputs": [],
      "name": "renounceOwnership",
      "outputs": [],
      "stateMutability": "nonpayable",
      "type": "function"
    },
    {
      "inputs": [],
      "name": "tokenInterface",
      "outputs": [
        {
          "internalType": "contract IERC721",
          "name": "",
          "type": "address"
        }
      ],
      "stateMutability": "view",
      "type": "function"
    },
    {
      "inputs": [
        {
          "internalType": "address",
          "name": "newOwner",
          "type": "address"
        }
      ],
      "name": "transferOwnership",
      "outputs": [],
      "stateMutability": "nonpayable",
      "type": "function"
    }
  ],
  "transactionHash": "0x3278d3a777252cb02002c5835756862918d4cf88406a7302aa97aa606218f6ea",
  "args": [
    "0xe7f1725E7734CE288F8367e1Bb143E90bb3F0512"
  ],
  "numDeployments": 1,
  "solcInputHash": "1b9e02e1da0b3ec0907525736574e367",
  "bytecode": "0x60a060405234801561000f575f80fd5b5060405161081d38038061081d83398101604081905261002e91610097565b61003733610048565b6001600160a01b03166080526100c4565b5f80546001600160a01b038381166001600160a01b0319831681178455604051919092169283917f8be0079c531659141344cd1fd0a4f28419497f9722a3daafe3b4186f6b6457e09190a35050565b5f602082840312156100a7575f80fd5b81516001600160a01b03811681146100bd575f80fd5b9392505050565b60805161073a6100e35f395f81816101430152610329015261073a5ff3fe608060405260043610610079575f3560e01c8063c634d0321161004c578063c634d0321461011f578063d2f6f67d14610132578063f2fde38b14610165578063f343d68314610184575f80fd5b80630717d7c31461007d578063715018a61461009e578063729a0bd5146100b25780638da5cb5b146100d1575b5f80fd5b348015610088575f80fd5b5061009c610097366004610679565b6101b0565b005b3480156100a9575f80fd5b5061009c610274565b3480156100bd575f80fd5b5061009c6100cc366004610679565b610287565b3480156100dc575f80fd5b505f5473ffffffffffffffffffffffffffffffffffffffff165b60405173ffffffffffffffffffffffffffffffffffffffff909116815260200160405180910390f35b61009c61012d3660046106a1565b61031e565b34801561013d575f80fd5b506100f67f000000000000000000000000000000000000000000000000000000000000000081565b348015610170575f80fd5b5061009c61017f3660046106b8565b6104a6565b34801561018f575f80fd5b506001546100f69073ffffffffffffffffffffffffffffffffffffffff1681565b600180547fffffffffffffffffffffffff00000000000000000000000000000000000000001673ffffffffffffffffffffffffffffffffffffffff84169081179091556040517fb88d4fde00000000000000000000000000000000000000000000000000000000815233600482015230602482015260448101839052608060648201525f608482015263b88d4fde9060a4015b5f604051808303815f87803b15801561025a575f80fd5b505af115801561026c573d5f803e3d5ffd5b505050505050565b61027c61055d565b6102855f6105dd565b565b600180547fffffffffffffffffffffffff00000000000000000000000000000000000000001673ffffffffffffffffffffffffffffffffffffffff84169081179091556040517fb88d4fde00000000000000000000000000000000000000000000000000000000815230600482015233602482015260448101839052608060648201525f608482015263b88d4fde9060a401610243565b61032661055d565b5f7f000000000000000000000000000000000000000000000000000000000000000073ffffffffffffffffffffffffffffffffffffffff16348360405160240161037291815260200190565b604080517fffffffffffffffffffffffffffffffffffffffffffffffffffffffffffffffe08184030181529181526020820180517bffffffffffffffffffffffffffffffffffffffffffffffffffffffff167fb3ab66b000000000000000000000000000000000000000000000000000000000179052516103f391906106d8565b5f6040518083038185875af1925050503d805f811461042d576040519150601f19603f3d011682016040523d82523d5f602084013e610432565b606091505b50509050806104a2576040517f08c379a000000000000000000000000000000000000000000000000000000000815260206004820152601660248201527f4c6f772d6c6576656c2063616c6c206661696c6564210000000000000000000060448201526064015b60405180910390fd5b5050565b6104ae61055d565b73ffffffffffffffffffffffffffffffffffffffff8116610551576040517f08c379a000000000000000000000000000000000000000000000000000000000815260206004820152602660248201527f4f776e61626c653a206e6577206f776e657220697320746865207a65726f206160448201527f64647265737300000000000000000000000000000000000000000000000000006064820152608401610499565b61055a816105dd565b50565b5f5473ffffffffffffffffffffffffffffffffffffffff163314610285576040517f08c379a000000000000000000000000000000000000000000000000000000000815260206004820181905260248201527f4f776e61626c653a2063616c6c6572206973206e6f7420746865206f776e65726044820152606401610499565b5f805473ffffffffffffffffffffffffffffffffffffffff8381167fffffffffffffffffffffffff0000000000000000000000000000000000000000831681178455604051919092169283917f8be0079c531659141344cd1fd0a4f28419497f9722a3daafe3b4186f6b6457e09190a35050565b803573ffffffffffffffffffffffffffffffffffffffff81168114610674575f80fd5b919050565b5f806040838503121561068a575f80fd5b61069383610651565b946020939093013593505050565b5f602082840312156106b1575f80fd5b5035919050565b5f602082840312156106c8575f80fd5b6106d182610651565b9392505050565b5f82515f5b818110156106f757602081860181015185830152016106dd565b505f92019182525091905056fea2646970667358221220919ea1f5d581fc568f75ad0432d4b3fc8dc82260757c456fd18d4c5f7fe12b9e64736f6c63430008140033",
  "devdoc": {
    "kind": "dev",
    "methods": {
      "owner()": {
        "details": "Returns the address of the current owner."
      },
      "renounceOwnership()": {
        "details": "Leaves the contract without owner. It will not be possible to call `onlyOwner` functions. Can only be called by the current owner. NOTE: Renouncing ownership will leave the contract without an owner, thereby disabling any functionality that is only available to the owner."
      },
      "transferOwnership(address)": {
        "details": "Transfers ownership of the contract to a new account (`newOwner`). Can only be called by the current owner."
      }
    },
    "version": 1
  },
  "userdoc": {
    "kind": "user",
    "methods": {},
    "version": 1
  },
  "storageLayout": {
    "storage": [
      {
        "astId": 7,
        "contract": "contracts/MinterContract.sol:MinterContract",
        "label": "_owner",
        "offset": 0,
        "slot": "0",
        "type": "t_address"
      },
      {
        "astId": 2528,
        "contract": "contracts/MinterContract.sol:MinterContract",
        "label": "tokenInterface",
        "offset": 0,
        "slot": "1",
        "type": "t_contract(IERC721)247"
      }
    ],
    "types": {
      "t_address": {
        "encoding": "inplace",
        "label": "address",
        "numberOfBytes": "20"
      },
      "t_contract(IERC721)247": {
        "encoding": "inplace",
        "label": "contract IERC721",
        "numberOfBytes": "20"
      }
    }
  }
}