{
  "address": "0x5FbDB2315678afecb367f032d93F642f64180aa3",
  "abi": [
    {
      "inputs": [
        {
          "internalType": "address",
          "name": "_tokenAddress",
          "type": "address"
        },
        {
          "internalType": "uint256",
          "name": "_tokenId",
          "type": "uint256"
        }
      ],
      "name": "listToken",
      "outputs": [],
      "stateMutability": "nonpayable",
      "type": "function"
    },
    {
      "inputs": [
        {
          "internalType": "address",
          "name": "operator",
          "type": "address"
        },
        {
          "internalType": "address",
          "name": "from",
          "type": "address"
        },
        {
          "internalType": "uint256",
          "name": "tokenId",
          "type": "uint256"
        },
        {
          "internalType": "bytes",
          "name": "data",
          "type": "bytes"
        }
      ],
      "name": "onERC721Received",
      "outputs": [
        {
          "internalType": "bytes4",
          "name": "",
          "type": "bytes4"
        }
      ],
      "stateMutability": "nonpayable",
      "type": "function"
    },
    {
      "inputs": [
        {
          "internalType": "address",
          "name": "_tokenAddress",
          "type": "address"
        },
        {
          "internalType": "uint256",
          "name": "_tokenId",
          "type": "uint256"
        }
      ],
      "name": "receiveBack",
      "outputs": [],
      "stateMutability": "nonpayable",
      "type": "function"
    },
    {
      "inputs": [],
      "name": "tokenInterface",
      "outputs": [
        {
          "internalType": "contract IERC721",
          "name": "",
          "type": "address"
        }
      ],
      "stateMutability": "view",
      "type": "function"
    }
  ],
  "transactionHash": "0x2ccffeaf60bc22df9ee2335284deb31f529c5e99bc785237a61252ffee877a72",
  "args": [],
  "numDeployments": 1,
  "solcInputHash": "1b9e02e1da0b3ec0907525736574e367",
  "bytecode": "0x608060405234801561000f575f80fd5b5061039e8061001d5f395ff3fe608060405234801561000f575f80fd5b506004361061004a575f3560e01c80630717d7c31461004e578063150b7a0214610063578063729a0bd5146100d1578063f343d683146100e4575b5f80fd5b61006161005c3660046102ad565b610128565b005b61009b6100713660046102d5565b7f150b7a020000000000000000000000000000000000000000000000000000000095945050505050565b6040517fffffffff0000000000000000000000000000000000000000000000000000000090911681526020015b60405180910390f35b6100616100df3660046102ad565b6101ed565b5f546101039073ffffffffffffffffffffffffffffffffffffffff1681565b60405173ffffffffffffffffffffffffffffffffffffffff90911681526020016100c8565b5f80547fffffffffffffffffffffffff00000000000000000000000000000000000000001673ffffffffffffffffffffffffffffffffffffffff841690811782556040517fb88d4fde000000000000000000000000000000000000000000000000000000008152336004820152306024820152604481018490526080606482015260848101929092529063b88d4fde9060a4015b5f604051808303815f87803b1580156101d3575f80fd5b505af11580156101e5573d5f803e3d5ffd5b505050505050565b5f80547fffffffffffffffffffffffff00000000000000000000000000000000000000001673ffffffffffffffffffffffffffffffffffffffff841690811782556040517fb88d4fde000000000000000000000000000000000000000000000000000000008152306004820152336024820152604481018490526080606482015260848101929092529063b88d4fde9060a4016101bc565b803573ffffffffffffffffffffffffffffffffffffffff811681146102a8575f80fd5b919050565b5f80604083850312156102be575f80fd5b6102c783610285565b946020939093013593505050565b5f805f805f608086880312156102e9575f80fd5b6102f286610285565b945061030060208701610285565b935060408601359250606086013567ffffffffffffffff80821115610323575f80fd5b818801915088601f830112610336575f80fd5b813581811115610344575f80fd5b896020828501011115610355575f80fd5b969995985093965060200194939250505056fea2646970667358221220dd21d0517f3072ec32cd48a0fc80718b0871f82b61b6d9d4ae5bef473fa513e564736f6c63430008140033",
  "devdoc": {
    "kind": "dev",
    "methods": {},
    "version": 1
  },
  "userdoc": {
    "kind": "user",
    "methods": {},
    "version": 1
  },
  "storageLayout": {
    "storage": [
      {
        "astId": 2629,
        "contract": "contracts/test/TransferProxyMock.sol:TransferProxyMock",
        "label": "tokenInterface",
        "offset": 0,
        "slot": "0",
        "type": "t_contract(IERC721)247"
      }
    ],
    "types": {
      "t_contract(IERC721)247": {
        "encoding": "inplace",
        "label": "contract IERC721",
        "numberOfBytes": "20"
      }
    }
  }
}