{
  "address": "0x5FbDB2315678afecb367f032d93F642f64180aa3",
  "abi": [
    {
      "inputs": [
        {
          "internalType": "address",
          "name": "_tokenAddress",
          "type": "address"
        },
        {
          "internalType": "uint256",
          "name": "_tokenId",
          "type": "uint256"
        }
      ],
      "name": "listToken",
      "outputs": [],
      "stateMutability": "nonpayable",
      "type": "function"
    },
    {
      "inputs": [
        {
          "internalType": "address",
          "name": "operator",
          "type": "address"
        },
        {
          "internalType": "address",
          "name": "from",
          "type": "address"
        },
        {
          "internalType": "uint256",
          "name": "tokenId",
          "type": "uint256"
        },
        {
          "internalType": "bytes",
          "name": "data",
          "type": "bytes"
        }
      ],
      "name": "onERC721Received",
      "outputs": [
        {
          "internalType": "bytes4",
          "name": "",
          "type": "bytes4"
        }
      ],
      "stateMutability": "nonpayable",
      "type": "function"
    },
    {
      "inputs": [
        {
          "internalType": "address",
          "name": "_tokenAddress",
          "type": "address"
        },
        {
          "internalType": "uint256",
          "name": "_tokenId",
          "type": "uint256"
        }
      ],
      "name": "receiveBack",
      "outputs": [],
      "stateMutability": "nonpayable",
      "type": "function"
    },
    {
      "inputs": [],
      "name": "tokenInterface",
      "outputs": [
        {
          "internalType": "contract IERC721",
          "name": "",
          "type": "address"
        }
      ],
      "stateMutability": "view",
      "type": "function"
    }
  ],
  "transactionHash": "0x036ee1cc08cc9e6867e689a4aeeef6f09f24c5c6fd8113c6dde1be3bbba36920",
  "args": [],
  "numDeployments": 1,
  "solcInputHash": "a48abf186e46731288e0f4e75ab90650",
  "bytecode": "0x60806040523461001a5760405161053761001f823961053790f35b5f80fdfe60806040526004361015610011575f80fd5b5f3560e01c80630717d7c314610050578063150b7a021461004b578063729a0bd5146100465763f343d683036100905761027c565b6101d5565b610183565b6100d9565b73ffffffffffffffffffffffffffffffffffffffff1690565b90565b73ffffffffffffffffffffffffffffffffffffffff81165b0361009057565b5f80fd5b905035906100a182610071565b565b80610089565b905035906100a1826100a3565b91906040838203126100905761006e906100d08185610094565b936020016100a9565b34610090576100f26100ec3660046100b6565b906103cf565b604051005b0390f35b909182601f830112156100905781359167ffffffffffffffff831161009057602001926001830284011161009057565b90608082820312610090576101408183610094565b9261014e8260208501610094565b9261015c83604083016100a9565b92606082013567ffffffffffffffff81116100905761017b92016100fb565b9091565b9052565b34610090576100f76101a261019936600461012b565b939290926104e7565b604051918291827fffffffff00000000000000000000000000000000000000000000000000000000909116815260200190565b34610090576100f26101e83660046100b6565b90610464565b5f91031261009057565b61006e916008021c73ffffffffffffffffffffffffffffffffffffffff1690565b9061006e91546101f8565b61006e5f80610219565b61005561006e61006e9273ffffffffffffffffffffffffffffffffffffffff1690565b61006e9061022e565b61006e90610251565b61017f9061025a565b6020810192916100a19190610263565b346100905761028c3660046101ee565b6100f7610297610224565b6040519182918261026c565b906102b361006e6102f49261025a565b82547fffffffffffffffffffffffff00000000000000000000000000000000000000001673ffffffffffffffffffffffffffffffffffffffff919091161790565b9055565b61006e90610055565b61006e90546102f8565b7f4e487b71000000000000000000000000000000000000000000000000000000005f52604160045260245ffd5b90601f017fffffffffffffffffffffffffffffffffffffffffffffffffffffffffffffffe016810190811067ffffffffffffffff82111761037857604052565b61030b565b73ffffffffffffffffffffffffffffffffffffffff91821681529116602082015261006e916080820191906103b3906040830152565b60608183039101525f815260200190565b6040513d5f823e3d90fd5b6103db6103e19161025a565b5f6102a3565b6103f26103ed5f610301565b61025a565b9063b88d4fde9133906104043061025a565b93813b15610090575f61042c91610437829661041f60405190565b9889978896879560e01b90565b85526004850161037d565b03925af1801561045f576104485750565b6100a1905f6104578183610338565b8101906101ee565b6103c4565b6103db6104709161025a565b61047c6103ed5f610301565b9063b88d4fde9161048c3061025a565b903393813b15610090575f61042c91610437829661041f60405190565b6104c26104bc61006e9263ffffffff1690565b60e01b90565b7fffffffff000000000000000000000000000000000000000000000000000000001690565b50505050506104f35f90565b5061006e63150b7a026104a956fea2646970667358221220f7dc82d403b4458eadcda25bc8e6dbbb95084d356a94528b0f03db6d35f5c71a64736f6c63430008140033",
  "devdoc": {
    "kind": "dev",
    "methods": {},
    "version": 1
  },
  "userdoc": {
    "kind": "user",
    "methods": {},
    "version": 1
  },
  "storageLayout": {
    "storage": [
      {
        "astId": 3276,
        "contract": "contracts/test/TransferProxyMock.sol:TransferProxyMock",
        "label": "tokenInterface",
        "offset": 0,
        "slot": "0",
        "type": "t_contract(IERC721)247"
      }
    ],
    "types": {
      "t_contract(IERC721)247": {
        "encoding": "inplace",
        "label": "contract IERC721",
        "numberOfBytes": "20"
      }
    }
  }
}