{
  "address": "0x53e03df4656C1BeeC4e7108cc7E0c31394A76EE7",
  "abi": [
    {
      "inputs": [
        {
          "internalType": "uint256",
          "name": "_maxTokens",
          "type": "uint256"
        },
        {
          "internalType": "uint256",
          "name": "_maxTokensForWhitelist",
          "type": "uint256"
        },
        {
          "internalType": "uint256",
          "name": "_maxTokensForAirdrop",
          "type": "uint256"
        },
        {
          "internalType": "uint256",
          "name": "_whitelistTokenPrice",
          "type": "uint256"
        },
        {
          "internalType": "uint256",
          "name": "_publicTokenPrice",
          "type": "uint256"
        },
        {
          "internalType": "uint256",
          "name": "_maxAmountPerMint",
          "type": "uint256"
        },
        {
          "internalType": "uint256",
          "name": "_maxAmountPerWhitelist",
          "type": "uint256"
        },
        {
          "internalType": "uint256",
          "name": "_maxAmountPerAccount",
          "type": "uint256"
        },
        {
          "internalType": "address",
          "name": "_raribleTransferProxy",
          "type": "address"
        },
        {
          "internalType": "address",
          "name": "_founder1",
          "type": "address"
        },
        {
          "internalType": "address",
          "name": "_founder2",
          "type": "address"
        },
        {
          "internalType": "address",
          "name": "_communityWallet",
          "type": "address"
        },
        {
          "internalType": "bytes32",
          "name": "_merkleRoot",
          "type": "bytes32"
        }
      ],
      "stateMutability": "nonpayable",
      "type": "constructor"
    },
    {
      "inputs": [],
      "name": "AlreadyRevealed",
      "type": "error"
    },
    {
      "inputs": [],
      "name": "ApprovalCallerNotOwnerNorApproved",
      "type": "error"
    },
    {
      "inputs": [],
      "name": "ApprovalQueryForNonexistentToken",
      "type": "error"
    },
    {
      "inputs": [],
      "name": "BalanceQueryForZeroAddress",
      "type": "error"
    },
    {
      "inputs": [],
      "name": "InsufficientETH",
      "type": "error"
    },
    {
      "inputs": [],
      "name": "InvalidInput",
      "type": "error"
    },
    {
      "inputs": [],
      "name": "InvalidQueryRange",
      "type": "error"
    },
    {
      "inputs": [],
      "name": "MaxAmountPerAccountExceeded",
      "type": "error"
    },
    {
      "inputs": [],
      "name": "MaxAmountPerMintExceeded",
      "type": "error"
    },
    {
      "inputs": [],
      "name": "MaxAmountPerWhitelistExceeded",
      "type": "error"
    },
    {
      "inputs": [],
      "name": "MaxSupplyExceeded",
      "type": "error"
    },
    {
      "inputs": [],
      "name": "MaxSupplyForAirdropExceeded",
      "type": "error"
    },
    {
      "inputs": [],
      "name": "MaxSupplyForWhitelistExceeded",
      "type": "error"
    },
    {
      "inputs": [],
      "name": "MintERC2309QuantityExceedsLimit",
      "type": "error"
    },
    {
      "inputs": [],
      "name": "MintToZeroAddress",
      "type": "error"
    },
    {
      "inputs": [],
      "name": "MintZeroQuantity",
      "type": "error"
    },
    {
      "inputs": [],
      "name": "NotAWhitelisted",
      "type": "error"
    },
    {
      "inputs": [],
      "name": "NotAnAccount",
      "type": "error"
    },
    {
      "inputs": [],
      "name": "NotPublicSalePhase",
      "type": "error"
    },
    {
      "inputs": [],
      "name": "NotWhitelistSalePhase",
      "type": "error"
    },
    {
      "inputs": [],
      "name": "OwnerQueryForNonexistentToken",
      "type": "error"
    },
    {
      "inputs": [],
      "name": "OwnershipNotInitializedForExtraData",
      "type": "error"
    },
    {
      "inputs": [],
      "name": "StillAirdropPhase",
      "type": "error"
    },
    {
      "inputs": [],
      "name": "TransferCallerNotOwnerNorApproved",
      "type": "error"
    },
    {
      "inputs": [],
      "name": "TransferFailed",
      "type": "error"
    },
    {
      "inputs": [],
      "name": "TransferFromIncorrectOwner",
      "type": "error"
    },
    {
      "inputs": [],
      "name": "TransferToNonERC721ReceiverImplementer",
      "type": "error"
    },
    {
      "inputs": [],
      "name": "TransferToZeroAddress",
      "type": "error"
    },
    {
      "inputs": [],
      "name": "URIQueryForNonexistentToken",
      "type": "error"
    },
    {
      "inputs": [],
      "name": "WrongStateForReveal",
      "type": "error"
    },
    {
      "anonymous": false,
      "inputs": [
        {
          "indexed": true,
          "internalType": "address",
          "name": "owner",
          "type": "address"
        },
        {
          "indexed": true,
          "internalType": "address",
          "name": "approved",
          "type": "address"
        },
        {
          "indexed": true,
          "internalType": "uint256",
          "name": "tokenId",
          "type": "uint256"
        }
      ],
      "name": "Approval",
      "type": "event"
    },
    {
      "anonymous": false,
      "inputs": [
        {
          "indexed": true,
          "internalType": "address",
          "name": "owner",
          "type": "address"
        },
        {
          "indexed": true,
          "internalType": "address",
          "name": "operator",
          "type": "address"
        },
        {
          "indexed": false,
          "internalType": "bool",
          "name": "approved",
          "type": "bool"
        }
      ],
      "name": "ApprovalForAll",
      "type": "event"
    },
    {
      "anonymous": false,
      "inputs": [
        {
          "indexed": true,
          "internalType": "uint256",
          "name": "fromTokenId",
          "type": "uint256"
        },
        {
          "indexed": false,
          "internalType": "uint256",
          "name": "toTokenId",
          "type": "uint256"
        },
        {
          "indexed": true,
          "internalType": "address",
          "name": "from",
          "type": "address"
        },
        {
          "indexed": true,
          "internalType": "address",
          "name": "to",
          "type": "address"
        }
      ],
      "name": "ConsecutiveTransfer",
      "type": "event"
    },
    {
      "anonymous": false,
      "inputs": [
        {
          "indexed": true,
          "internalType": "address",
          "name": "previousOwner",
          "type": "address"
        },
        {
          "indexed": true,
          "internalType": "address",
          "name": "newOwner",
          "type": "address"
        }
      ],
      "name": "OwnershipTransferred",
      "type": "event"
    },
    {
      "anonymous": false,
      "inputs": [
        {
          "indexed": true,
          "internalType": "address",
          "name": "from",
          "type": "address"
        },
        {
          "indexed": true,
          "internalType": "address",
          "name": "to",
          "type": "address"
        },
        {
          "indexed": true,
          "internalType": "uint256",
          "name": "tokenId",
          "type": "uint256"
        }
      ],
      "name": "Transfer",
      "type": "event"
    },
    {
      "inputs": [],
      "name": "AIRDROP_BASE_URI",
      "outputs": [
        {
          "internalType": "string",
          "name": "",
          "type": "string"
        }
      ],
      "stateMutability": "view",
      "type": "function"
    },
    {
      "inputs": [],
      "name": "BASE_URI",
      "outputs": [
        {
          "internalType": "string",
          "name": "",
          "type": "string"
        }
      ],
      "stateMutability": "view",
      "type": "function"
    },
    {
      "inputs": [],
      "name": "COMMUNITY_WALLET",
      "outputs": [
        {
          "internalType": "address",
          "name": "",
          "type": "address"
        }
      ],
      "stateMutability": "view",
      "type": "function"
    },
    {
      "inputs": [],
      "name": "FOUNDER_1",
      "outputs": [
        {
          "internalType": "address",
          "name": "",
          "type": "address"
        }
      ],
      "stateMutability": "view",
      "type": "function"
    },
    {
      "inputs": [],
      "name": "FOUNDER_2",
      "outputs": [
        {
          "internalType": "address",
          "name": "",
          "type": "address"
        }
      ],
      "stateMutability": "view",
      "type": "function"
    },
    {
      "inputs": [],
      "name": "MAX_AMOUNT_PER_ACCOUNT",
      "outputs": [
        {
          "internalType": "uint256",
          "name": "",
          "type": "uint256"
        }
      ],
      "stateMutability": "view",
      "type": "function"
    },
    {
      "inputs": [],
      "name": "MAX_AMOUNT_PER_MINT",
      "outputs": [
        {
          "internalType": "uint256",
          "name": "",
          "type": "uint256"
        }
      ],
      "stateMutability": "view",
      "type": "function"
    },
    {
      "inputs": [],
      "name": "MAX_AMOUNT_PER_WHITELIST",
      "outputs": [
        {
          "internalType": "uint256",
          "name": "",
          "type": "uint256"
        }
      ],
      "stateMutability": "view",
      "type": "function"
    },
    {
      "inputs": [],
      "name": "MAX_TOKENS",
      "outputs": [
        {
          "internalType": "uint256",
          "name": "",
          "type": "uint256"
        }
      ],
      "stateMutability": "view",
      "type": "function"
    },
    {
      "inputs": [],
      "name": "MAX_TOKENS_FOR_AIRDROP",
      "outputs": [
        {
          "internalType": "uint256",
          "name": "",
          "type": "uint256"
        }
      ],
      "stateMutability": "view",
      "type": "function"
    },
    {
      "inputs": [],
      "name": "MAX_TOKENS_FOR_WHITELIST",
      "outputs": [
        {
          "internalType": "uint256",
          "name": "",
          "type": "uint256"
        }
      ],
      "stateMutability": "view",
      "type": "function"
    },
    {
      "inputs": [],
      "name": "MERKLE_ROOT",
      "outputs": [
        {
          "internalType": "bytes32",
          "name": "",
          "type": "bytes32"
        }
      ],
      "stateMutability": "view",
      "type": "function"
    },
    {
      "inputs": [],
      "name": "PUBLIC_TOKEN_PRICE",
      "outputs": [
        {
          "internalType": "uint256",
          "name": "",
          "type": "uint256"
        }
      ],
      "stateMutability": "view",
      "type": "function"
    },
    {
      "inputs": [],
      "name": "WHITELIST_TOKEN_PRICE",
      "outputs": [
        {
          "internalType": "uint256",
          "name": "",
          "type": "uint256"
        }
      ],
      "stateMutability": "view",
      "type": "function"
    },
    {
      "inputs": [
        {
          "internalType": "address",
          "name": "_to",
          "type": "address"
        },
        {
          "internalType": "uint256",
          "name": "_amount",
          "type": "uint256"
        }
      ],
      "name": "airdropMint",
      "outputs": [],
      "stateMutability": "nonpayable",
      "type": "function"
    },
    {
      "inputs": [
        {
          "internalType": "address",
          "name": "to",
          "type": "address"
        },
        {
          "internalType": "uint256",
          "name": "tokenId",
          "type": "uint256"
        }
      ],
      "name": "approve",
      "outputs": [],
      "stateMutability": "payable",
      "type": "function"
    },
    {
      "inputs": [
        {
          "internalType": "address",
          "name": "owner",
          "type": "address"
        }
      ],
      "name": "balanceOf",
      "outputs": [
        {
          "internalType": "uint256",
          "name": "",
          "type": "uint256"
        }
      ],
      "stateMutability": "view",
      "type": "function"
    },
    {
      "inputs": [
        {
          "internalType": "uint256",
          "name": "_index",
          "type": "uint256"
        }
      ],
      "name": "changeState",
      "outputs": [],
      "stateMutability": "nonpayable",
      "type": "function"
    },
    {
      "inputs": [],
      "name": "contractBalance",
      "outputs": [
        {
          "internalType": "uint256",
          "name": "",
          "type": "uint256"
        }
      ],
      "stateMutability": "view",
      "type": "function"
    },
    {
      "inputs": [],
      "name": "currentState",
      "outputs": [
        {
          "internalType": "enum IlkelBenlik.STATE",
          "name": "",
          "type": "uint8"
        }
      ],
      "stateMutability": "view",
      "type": "function"
    },
    {
      "inputs": [
        {
          "internalType": "uint256",
          "name": "tokenId",
          "type": "uint256"
        }
      ],
      "name": "explicitOwnershipOf",
      "outputs": [
        {
          "components": [
            {
              "internalType": "address",
              "name": "addr",
              "type": "address"
            },
            {
              "internalType": "uint64",
              "name": "startTimestamp",
              "type": "uint64"
            },
            {
              "internalType": "bool",
              "name": "burned",
              "type": "bool"
            },
            {
              "internalType": "uint24",
              "name": "extraData",
              "type": "uint24"
            }
          ],
          "internalType": "struct IERC721A.TokenOwnership",
          "name": "",
          "type": "tuple"
        }
      ],
      "stateMutability": "view",
      "type": "function"
    },
    {
      "inputs": [
        {
          "internalType": "uint256[]",
          "name": "tokenIds",
          "type": "uint256[]"
        }
      ],
      "name": "explicitOwnershipsOf",
      "outputs": [
        {
          "components": [
            {
              "internalType": "address",
              "name": "addr",
              "type": "address"
            },
            {
              "internalType": "uint64",
              "name": "startTimestamp",
              "type": "uint64"
            },
            {
              "internalType": "bool",
              "name": "burned",
              "type": "bool"
            },
            {
              "internalType": "uint24",
              "name": "extraData",
              "type": "uint24"
            }
          ],
          "internalType": "struct IERC721A.TokenOwnership[]",
          "name": "",
          "type": "tuple[]"
        }
      ],
      "stateMutability": "view",
      "type": "function"
    },
    {
      "inputs": [
        {
          "internalType": "address",
          "name": "_account",
          "type": "address"
        }
      ],
      "name": "getAirdropMintCounter",
      "outputs": [
        {
          "internalType": "uint32",
          "name": "",
          "type": "uint32"
        }
      ],
      "stateMutability": "view",
      "type": "function"
    },
    {
      "inputs": [
        {
          "internalType": "uint256",
          "name": "tokenId",
          "type": "uint256"
        }
      ],
      "name": "getApproved",
      "outputs": [
        {
          "internalType": "address",
          "name": "",
          "type": "address"
        }
      ],
      "stateMutability": "view",
      "type": "function"
    },
    {
      "inputs": [
        {
          "internalType": "address",
          "name": "_account",
          "type": "address"
        }
      ],
      "name": "getPublicMintCounter",
      "outputs": [
        {
          "internalType": "uint256",
          "name": "",
          "type": "uint256"
        }
      ],
      "stateMutability": "view",
      "type": "function"
    },
    {
      "inputs": [
        {
          "internalType": "address",
          "name": "_account",
          "type": "address"
        }
      ],
      "name": "getWhitelistMintCounter",
      "outputs": [
        {
          "internalType": "uint32",
          "name": "",
          "type": "uint32"
        }
      ],
      "stateMutability": "view",
      "type": "function"
    },
    {
      "inputs": [
        {
          "internalType": "address",
          "name": "owner",
          "type": "address"
        },
        {
          "internalType": "address",
          "name": "operator",
          "type": "address"
        }
      ],
      "name": "isApprovedForAll",
      "outputs": [
        {
          "internalType": "bool",
          "name": "",
          "type": "bool"
        }
      ],
      "stateMutability": "view",
      "type": "function"
    },
    {
      "inputs": [],
      "name": "isRevealed",
      "outputs": [
        {
          "internalType": "bool",
          "name": "",
          "type": "bool"
        }
      ],
      "stateMutability": "view",
      "type": "function"
    },
    {
      "inputs": [
        {
          "internalType": "address",
          "name": "_account",
          "type": "address"
        },
        {
          "internalType": "bytes32[]",
          "name": "_merkleProof",
          "type": "bytes32[]"
        }
      ],
      "name": "isWhitelisted",
      "outputs": [
        {
          "internalType": "bool",
          "name": "",
          "type": "bool"
        }
      ],
      "stateMutability": "view",
      "type": "function"
    },
    {
      "inputs": [],
      "name": "name",
      "outputs": [
        {
          "internalType": "string",
          "name": "",
          "type": "string"
        }
      ],
      "stateMutability": "view",
      "type": "function"
    },
    {
      "inputs": [],
      "name": "owner",
      "outputs": [
        {
          "internalType": "address",
          "name": "",
          "type": "address"
        }
      ],
      "stateMutability": "view",
      "type": "function"
    },
    {
      "inputs": [
        {
          "internalType": "uint256",
          "name": "tokenId",
          "type": "uint256"
        }
      ],
      "name": "ownerOf",
      "outputs": [
        {
          "internalType": "address",
          "name": "",
          "type": "address"
        }
      ],
      "stateMutability": "view",
      "type": "function"
    },
    {
      "inputs": [
        {
          "internalType": "uint256",
          "name": "_amount",
          "type": "uint256"
        }
      ],
      "name": "publicSaleMint",
      "outputs": [],
      "stateMutability": "payable",
      "type": "function"
    },
    {
      "inputs": [],
      "name": "raribleTransferProxy",
      "outputs": [
        {
          "internalType": "address",
          "name": "",
          "type": "address"
        }
      ],
      "stateMutability": "view",
      "type": "function"
    },
    {
      "inputs": [],
      "name": "renounceOwnership",
      "outputs": [],
      "stateMutability": "nonpayable",
      "type": "function"
    },
    {
      "inputs": [
        {
          "internalType": "string",
          "name": "_newBaseUri",
          "type": "string"
        }
      ],
      "name": "reveal",
      "outputs": [],
      "stateMutability": "nonpayable",
      "type": "function"
    },
    {
      "inputs": [
        {
          "internalType": "uint256",
          "name": "tokenId",
          "type": "uint256"
        },
        {
          "internalType": "uint256",
          "name": "salePrice",
          "type": "uint256"
        }
      ],
      "name": "royaltyInfo",
      "outputs": [
        {
          "internalType": "address",
          "name": "",
          "type": "address"
        },
        {
          "internalType": "uint256",
          "name": "",
          "type": "uint256"
        }
      ],
      "stateMutability": "view",
      "type": "function"
    },
    {
      "inputs": [
        {
          "internalType": "address",
          "name": "from",
          "type": "address"
        },
        {
          "internalType": "address",
          "name": "to",
          "type": "address"
        },
        {
          "internalType": "uint256",
          "name": "tokenId",
          "type": "uint256"
        }
      ],
      "name": "safeTransferFrom",
      "outputs": [],
      "stateMutability": "payable",
      "type": "function"
    },
    {
      "inputs": [
        {
          "internalType": "address",
          "name": "from",
          "type": "address"
        },
        {
          "internalType": "address",
          "name": "to",
          "type": "address"
        },
        {
          "internalType": "uint256",
          "name": "tokenId",
          "type": "uint256"
        },
        {
          "internalType": "bytes",
          "name": "_data",
          "type": "bytes"
        }
      ],
      "name": "safeTransferFrom",
      "outputs": [],
      "stateMutability": "payable",
      "type": "function"
    },
    {
      "inputs": [
        {
          "internalType": "address",
          "name": "operator",
          "type": "address"
        },
        {
          "internalType": "bool",
          "name": "approved",
          "type": "bool"
        }
      ],
      "name": "setApprovalForAll",
      "outputs": [],
      "stateMutability": "nonpayable",
      "type": "function"
    },
    {
      "inputs": [],
      "name": "state",
      "outputs": [
        {
          "internalType": "enum IlkelBenlik.STATE",
          "name": "",
          "type": "uint8"
        }
      ],
      "stateMutability": "view",
      "type": "function"
    },
    {
      "inputs": [
        {
          "internalType": "bytes4",
          "name": "interfaceId",
          "type": "bytes4"
        }
      ],
      "name": "supportsInterface",
      "outputs": [
        {
          "internalType": "bool",
          "name": "",
          "type": "bool"
        }
      ],
      "stateMutability": "view",
      "type": "function"
    },
    {
      "inputs": [],
      "name": "symbol",
      "outputs": [
        {
          "internalType": "string",
          "name": "",
          "type": "string"
        }
      ],
      "stateMutability": "view",
      "type": "function"
    },
    {
      "inputs": [
        {
          "internalType": "uint256",
          "name": "_tokenId",
          "type": "uint256"
        }
      ],
      "name": "tokenURI",
      "outputs": [
        {
          "internalType": "string",
          "name": "",
          "type": "string"
        }
      ],
      "stateMutability": "view",
      "type": "function"
    },
    {
      "inputs": [
        {
          "internalType": "address",
          "name": "owner",
          "type": "address"
        }
      ],
      "name": "tokensOfOwner",
      "outputs": [
        {
          "internalType": "uint256[]",
          "name": "",
          "type": "uint256[]"
        }
      ],
      "stateMutability": "view",
      "type": "function"
    },
    {
      "inputs": [
        {
          "internalType": "address",
          "name": "owner",
          "type": "address"
        },
        {
          "internalType": "uint256",
          "name": "start",
          "type": "uint256"
        },
        {
          "internalType": "uint256",
          "name": "stop",
          "type": "uint256"
        }
      ],
      "name": "tokensOfOwnerIn",
      "outputs": [
        {
          "internalType": "uint256[]",
          "name": "",
          "type": "uint256[]"
        }
      ],
      "stateMutability": "view",
      "type": "function"
    },
    {
      "inputs": [],
      "name": "totalSupply",
      "outputs": [
        {
          "internalType": "uint256",
          "name": "",
          "type": "uint256"
        }
      ],
      "stateMutability": "view",
      "type": "function"
    },
    {
      "inputs": [
        {
          "internalType": "address",
          "name": "from",
          "type": "address"
        },
        {
          "internalType": "address",
          "name": "to",
          "type": "address"
        },
        {
          "internalType": "uint256",
          "name": "tokenId",
          "type": "uint256"
        }
      ],
      "name": "transferFrom",
      "outputs": [],
      "stateMutability": "payable",
      "type": "function"
    },
    {
      "inputs": [
        {
          "internalType": "address",
          "name": "newOwner",
          "type": "address"
        }
      ],
      "name": "transferOwnership",
      "outputs": [],
      "stateMutability": "nonpayable",
      "type": "function"
    },
    {
      "inputs": [
        {
          "internalType": "uint256",
          "name": "_amount",
          "type": "uint256"
        },
        {
          "internalType": "bytes32[]",
          "name": "_merkleProof",
          "type": "bytes32[]"
        }
      ],
      "name": "whitelistSaleMint",
      "outputs": [],
      "stateMutability": "payable",
      "type": "function"
    },
    {
      "inputs": [],
      "name": "withdrawAll",
      "outputs": [],
      "stateMutability": "nonpayable",
      "type": "function"
    }
  ],
  "transactionHash": "0x4f080d6a204167b80b201e1186d3598ea19960efec0b73161139a1e41fb6cd13",
  "args": [
    "45",
    "8",
    "5",
    "10000000000000000",
    "11000000000000000",
    "5",
    "5",
    "10",
    "0x21B0B84FfAB5A8c48291f5eC9D9FDb9aef574052",
    "0xF0D3CfBb898A19C1bDbdEdcC22546CEF0768bb97",
    "0x8b162525d54853d5a5a9d7784BE568aE479F0c20",
    "0xCC7f39Ca6C9188eb88E8062d42461Dc7ec05041A",
    "0xa1c002e633f0237d9a4cb590efdf9eeb8d6b0d87cd1f9cc970e3a29aba305756"
  ],
  "numDeployments": 1,
  "solcInputHash": "a48abf186e46731288e0f4e75ab90650",
  "bytecode": "0x6102006040523462000117576200002f6200001962000292565b9b9a909a9991999892989793979694966200060f565b604051613de162000ac582396080518181816112a50152612061015260a0518181816112de0152611e34015260c051818181610eb101528181611b8e01528181611ccd01528181611e130152612581015260e0518181816106e50152611efc015261010051818181610bee015261211c01526101205181818161126c0152612002015261014051818181610d750152611ea001526101605181818161103a01526120c0015261018051818181610dc9015261219701526101a05181610cb401526101c0518181816111dc01526121ec01526101e0518181816109f90152612a2d0152613de190f35b5f80fd5b634e487b7160e01b5f52604160045260245ffd5b90601f01601f191681019081106001600160401b038211176200015157604052565b6200011b565b906200016e6200016660405190565b92836200012f565b565b805b036200011757565b905051906200016e8262000170565b6001600160a01b031690565b90565b6001600160a01b03811662000172565b905051906200016e8262000198565b6101a0818303126200011757620001cf82826200017a565b92620001df83602084016200017a565b92620001ef81604085016200017a565b92620001ff82606083016200017a565b926200020f83608084016200017a565b926200021f8160a085016200017a565b926200022f8260c083016200017a565b926200023f8360e084016200017a565b9262000250816101008501620001a8565b9262000261826101208301620001a8565b926200019562000276846101408501620001a8565b9362000287816101608601620001a8565b93610180016200017a565b620002b5620048a680380380620002a98162000157565b928339810190620001b7565b909192939495969798999a9b9c565b6001600160401b0381116200015157602090601f01601f19160190565b90620002f7620002f183620002c4565b62000157565b918252565b62000308600b620002e1565b6a496c6b656c42656e6c696b60a81b602082015290565b62000195620002fc565b620003356002620002e1565b6124a160f11b602082015290565b6200019562000329565b9060ff60a01b9060a01b5b9181191691161790565b634e487b7160e01b5f52602160045260245ffd5b600311156200038157565b62000362565b906200016e8262000376565b620001959062000387565b90620003b262000195620003ba9262000393565b82546200034d565b9055565b634e487b7160e01b5f52602260045260245ffd5b9060016002830492168015620003f5575b6020831014620003ef57565b620003be565b91607f1691620003e3565b915f1960089290920291821b911b62000358565b6200019562000195620001959290565b91906200043962000195620003ba9362000414565b90835462000400565b6200016e915f9162000424565b8181106200045b575050565b806200046a5f60019362000442565b016200044f565b9190601f81116200048157505050565b620004936200016e935f5260205f2090565b906020601f840181900483019310620004b7575b6020601f9091010401906200044f565b9091508190620004a7565b6002620004f66274652f60e81b92620004e96043620004e28354620003d2565b8362000471565b608781555f5260205f2090565b7f697066733a2f2f62616679626569686177706d677135766c6b7537673261616f81557f6375326532653766717a76716537717471346b6176326765326a79356f6a737160018201550155565b6200016e90620004c2565b9060ff9062000358565b906200056b62000195620003ba92151590565b82546200054e565b634e487b7160e01b5f52601160045260245ffd5b919082018092116200059557565b62000573565b906001600160a01b039062000358565b620001959062000189906001600160a01b031682565b6200019590620005ab565b6200019590620005c1565b90620005eb62000195620003ba92620005cc565b82546200059b565b6200060362000195620001959290565b6001600160601b031690565b969492909b999a98979593916200066c818e620006406200062f6200031f565b6200063962000343565b90620006d8565b620006665f6200065281600a6200039e565b6200065e600c62000543565b600d62000558565b62000587565b8810620006c6576200016e9c620006a19860805260a05260c05260e05261010052610120526101405261016052600b620005d7565b61018052826101a0526101c0526101e052620006bf6101f4620005f3565b9062000a20565b60405163b4fa3fb360e01b8152600490fd5b90620006e491620006ef565b6200016e336200085a565b6200016e918291829182918291829182919062000814565b9062000711815190565b906001600160401b03821162000151576200073982620007328554620003d2565b8562000471565b602090601f83116001146200077657620003ba92915f91836200076a575b50505f19600883021c1916906002021790565b015190505f8062000757565b601f198316916200078a855f5260205f2090565b925f5b818110620007c957509160029391856001969410620007b0575b50505002019055565b01515f196008601f8516021c191690555f8080620007a7565b919360206001819287870151815501950192016200078d565b906200016e9162000707565b905f199062000358565b906200080c62000195620003ba9262000414565b8254620007ee565b90620008266200082e926002620007e2565b6003620007e2565b6200016e6200083c62000ab8565b5f620007f8565b620001959062000189565b62000195905462000843565b62000866600a6200084e565b906200087481600a620005d7565b620008ab620008a47f8be0079c531659141344cd1fd0a4f28419497f9722a3daafe3b4186f6b6457e093620005cc565b91620005cc565b91620008b660405190565b5f90a3565b15620008c357565b60405162461bcd60e51b815260206004820152602a60248201527f455243323938313a20726f79616c7479206665652077696c6c206578636565646044820152692073616c65507269636560b01b6064820152608490fd5b6200018962000195620001959290565b62000195906200091b565b156200093e57565b60405162461bcd60e51b815260206004820152601960248201527f455243323938313a20696e76616c6964207265636569766572000000000000006044820152606490fd5b62000195604062000157565b906001600160a01b03199060a01b62000358565b620001959062000603906001600160601b031682565b90620009cd62000195620003ba92620009a3565b82546200098f565b6200016e9162000a0d90602090620009ff620009f882516001600160a01b031690565b85620005d7565b01516001600160601b031690565b90620009b9565b906200016e91620009d5565b62000aa36200016e9262000a4d62000a3b6200060362000aab565b6001600160601b0383161115620008bb565b62000a935f9362000a7862000a6662000189876200092b565b6001600160a01b038316141562000936565b62000a8262000983565b948501906001600160a01b03169052565b6001600160601b03166020830152565b600862000a14565b62000195612710620005f3565b6200019560016200041456fe60806040526004361015610011575f80fd5b5f3560e01c806301ffc9a714610340578063051bcd691461033b57806306fdde0314610336578063081812fc14610331578063095ea7b31461032c5780630a887cda146103275780630c3f6acf1461032257806318160ddd1461031d5780631dee5cd91461031857806322ad06701461031357806323b872dd1461030e578063271047bc146103095780632a55205a1461030457806342842e0e146102ff57806347992844146102fa5780634c261247146102f557806351e75e8b146102f057806354214f69146102eb5780635a23dd99146102e65780635bbb2177146102e15780636352211e146102dc57806370a08231146102d7578063715018a6146102d2578063763f8d12146102cd5780638462151c146102c8578063853828b6146102c357806385660e00146102be5780638b7afe2e146102b95780638da5cb5b146102b45780638ecff037146102af57806391245736146102aa57806395d89b41146102a55780639845047b146102a057806399a2557a1461029b5780639b398f8414610296578063a22cb46514610291578063a8550e7e1461028c578063b00741cb14610287578063b3ab66b014610282578063b88d4fde1461027d578063c19d93fb14610278578063c23dc68f14610273578063c87b56dd1461026e578063db4bfb6414610269578063dbddb26a14610264578063e0cad9b11461025f578063e985e9c51461025a578063f2fde38b14610255578063f413889714610250578063f47c84c51461024b5763fa26035503610370576112c9565b611290565b611257565b61123f565b611223565b6111c7565b6111ac565b611025565b61100a565b610fe3565b610f73565b610f50565b610eed565b610ed5565b610e9c565b610e83565b610e30565b610e14565b610db4565b610d99565b610d60565b610d45565b610cf3565b610cd8565b610c9f565b610c87565b610c60565b610bd9565b610bc1565b610ba6565b610b8b565b610b63565b610a74565b610a42565b6109e4565b6109cc565b61093b565b6107f4565b6107c5565b610766565b610752565b610709565b6106d0565b6106a5565b61067e565b610602565b61057f565b61051a565b6104cc565b610426565b61039e565b7fffffffff0000000000000000000000000000000000000000000000000000000081165b0361037057565b5f80fd5b9050359061038182610345565b565b906020828203126103705761039791610374565b90565b9052565b34610370576103cc6103b96103b4366004610383565b6117f5565b6040515b91829182901515815260200190565b0390f35b73ffffffffffffffffffffffffffffffffffffffff1690565b73ffffffffffffffffffffffffffffffffffffffff8116610369565b90503590610381826103e9565b906020828203126103705761039791610405565b34610370576103cc61044161043c366004610412565b612b82565b6040519182918263ffffffff909116815260200190565b5f91031261037057565b5f5b8381106104735750505f910152565b8181015183820152602001610464565b6104a46104ad6020936104b793610498815190565b80835293849260200190565b95869101610462565b601f01601f191690565b0190565b602080825261039792910190610483565b34610370576104dc366004610458565b6103cc6104e7612e76565b604051918291826104bb565b80610369565b90503590610381826104f3565b9060208282031261037057610397916104f9565b34610370576103cc610535610530366004610506565b613056565b6040519182918273ffffffffffffffffffffffffffffffffffffffff909116815260200190565b919060408382031261037057610397906105768185610405565b936020016104f9565b61059361058d36600461055c565b90612f8e565b604051005b909182601f830112156103705781359167ffffffffffffffff831161037057602001926020830284011161037057565b919091604081840312610370576105df83826104f9565b92602082013567ffffffffffffffff8111610370576105fe9201610598565b9091565b6105936106103660046105c8565b91611f6b565b7f4e487b71000000000000000000000000000000000000000000000000000000005f52602160045260245ffd5b6003111561064d57565b610616565b9061038182610643565b61039790610652565b61039a9061065c565b6020810192916103819190610665565b346103705761068e366004610458565b6103cc610699612bde565b6040519182918261066e565b34610370576106b5366004610458565b6103cc6106c0612c06565b6040519182918290815260200190565b34610370576106e0366004610458565b6103cc7f00000000000000000000000000000000000000000000000000000000000000006106c0565b346103705761059361071c36600461055c565b90611d49565b90916060828403126103705761039761073b8484610405565b936107498160208601610405565b936040016104f9565b610593610760366004610722565b9161319f565b34610370576103cc61044161077c366004610412565b612b53565b9190604083820312610370576103979061057681856104f9565b73ffffffffffffffffffffffffffffffffffffffff90911681526040810192916103819160200152565b34610370576107de6107d8366004610781565b90611708565b906103cc6107eb60405190565b9283928361079b565b610593610802366004610722565b9161344e565b7f4e487b71000000000000000000000000000000000000000000000000000000005f52604160045260245ffd5b90601f01601f1916810190811067ffffffffffffffff82111761085757604052565b610808565b9061038161086960405190565b9283610835565b67ffffffffffffffff811161085757602090601f01601f19160190565b9061089f61089a83610870565b61085c565b918252565b6108ae604361088d565b7f697066733a2f2f6261667962656967356d6269696e69726e6464366d34336c3260208201527f6e6f3261343677636e6e7369686f64346f6f32687a6f6972356679786b6c777560408201527f63692f0000000000000000000000000000000000000000000000000000000000606082015290565b6103976108a4565b610397610923565b61039761092b565b346103705761094b366004610458565b6103cc6104e7610933565b90825f939282370152565b9092919261097161089a82610870565b938185526020850190828401116103705761038192610956565b9080601f830112156103705781602061039793359101610961565b9060208282031261037057813567ffffffffffffffff811161037057610397920161098b565b34610370576105936109df3660046109a6565b611b33565b34610370576109f4366004610458565b6103cc7f00000000000000000000000000000000000000000000000000000000000000006106c0565b610397916008021c5b60ff1690565b906103979154610a1d565b6103975f600d610a2c565b3461037057610a52366004610458565b6103cc6103b9610a37565b919091604081840312610370576105df8382610405565b34610370576103cc6103b9610a8a366004610a5d565b916129ea565b9060208282031261037057813567ffffffffffffffff8111610370576105fe9201610598565b90610ad6610acf610ac5845190565b8084529260200190565b9260200190565b905f5b818110610ae65750505090565b909192610b4a610b436001928651805173ffffffffffffffffffffffffffffffffffffffff16825260208082015167ffffffffffffffff169083015260408082015115159083015260609081015162ffffff169082015260800190565b9460200190565b929101610ad9565b602080825261039792910190610ab6565b34610370576103cc610b7f610b79366004610a90565b90613a1f565b60405191829182610b52565b34610370576103cc610535610ba1366004610506565b612e8a565b34610370576103cc6106c0610bbc366004610412565b612c4d565b3461037057610bd1366004610458565b610593611356565b3461037057610be9366004610458565b6103cc7f00000000000000000000000000000000000000000000000000000000000000006106c0565b90610c21610acf610ac5845190565b905f5b818110610c315750505090565b909192610c47610b436001928651815260200190565b929101610c24565b602080825261039792910190610c12565b34610370576103cc610c7b610c76366004610412565b613c9f565b60405191829182610c4f565b3461037057610c97366004610458565b610593612246565b3461037057610caf366004610458565b6103cc7f0000000000000000000000000000000000000000000000000000000000000000610535565b3461037057610ce8366004610458565b6103cc6106c0612be8565b3461037057610d03366004610458565b6103cc610535611315565b610397916008021c73ffffffffffffffffffffffffffffffffffffffff1690565b906103979154610d0e565b6103975f600b610d2f565b3461037057610d55366004610458565b6103cc610535610d3a565b3461037057610d70366004610458565b6103cc7f00000000000000000000000000000000000000000000000000000000000000006106c0565b3461037057610da9366004610458565b6103cc6104e7612e80565b3461037057610dc4366004610458565b6103cc7f0000000000000000000000000000000000000000000000000000000000000000610535565b909160608284031261037057610397610e068484610405565b9361074981602086016104f9565b34610370576103cc610c7b610e2a366004610ded565b91613a8f565b34610370576103cc6106c0610e46366004610412565b612bb0565b801515610369565b9050359061038182610e4b565b91906040838203126103705761039790610e7a8185610405565b93602001610e53565b3461037057610593610e96366004610e60565b906130a6565b3461037057610eac366004610458565b6103cc7f00000000000000000000000000000000000000000000000000000000000000006106c0565b3461037057610593610ee8366004610506565b611c62565b610593610efb366004610506565b612150565b9060808282031261037057610f158183610405565b92610f238260208501610405565b92610f3183604083016104f9565b92606082013567ffffffffffffffff811161037057610397920161098b565b610593610f5e366004610f00565b9291909161345e565b6103976014600a610a2c565b3461037057610f83366004610458565b6103cc610699610f67565b6080810192916103819190805173ffffffffffffffffffffffffffffffffffffffff16825260208082015167ffffffffffffffff169083015260408082015115159083015260609081015162ffffff16910152565b34610370576103cc610ffe610ff9366004610506565b61386a565b60405191829182610f8e565b34610370576103cc6104e7611020366004610506565b61256e565b3461037057611035366004610458565b6103cc7f00000000000000000000000000000000000000000000000000000000000000006106c0565b7f4e487b71000000000000000000000000000000000000000000000000000000005f525f60045260245ffd5b7f4e487b71000000000000000000000000000000000000000000000000000000005f52602260045260245ffd5b90600160028304921680156110d7575b60208310146110d257565b61108a565b91607f16916110c7565b80545f9392916110fd6110f3836110b7565b8085529360200190565b916001811690811561114c575060011461111657505050565b61112791929394505f5260205f2090565b915f925b8184106111385750500190565b80548484015260209093019260010161112b565b92949550505060ff1916825215156020020190565b90610397916110e1565b906103816111859261117c60405190565b93848092611161565b0383610835565b905f1061119c576103979061116b565b61105e565b6103975f600c61118c565b34610370576111bc366004610458565b6103cc6104e76111a1565b34610370576111d7366004610458565b6103cc7f0000000000000000000000000000000000000000000000000000000000000000610535565b9190604083820312610370576103979061121a8185610405565b93602001610405565b34610370576103cc6103b9611239366004611200565b90612914565b3461037057610593611252366004610412565b6114d1565b3461037057611267366004610458565b6103cc7f00000000000000000000000000000000000000000000000000000000000000006106c0565b34610370576112a0366004610458565b6103cc7f00000000000000000000000000000000000000000000000000000000000000006106c0565b34610370576112d9366004610458565b6103cc7f00000000000000000000000000000000000000000000000000000000000000006106c0565b610397906103d0565b6103979054611302565b610397600a61130b565b6113276113cc565b610381611345565b6103d06103976103979290565b6103979061132f565b6103816113515f61133c565b61154c565b61038161131f565b1561136557565b6040517f08c379a0000000000000000000000000000000000000000000000000000000008152806113c8600482016020808252818101527f4f776e61626c653a2063616c6c6572206973206e6f7420746865206f776e6572604082015260600190565b0390fd5b6103816113d7611315565b6113fd6113e3336103d0565b9173ffffffffffffffffffffffffffffffffffffffff1690565b1461135e565b6103819061140f6113cc565b6114a0565b1561141b57565b6040517f08c379a000000000000000000000000000000000000000000000000000000000815260206004820152602660248201527f4f776e61626c653a206e6577206f776e657220697320746865207a65726f206160448201527f64647265737300000000000000000000000000000000000000000000000000006064820152608490fd5b610381906113516114b36103d05f61133c565b73ffffffffffffffffffffffffffffffffffffffff83161415611414565b61038190611403565b9073ffffffffffffffffffffffffffffffffffffffff905b9181191691161790565b6103d06103976103979273ffffffffffffffffffffffffffffffffffffffff1690565b610397906114fc565b6103979061151f565b9061154161039761154892611528565b82546114da565b9055565b611556600a61130b565b9061156281600a611531565b61159561158f7f8be0079c531659141344cd1fd0a4f28419497f9722a3daafe3b4186f6b6457e093611528565b91611528565b9161159f60405190565b80805b0390a3565b6103976103976103979290565b906115be906115a7565b5f5260205260405f2090565b6103979060a01c5b6bffffffffffffffffffffffff1690565b61039790546115ca565b610397604061085c565b906103816116385f6116076115ed565b9461163261161683830161130b565b73ffffffffffffffffffffffffffffffffffffffff1687840152565b016115e3565b6bffffffffffffffffffffffff166020840152565b610397906115f7565b610397610397610397926bffffffffffffffffffffffff1690565b7f4e487b71000000000000000000000000000000000000000000000000000000005f52601160045260245ffd5b91906116a9565b9290565b918083029281840414901517156116bc57565b611671565b7f4e487b71000000000000000000000000000000000000000000000000000000005f52601260045260245ffd5b906116f8565b9190565b908115611703570490565b6116c1565b611721611726919392936117195f90565b5060096115b4565b61164d565b91611745835173ffffffffffffffffffffffffffffffffffffffff1690565b905f916117576113e36103d08561133c565b146117bc575b906117a061178f6116f49361178961178460208901516bffffffffffffffffffffffff1690565b611656565b9061169e565b61179a6117846117ea565b906116ee565b93015173ffffffffffffffffffffffffffffffffffffffff1690565b92506116f4906117a061178f6117d2600861164d565b95929350505061175d565b6115d26103976103979290565b6103976127106117dd565b6117fe81612ddf565b908115611809575090565b61039791507f2a55205a000000000000000000000000000000000000000000000000000000007fffffffff0000000000000000000000000000000000000000000000000000000082161490811561185e575090565b61039791506118ae7f01ffc9a7000000000000000000000000000000000000000000000000000000005b917fffffffff000000000000000000000000000000000000000000000000000000001690565b1490565b610381906118be6113cc565b611a89565b6103979060a01c610a26565b61039790546118c3565b61039790610a26565b61039790546118d9565b9060ff906114f2565b9061190561039761154892151590565b82546118ec565b919060086114f29102916119205f19841b90565b921b90565b9190611936610397611548936115a7565b90835461190c565b610381915f91611925565b818110611954575050565b806119615f60019361193e565b01611949565b9190601f811161197657505050565b611986610381935f5260205f2090565b906020601f8401819004830193106119a8575b6020601f909101040190611949565b9091508190611999565b906119bb815190565b9067ffffffffffffffff8211610857576119df826119d985546110b7565b85611967565b602090601f8311600114611a185761154892915f9183611a0d575b50505f19600883021c1916906002021790565b015190505f806119fa565b601f19831691611a2b855f5260205f2090565b925f5b818110611a6757509160029391856001969410611a4f575b50505002019055565b01515f196008601f8516021c191690555f8080611a46565b91936020600181928787015181550195019201611a2e565b90610381916119b2565b611a93600a6118cf565b611aa6611aa06002610652565b91610652565b14611ad6576040517fede69771000000000000000000000000000000000000000000000000000000008152600490fd5b611ae0600d6118e2565b611aec60015b91151590565b14611b085761038190611b016001600d6118f5565b600c611a7f565b6040517fa89ac151000000000000000000000000000000000000000000000000000000008152600490fd5b610381906118b2565b61038190611b486113cc565b611b84565b9074ff00000000000000000000000000000000000000009060a01b6114f2565b90611b7d6103976115489261065c565b8254611b4d565b611b8c612c06565b7f000000000000000000000000000000000000000000000000000000000000000011611c37575f611bbc816115a7565b8203611bce576103819150600a611b6d565b506001611bda816115a7565b8203611bec576103819150600a611b6d565b50600290611bfc6116f4836115a7565b03611c0c5761038190600a611b6d565b6040517fb4fa3fb3000000000000000000000000000000000000000000000000000000008152600490fd5b6040517fec2c6727000000000000000000000000000000000000000000000000000000008152600490fd5b61038190611b3c565b9061038191611c786113cc565b611cb9565b919082018092116116bc57565b611c976103976103979290565b63ffffffff1690565b63ffffffff9081169116019063ffffffff82116116bc57565b90611ccb81611cc6612c06565b611c7d565b7f000000000000000000000000000000000000000000000000000000000000000010611d1e5781611d19611d13611d0461038195612b53565b611d0d85611c8a565b90611ca0565b826122e1565b613611565b6040517fca586aa8000000000000000000000000000000000000000000000000000000008152600490fd5b9061038191611c6b565b9190611d67611d638383336129ea565b1590565b611d745761038192611db2565b6040517f48df50e8000000000000000000000000000000000000000000000000000000008152600490fd5b6103976103976103979263ffffffff1690565b915050611dbf600a6118cf565b611dcc611aa06001610652565b14611dfc576040517f5b77ceac000000000000000000000000000000000000000000000000000000008152600490fd5b611e0881611cc6612c06565b611e586116f46103977f00000000000000000000000000000000000000000000000000000000000000007f0000000000000000000000000000000000000000000000000000000000000000611c7d565b1115611e89576040517fde42be6c000000000000000000000000000000000000000000000000000000008152600490fd5b611e9e81611cc6611e9933612b82565b611d9f565b7f00000000000000000000000000000000000000000000000000000000000000001015611ef0576040517f37ac80a2000000000000000000000000000000000000000000000000000000008152600490fd5b34611f216116f46103977f00000000000000000000000000000000000000000000000000000000000000008561169e565b10611f40576103819033611d19611f3a611d0483612b82565b82612346565b6040517f6a12f104000000000000000000000000000000000000000000000000000000008152600490fd5b906103819291611d53565b33611f80326113e3565b03611f8e5761038190611fb9565b6040517fea8370b0000000000000000000000000000000000000000000000000000000008152600490fd5b611fc3600a6118cf565b611fd0611aa06002610652565b14612000576040517faf1fd675000000000000000000000000000000000000000000000000000000008152600490fd5b7f0000000000000000000000000000000000000000000000000000000000000000811115612053576040517f6b350169000000000000000000000000000000000000000000000000000000008152600490fd5b61205f81611cc6612c06565b7f000000000000000000000000000000000000000000000000000000000000000010156120b1576040517f8a164f63000000000000000000000000000000000000000000000000000000008152600490fd5b6120be81611cc633612bb0565b7f00000000000000000000000000000000000000000000000000000000000000001015612110576040517f2fa72bd8000000000000000000000000000000000000000000000000000000008152600490fd5b346121416116f46103977f00000000000000000000000000000000000000000000000000000000000000008561169e565b10611f40576103819033613611565b61038190611f76565b6121616113cc565b610381612170565b1561037057565b61217930611528565b5f61221c823161219261218b846115a7565b8211612169565b6121de7f00000000000000000000000000000000000000000000000000000000000000006121e46121cd6121c76103b66115a7565b8561169e565b916121de6103e89361179a856115a7565b9061226c565b61179a6122167f00000000000000000000000000000000000000000000000000000000000000009461178960326115a7565b916115a7565b61222a6116f48331926115a7565b116122325750565b6103819061223e611315565b90319061226c565b610381612159565b3d156122675761225d3d61088d565b903d5f602084013e565b606090565b5f80916122909361227c60405190565b90818003925af161228b61224e565b501590565b61229657565b6040517f90b8ec18000000000000000000000000000000000000000000000000000000008152600490fd5b6122d46103976103979263ffffffff1690565b67ffffffffffffffff1690565b6122ed610381926122c1565b90612d68565b610397906123046116f46103979490565b901b90565b6122d46103976103979290565b6123339067ffffffffffffffff165b9167ffffffffffffffff1690565b019067ffffffffffffffff82116116bc57565b6122ed61237061236b6103819461236661236060206115a7565b91611d9f565b6122f3565b612309565b61238161237c84612b53565b6122c1565b90612316565b1561238e57565b6040517f08c379a000000000000000000000000000000000000000000000000000000000815260206004820152602f60248201527f4552433732314d657461646174613a2055524920717565727920666f72206e6f60448201527f6e6578697374656e7420746f6b656e00000000000000000000000000000000006064820152608490fd5b61039790546110b7565b6103975f61088d565b61039761241d565b80545f939291612444612440836110b7565b9390565b9160018116908115612492575060011461245d57505050565b61246e91929394505f5260205f2090565b5f905b83821061247e5750500190565b600181602092548486015201910190612471565b7fffffffffffffffffffffffffffffffffffffffffffffffffffffffffffffff001683525050811515909102019150565b6124d36124fc916103979361242e565b7f68696464656e0000000000000000000000000000000000000000000000000000815260060190565b7f2e6a736f6e000000000000000000000000000000000000000000000000000000815260050190565b6104b761253d92602092612537815190565b94859290565b93849101610462565b91612557610397936124fc9361242e565b90612525565b91612557610397936124fc93612525565b61257f61257a82613123565b612387565b7f00000000000000000000000000000000000000000000000000000000000000008111612612576125b86125b461039761092b565b5190565b6125c46116f45f6115a7565b1115612609576125fd610397610397926125e56125df61092b565b916126e0565b906125ef60405190565b93849260208401928361255d565b90810382520382610835565b50610397612426565b61261c600d6118e2565b5f9061262782611ae6565b1461267f57600c906126446116f461263e84612413565b926115a7565b1115612675576103976125fd9161265d610397946126e0565b9061266760405190565b938492602084019283612546565b5050610397612426565b600c91506126926116f461263e84612413565b111561260957610397906103976126a860405190565b80926125fd6020830191826124c3565b369037565b906103816126d36126cd8461088d565b93610870565b601f1901602084016126b8565b6126e981612771565b906126f96001926104b7846115a7565b9180612704846126bd565b936020018401905b612717575b50505090565b612751905f1901927f3031323334353637383961626364656600000000000000000000000000000000600a82061a845361179a600a6115a7565b908161275f6116f45f6115a7565b1461276c5790918161270c565b612711565b61277a5f6115a7565b907a184f03e93ff9f4daa797ed6e38ed64bf6a1f0100000000000000006127a0816115a7565b8210156128f2575b506d04ee2d6d415b85acef81000000006127c1816115a7565b8210156128d0575b50662386f26fc100006127db816115a7565b8210156128ae575b506305f5e1006127f2816115a7565b82101561288c575b50612710612807816115a7565b82101561286a575b50606461281b816115a7565b821015612848575b506128316116f4600a6115a7565b101561283a5790565b610397906104b760016115a7565b6128639161179a612858926115a7565b916104b760026115a7565b905f612823565b6128859161179a61287a926115a7565b916104b760046115a7565b905f61280f565b6128a79161179a61289c926115a7565b916104b760086115a7565b905f6127fa565b6128c99161179a6128be926115a7565b916104b760106115a7565b905f6127e3565b6128eb9161179a6128e0926115a7565b916104b760206115a7565b905f6127c9565b61290d9161179a612902926115a7565b916104b760406115a7565b905f6127a8565b906129226103d0600b61130b565b73ffffffffffffffffffffffffffffffffffffffff8216146129475761039791613104565b5050600190565b61039a9073ffffffffffffffffffffffffffffffffffffffff1660601b90565b6104b78160149361294e565b67ffffffffffffffff81116108575760208091020190565b909291926129a261089a8261297a565b938185526020808601920283019281841161037057915b8383106129c65750505050565b602080916129d484866104f9565b8152019201916129b9565b610397913691612992565b90612a5261039793926129fa5f90565b50612a17612a0760405190565b80926125fd60208301918261296e565b612a29612a22825190565b9160200190565b20927f0000000000000000000000000000000000000000000000000000000000000000926129df565b6116a56118ae92936116f492612a655f90565b50612ac5565b5f1981146116bc5760010190565b7f4e487b71000000000000000000000000000000000000000000000000000000005f52603260045260245ffd5b90612aaf825190565b811015612ac0576020809102010190565b612a79565b612ace5f6115a7565b915b612adb610397835190565b831015612b0d57612b01612b0791612afb612af68686612aa6565b6125b4565b90612b13565b92612a6b565b91612ad0565b91505090565b81811015612b2c5790610397915f5260205260405f2090565b610397915f5260205260405f2090565b611c976103976103979267ffffffffffffffff1690565b612b6761039791612b615f90565b50612d0b565b612b3c565b6122d490612b7d6123256103979490565b901c90565b612b67612b9361039792612b615f90565b612b9d60206115a7565b90612b6c565b919082039182116116bc57565b61039790612bd2611e99612bd8612bc684612cda565b612bd2611e9986612b53565b90612ba3565b92612b82565b610397600a6118cf565b612bf130611528565b3190565b6103979081565b6103979054612bf5565b610397612c24612c155f612bfc565b612c1f6001612bfc565b900390565b612c1f5b61039760016115a7565b906115be90611528565b61039767ffffffffffffffff6115a7565b612c596103d05f61133c565b73ffffffffffffffffffffffffffffffffffffffff821614612c9457612c83612c88916005612c32565b612bfc565b612c90612c3c565b1690565b6040517f8f4eb604000000000000000000000000000000000000000000000000000000008152600490fd5b61039760406115a7565b61039790612b7d6116f46103979490565b612cf3612c83612c8892612ceb5f90565b506005612c32565b612cfb612cbf565b90612cc9565b61039760c06115a7565b61236b612d1f612c8361039793612ceb5f90565b612cfb612d01565b61039777ffffffffffffffffffffffffffffffffffffffffffffffff6115a7565b905f19906114f2565b90612d61610397611548926115a7565b8254612d48565b90612da261038192600592612d9b612d83612c838487612c32565b612d8b612d27565b1691612d95612d01565b906122f3565b1792612c32565b612d51565b612dba612db46103979290565b60e01b90565b7fffffffff000000000000000000000000000000000000000000000000000000001690565b612dec6301ffc9a7612da7565b7fffffffff00000000000000000000000000000000000000000000000000000000821614908115612e34575b8115612e22575090565b90506118ae611888635b5e139f612da7565b9050612e436380ac58cd612da7565b7fffffffff0000000000000000000000000000000000000000000000000000000082161490612e18565b6103979061116b565b6103976002612e6d565b6103976003612e6d565b612ea6612ea161039792612e9b5f90565b50612ed1565b61132f565b61151f565b6103977c01000000000000000000000000000000000000000000000000000000006115a7565b908190612edc612c28565b831015612f0f575b6040517fdf2d9b42000000000000000000000000000000000000000000000000000000008152600490fd5b612f1b6103975f612bfc565b831015612ee457612f31612c83600494856115b4565b80612f3a612eab565b165f90612f496116f4836115a7565b14612f55575050612ee4565b92905b612f61846115a7565b8103612f8657505f190191612f61612f7c612c8385876115b4565b9193919050612f58565b925050915090565b90612f9881612e8a565b913373ffffffffffffffffffffffffffffffffffffffff84168103613014575b50612fcf815f612fc98560066115b4565b01611531565b61300561263e612fff7f8c5be1e5ebec7d5bd14f71427d1e84f3dd0314c0f7b2291e5b200ac8c7c3b92595611528565b92611528565b9261300f60405190565b5f90a4565b611d636130219185612914565b61302b575f612fb8565b6040517fcfb3b942000000000000000000000000000000000000000000000000000000008152600490fd5b613062611d6382613123565b61307b575f6130756103979260066115b4565b0161130b565b6040517fcf4700e4000000000000000000000000000000000000000000000000000000008152600490fd5b336130c4836130bf846130ba856007612c32565b612c32565b6118f5565b6115a26130fa6130f47f17307eab39ab6107e8899845ad3d59bd9653f200f220920489ca2b5937696c3193611528565b93611528565b936103bd60405190565b610397916130ba61311e926131165f90565b506007612c32565b6118e2565b61312b612c28565b8110159081613163575b8161313e575090565b61314e9150612c839060046115b4565b613156612eab565b166118ae6116f45f6115a7565b90506131716103975f612bfc565b811090613135565b6103977c02000000000000000000000000000000000000000000000000000000006115a7565b91906131aa82612ed1565b6131b6612ea68261132f565b6131d573ffffffffffffffffffffffffffffffffffffffff86166113e3565b036133da576131e383613432565b909190336131f5611d63828985613405565b613398575b505f926132096103d08561133c565b73ffffffffffffffffffffffffffffffffffffffff86161461336d578391613365575b505061326e61325c8460056130ba6132448a83612c32565b61325661325082612bfc565b5f190190565b90612d51565b61325661326882612bfc565b60010190565b613276613179565b6132a76132848386896137f3565b82178573ffffffffffffffffffffffffffffffffffffffff16904260a01b171790565b906132b8600492612da288856115b4565b82166132c66116f4856115a7565b146132ff575b50505061300561263e612fff7fddf252ad1be2c89b69c2b068fc378daa952ba7f163c4a11628f55a4df523b3ef95611528565b61331161330c60016115a7565b860190565b9261331f612c8385846115b4565b61332b6116f4836115a7565b14613337575b506132cc565b61039761334391612bfc565b8303613350575b80613331565b61335d92612da2916115b4565b5f808061334a565b55815f61322c565b6040517fea553b34000000000000000000000000000000000000000000000000000000008152600490fd5b611d636133a59188612914565b6133af575f6131fa565b6040517f59c896be000000000000000000000000000000000000000000000000000000008152600490fd5b6040517fa1148100000000000000000000000000000000000000000000000000000000008152600490fd5b919073ffffffffffffffffffffffffffffffffffffffff80916134255f90565b5016911691821491141790565b610397613448916134405f90565b5060066115b4565b90815490565b90916103819261345c612426565b925b9192909261346d81858561319f565b833b61347b6116f45f6115a7565b03613487575b50505050565b61349493611d639361353f565b6134a1575f808080613481565b6040515b7fd1a57ed6000000000000000000000000000000000000000000000000000000008152600490fd5b9050519061038182610345565b9060208282031261037057610397916134cd565b73ffffffffffffffffffffffffffffffffffffffff918216815291166020820152604081019190915260806060820181905261039792910190610483565b612dba612db46103979263ffffffff1690565b909392916020906135586135535f97611528565b611528565b63150b7a02935f3361358861356c60405190565b9889968795869461357d8c60e01b90565b8652600486016134ee565b03925af15f92816135e1575b506135ce57505060016135a357565b6135ab61224e565b80516135b96116f45f6115a7565b036135c6576040516134a5565b805190602001fd5b6118ae91929350612dba6118889161352c565b61360391935060203d811161360a575b6135fb8183610835565b8101906134da565b915f613594565b503d6135f1565b91909161361d5f612bfc565b925f90613629826115a7565b811461379757846136eb849273ffffffffffffffffffffffffffffffffffffffff600192839261368e61367661365d612cbf565b613670613669886115a7565b91826122f3565b17830290565b6132566136848a6005612c32565b916104b783612bfc565b6136e66136da6001831460e11b6136b86136a78c61133c565b6136b08d6115a7565b9b8c916137f3565b178b73ffffffffffffffffffffffffffffffffffffffff16904260a01b171790565b612da260049d8e6115b4565b850190565b9616928084877fddf252ad1be2c89b69c2b068fc378daa952ba7f163c4a11628f55a4df523b3ef8180a4015b8581036137685750501461373057610381929350612d51565b6113c88461373d60405190565b7f2e076300000000000000000000000000000000000000000000000000000000008152918291820190565b80829184877fddf252ad1be2c89b69c2b068fc378daa952ba7f163c4a11628f55a4df523b3ef8180a401613717565b6040517fb562e8dd000000000000000000000000000000000000000000000000000000008152600490fd5b61039760e86115a7565b6137d96103976103979290565b62ffffff1690565b6103976103976103979262ffffff1690565b6138276123669161039794936138065f90565b5061382161381c6138156137c2565b8097612cc9565b6137cc565b9161382c565b6137e1565b5050506103975f90565b610397608061085c565b613848613836565b5f8082526020820181905260408201819052606082015290565b610397613840565b613872613862565b5061387b613862565b613886610397612c28565b821080156138c2575b6138bd575061389d816138f3565b906138ab6040830151151590565b6138b95761039791506138df565b5090565b905090565b506138ce6103976138d6565b82101561388f565b6103975f612bfc565b6138ee61039791612e9b613862565b613917565b6138ee612c8361039792613905613862565b5060046115b4565b61039760a06115a7565b90610381613923613862565b60606139a861381c839661395661393c612ea68361132f565b73ffffffffffffffffffffffffffffffffffffffff168652565b61397e61396d61236b61396761390d565b84612cc9565b67ffffffffffffffff166020870152565b6139a0613989612eab565b82166139976116f45f6115a7565b14156040870152565b612cfb6137c2565b62ffffff16910152565b9061089f61089a8361297a565b5f5b8281106139cd57505050565b6020906139d8613862565b81840152016139c1565b906103816139f86139f2846139b2565b9361297a565b601f1901602084016139bf565b9190811015612ac0576020020190565b35610397816104f3565b91908092613a2c846139e2565b925f5b855b8114613a7757613a7081613a54610ff9613a4f613a31958989613a05565b613a15565b613a5e8289612aa6565b52613a698188612aa6565b5060010190565b9050613a2f565b509350505090565b906103816126d36139f2846139b2565b9082811015613c74575f91613aa26138d6565b613aaa612c28565b808410613c6c575b50808511613c64575b50613ac581612c4d565b84831015613c5557828503818110613c4d575b505b613ae381613a7f565b955f91613aef836115a7565b8114613c4457613afe8561386a565b945f95613b11611d636040830151151590565b613c21575b505b875b81141580613c17575b15613c0a5783613b32826138f3565b6040810151613bfb5701805173ffffffffffffffffffffffffffffffffffffffff16613b636113e36103d08861133c565b03613bdc575b508873ffffffffffffffffffffffffffffffffffffffff861673ffffffffffffffffffffffffffffffffffffffff881614613baf575b50613b1a906001015b9050613b18565b9681613bd3613b1a93613bd084613bca613ba8969160010190565b9c612aa6565b52565b91505088613b9f565b5173ffffffffffffffffffffffffffffffffffffffff1695505f613b69565b5050613ba8613b1a9160010190565b5050959450505050815290565b5081871415613b23565b84015173ffffffffffffffffffffffffffffffffffffffff169550613b1a613b16565b50945050505050565b90505f613ad8565b50613c5f5f6115a7565b613ada565b93505f613abb565b92505f613ab2565b6040517f32c1995a000000000000000000000000000000000000000000000000000000008152600490fd5b5f80613caa83612c4d565b92613cb484613a7f565b94613cbd613862565b50613cc6612c28565b855b8514613da357613cd7816138f3565b6040810151613d9657805173ffffffffffffffffffffffffffffffffffffffff16905f91613d0a6113e36103d08561133c565b03613d71575b5050613d58613cc891613d368573ffffffffffffffffffffffffffffffffffffffff1690565b73ffffffffffffffffffffffffffffffffffffffff871614613d5f5760010190565b9050613cc6565b61326881613bd060018a01998c612aa6565b015173ffffffffffffffffffffffffffffffffffffffff169350613d58613cc8613d10565b50613cc890600101613d58565b50935050505056fea26469706673582212207ad8e0126109be00672a38cbfd11449c54dc92252db6da4622d344b6d753b62e64736f6c63430008140033",
  "devdoc": {
    "events": {
      "Approval(address,address,uint256)": {
        "details": "Emitted when `owner` enables `approved` to manage the `tokenId` token."
      },
      "ApprovalForAll(address,address,bool)": {
        "details": "Emitted when `owner` enables or disables (`approved`) `operator` to manage all of its assets."
      },
      "ConsecutiveTransfer(uint256,uint256,address,address)": {
        "details": "Emitted when tokens in `fromTokenId` to `toTokenId` (inclusive) is transferred from `from` to `to`, as defined in the [ERC2309](https://eips.ethereum.org/EIPS/eip-2309) standard. See {_mintERC2309} for more details."
      },
      "Transfer(address,address,uint256)": {
        "details": "Emitted when `tokenId` token is transferred from `from` to `to`."
      }
    },
    "kind": "dev",
    "methods": {
      "airdropMint(address,uint256)": {
        "details": "caller is owner but minter is '_to''_setAirdropMintCounter' increases number of minted tokens of owner in airdrop mint as auxiliary data",
        "params": {
          "_amount": "token amount of airdrop",
          "_to": "airdrop recipient"
        }
      },
      "approve(address,uint256)": {
        "details": "Gives permission to `to` to transfer `tokenId` token to another account. The approval is cleared when the token is transferred. Only a single account can be approved at a time, so approving the zero address clears previous approvals. Requirements: - The caller must own the token or be an approved operator. - `tokenId` must exist. Emits an {Approval} event."
      },
      "balanceOf(address)": {
        "details": "Returns the number of tokens in `owner`'s account."
      },
      "changeState(uint256)": {
        "details": "airdrop phase must be finished to change the state",
        "params": {
          "_index": "index of state (0: closed, 1: whitelist, 2: public)"
        }
      },
      "explicitOwnershipOf(uint256)": {
        "details": "Returns the `TokenOwnership` struct at `tokenId` without reverting. If the `tokenId` is out of bounds: - `addr = address(0)` - `startTimestamp = 0` - `burned = false` - `extraData = 0` If the `tokenId` is burned: - `addr = <Address of owner before token was burned>` - `startTimestamp = <Timestamp when token was burned>` - `burned = true` - `extraData = <Extra data when token was burned>` Otherwise: - `addr = <Address of owner>` - `startTimestamp = <Timestamp of start of ownership>` - `burned = false` - `extraData = <Extra data at start of ownership>`"
      },
      "explicitOwnershipsOf(uint256[])": {
        "details": "Returns an array of `TokenOwnership` structs at `tokenIds` in order. See {ERC721AQueryable-explicitOwnershipOf}"
      },
      "getAirdropMintCounter(address)": {
        "details": "returns [0..31] bits of '_auxData' ([192..223] bits of '_packedAddressData')",
        "params": {
          "_account": "querying address"
        }
      },
      "getApproved(uint256)": {
        "details": "Returns the account approved for `tokenId` token. Requirements: - `tokenId` must exist."
      },
      "getPublicMintCounter(address)": {
        "details": "(total minted) - (minted in whitelist sale) - (minted in airdrop)"
      },
      "getWhitelistMintCounter(address)": {
        "details": "returns [32..63] bits of '_auxData' ([224..255] bits of '_packedAddressData')",
        "params": {
          "_account": "querying address"
        }
      },
      "isApprovedForAll(address,address)": {
        "details": "inherits from ERC721A and bypass approval requests from rarible",
        "returns": {
          "_0": "true if the operator is rarible"
        }
      },
      "name()": {
        "details": "Returns the token collection name."
      },
      "owner()": {
        "details": "Returns the address of the current owner."
      },
      "ownerOf(uint256)": {
        "details": "Returns the owner of the `tokenId` token. Requirements: - `tokenId` must exist."
      },
      "publicSaleMint(uint256)": {
        "params": {
          "_amount": "token amount to mint"
        }
      },
      "renounceOwnership()": {
        "details": "Leaves the contract without owner. It will not be possible to call `onlyOwner` functions. Can only be called by the current owner. NOTE: Renouncing ownership will leave the contract without an owner, thereby disabling any functionality that is only available to the owner."
      },
      "reveal(string)": {
        "params": {
          "_newBaseUri": "actual URI"
        }
      },
      "royaltyInfo(uint256,uint256)": {
        "details": "Returns how much royalty is owed and to whom, based on a sale price that may be denominated in any unit of exchange. The royalty amount is denominated and should be paid in that same unit of exchange."
      },
      "safeTransferFrom(address,address,uint256)": {
        "details": "Equivalent to `safeTransferFrom(from, to, tokenId, '')`."
      },
      "safeTransferFrom(address,address,uint256,bytes)": {
        "details": "Safely transfers `tokenId` token from `from` to `to`. Requirements: - `from` cannot be the zero address. - `to` cannot be the zero address. - `tokenId` token must exist and be owned by `from`. - If the caller is not `from`, it must be approved to move this token by either {approve} or {setApprovalForAll}. - If `to` refers to a smart contract, it must implement {IERC721Receiver-onERC721Received}, which is called upon a safe transfer. Emits a {Transfer} event."
      },
      "setApprovalForAll(address,bool)": {
        "details": "Approve or remove `operator` as an operator for the caller. Operators can call {transferFrom} or {safeTransferFrom} for any token owned by the caller. Requirements: - The `operator` cannot be the caller. Emits an {ApprovalForAll} event."
      },
      "symbol()": {
        "details": "Returns the token collection symbol."
      },
      "tokenURI(uint256)": {
        "params": {
          "_tokenId": "querying token id"
        },
        "returns": {
          "_0": "token URI"
        }
      },
      "tokensOfOwner(address)": {
        "details": "Returns an array of token IDs owned by `owner`. This function scans the ownership mapping and is O(`totalSupply`) in complexity. It is meant to be called off-chain. See {ERC721AQueryable-tokensOfOwnerIn} for splitting the scan into multiple smaller scans if the collection is large enough to cause an out-of-gas error (10K collections should be fine)."
      },
      "tokensOfOwnerIn(address,uint256,uint256)": {
        "details": "Returns an array of token IDs owned by `owner`, in the range [`start`, `stop`) (i.e. `start <= tokenId < stop`). This function allows for tokens to be queried if the collection grows too big for a single call of {ERC721AQueryable-tokensOfOwner}. Requirements: - `start < stop`"
      },
      "totalSupply()": {
        "details": "Returns the total number of tokens in existence. Burned tokens will reduce the count. To get the total number of tokens minted, please see {_totalMinted}."
      },
      "transferFrom(address,address,uint256)": {
        "details": "Transfers `tokenId` from `from` to `to`. Requirements: - `from` cannot be the zero address. - `to` cannot be the zero address. - `tokenId` token must be owned by `from`. - If the caller is not `from`, it must be approved to move this token by either {approve} or {setApprovalForAll}. Emits a {Transfer} event."
      },
      "transferOwnership(address)": {
        "details": "Transfers ownership of the contract to a new account (`newOwner`). Can only be called by the current owner."
      },
      "whitelistSaleMint(uint256,bytes32[])": {
        "details": "'_setWhitelistMintCounter' increases number of minted tokens of owner in whitelist sale as auxiliary data",
        "params": {
          "_amount": "token amount to mint"
        }
      },
      "withdrawAll()": {
        "details": "calls _withdraw function to withdraw assets"
      }
    },
    "version": 1
  },
  "userdoc": {
    "errors": {
      "ApprovalCallerNotOwnerNorApproved()": [
        {
          "notice": "The caller must own the token or be an approved operator."
        }
      ],
      "ApprovalQueryForNonexistentToken()": [
        {
          "notice": "The token does not exist."
        }
      ],
      "BalanceQueryForZeroAddress()": [
        {
          "notice": "Cannot query the balance for the zero address."
        }
      ],
      "InvalidQueryRange()": [
        {
          "notice": "Invalid query range (`start` >= `stop`)."
        }
      ],
      "MintERC2309QuantityExceedsLimit()": [
        {
          "notice": "The `quantity` minted with ERC2309 exceeds the safety limit."
        }
      ],
      "MintToZeroAddress()": [
        {
          "notice": "Cannot mint to the zero address."
        }
      ],
      "MintZeroQuantity()": [
        {
          "notice": "The quantity of tokens minted must be more than zero."
        }
      ],
      "OwnerQueryForNonexistentToken()": [
        {
          "notice": "The token does not exist."
        }
      ],
      "OwnershipNotInitializedForExtraData()": [
        {
          "notice": "The `extraData` cannot be set on an unintialized ownership slot."
        }
      ],
      "TransferCallerNotOwnerNorApproved()": [
        {
          "notice": "The caller must own the token or be an approved operator."
        }
      ],
      "TransferFromIncorrectOwner()": [
        {
          "notice": "The token must be owned by `from`."
        }
      ],
      "TransferToNonERC721ReceiverImplementer()": [
        {
          "notice": "Cannot safely transfer to a contract that does not implement the ERC721Receiver interface."
        }
      ],
      "TransferToZeroAddress()": [
        {
          "notice": "Cannot transfer to the zero address."
        }
      ],
      "URIQueryForNonexistentToken()": [
        {
          "notice": "The token does not exist."
        }
      ]
    },
    "kind": "user",
    "methods": {
      "airdropMint(address,uint256)": {
        "notice": "owner can mint the tokens for airdrop before sale phases"
      },
      "changeState(uint256)": {
        "notice": "owner can changes the sale state"
      },
      "constructor": {
        "notice": "state variables are defined and royalty is set in constructor"
      },
      "contractBalance()": {
        "notice": "returns contract balance"
      },
      "currentState()": {
        "notice": "returns current state of sale"
      },
      "getAirdropMintCounter(address)": {
        "notice": "returns total airdrop amount of an address"
      },
      "getPublicMintCounter(address)": {
        "notice": "returns mint amounts during public sale of addresses"
      },
      "getWhitelistMintCounter(address)": {
        "notice": "returns total airdrop amount of an address"
      },
      "isWhitelisted(address,bytes32[])": {
        "notice": "returns if an address whitelisted or not by verifying merkle proof"
      },
      "publicSaleMint(uint256)": {
        "notice": "any EOA address can mint tokens for a certain ETH within a certain limit during public sale"
      },
      "reveal(string)": {
        "notice": "owner should reveal the metadata after sale phase only for once"
      },
      "whitelistSaleMint(uint256,bytes32[])": {
        "notice": "whitelisted addressses can mint tokens for a certain ETH within a certain limit during whitelist sale"
      },
      "withdrawAll()": {
        "notice": "owner can withdraw the all balance to associated accounts at any time"
      }
    },
    "version": 1
  },
  "storageLayout": {
    "storage": [
      {
        "astId": 3441,
        "contract": "contracts/IlkelBenlik.sol:IlkelBenlik",
        "label": "_currentIndex",
        "offset": 0,
        "slot": "0",
        "type": "t_uint256"
      },
      {
        "astId": 3443,
        "contract": "contracts/IlkelBenlik.sol:IlkelBenlik",
        "label": "_burnCounter",
        "offset": 0,
        "slot": "1",
        "type": "t_uint256"
      },
      {
        "astId": 3445,
        "contract": "contracts/IlkelBenlik.sol:IlkelBenlik",
        "label": "_name",
        "offset": 0,
        "slot": "2",
        "type": "t_string_storage"
      },
      {
        "astId": 3447,
        "contract": "contracts/IlkelBenlik.sol:IlkelBenlik",
        "label": "_symbol",
        "offset": 0,
        "slot": "3",
        "type": "t_string_storage"
      },
      {
        "astId": 3451,
        "contract": "contracts/IlkelBenlik.sol:IlkelBenlik",
        "label": "_packedOwnerships",
        "offset": 0,
        "slot": "4",
        "type": "t_mapping(t_uint256,t_uint256)"
      },
      {
        "astId": 3455,
        "contract": "contracts/IlkelBenlik.sol:IlkelBenlik",
        "label": "_packedAddressData",
        "offset": 0,
        "slot": "5",
        "type": "t_mapping(t_address,t_uint256)"
      },
      {
        "astId": 3460,
        "contract": "contracts/IlkelBenlik.sol:IlkelBenlik",
        "label": "_tokenApprovals",
        "offset": 0,
        "slot": "6",
        "type": "t_mapping(t_uint256,t_struct(TokenApprovalRef)3373_storage)"
      },
      {
        "astId": 3466,
        "contract": "contracts/IlkelBenlik.sol:IlkelBenlik",
        "label": "_operatorApprovals",
        "offset": 0,
        "slot": "7",
        "type": "t_mapping(t_address,t_mapping(t_address,t_bool))"
      },
      {
        "astId": 264,
        "contract": "contracts/IlkelBenlik.sol:IlkelBenlik",
        "label": "_defaultRoyaltyInfo",
        "offset": 0,
        "slot": "8",
        "type": "t_struct(RoyaltyInfo)261_storage"
      },
      {
        "astId": 269,
        "contract": "contracts/IlkelBenlik.sol:IlkelBenlik",
        "label": "_tokenRoyaltyInfo",
        "offset": 0,
        "slot": "9",
        "type": "t_mapping(t_uint256,t_struct(RoyaltyInfo)261_storage)"
      },
      {
        "astId": 7,
        "contract": "contracts/IlkelBenlik.sol:IlkelBenlik",
        "label": "_owner",
        "offset": 0,
        "slot": "10",
        "type": "t_address"
      },
      {
        "astId": 2301,
        "contract": "contracts/IlkelBenlik.sol:IlkelBenlik",
        "label": "state",
        "offset": 20,
        "slot": "10",
        "type": "t_enum(STATE)2296"
      },
      {
        "astId": 2303,
        "contract": "contracts/IlkelBenlik.sol:IlkelBenlik",
        "label": "raribleTransferProxy",
        "offset": 0,
        "slot": "11",
        "type": "t_address"
      },
      {
        "astId": 2306,
        "contract": "contracts/IlkelBenlik.sol:IlkelBenlik",
        "label": "BASE_URI",
        "offset": 0,
        "slot": "12",
        "type": "t_string_storage"
      },
      {
        "astId": 2312,
        "contract": "contracts/IlkelBenlik.sol:IlkelBenlik",
        "label": "isRevealed",
        "offset": 0,
        "slot": "13",
        "type": "t_bool"
      }
    ],
    "types": {
      "t_address": {
        "encoding": "inplace",
        "label": "address",
        "numberOfBytes": "20"
      },
      "t_bool": {
        "encoding": "inplace",
        "label": "bool",
        "numberOfBytes": "1"
      },
      "t_enum(STATE)2296": {
        "encoding": "inplace",
        "label": "enum IlkelBenlik.STATE",
        "numberOfBytes": "1"
      },
      "t_mapping(t_address,t_bool)": {
        "encoding": "mapping",
        "key": "t_address",
        "label": "mapping(address => bool)",
        "numberOfBytes": "32",
        "value": "t_bool"
      },
      "t_mapping(t_address,t_mapping(t_address,t_bool))": {
        "encoding": "mapping",
        "key": "t_address",
        "label": "mapping(address => mapping(address => bool))",
        "numberOfBytes": "32",
        "value": "t_mapping(t_address,t_bool)"
      },
      "t_mapping(t_address,t_uint256)": {
        "encoding": "mapping",
        "key": "t_address",
        "label": "mapping(address => uint256)",
        "numberOfBytes": "32",
        "value": "t_uint256"
      },
      "t_mapping(t_uint256,t_struct(RoyaltyInfo)261_storage)": {
        "encoding": "mapping",
        "key": "t_uint256",
        "label": "mapping(uint256 => struct ERC2981.RoyaltyInfo)",
        "numberOfBytes": "32",
        "value": "t_struct(RoyaltyInfo)261_storage"
      },
      "t_mapping(t_uint256,t_struct(TokenApprovalRef)3373_storage)": {
        "encoding": "mapping",
        "key": "t_uint256",
        "label": "mapping(uint256 => struct ERC721A.TokenApprovalRef)",
        "numberOfBytes": "32",
        "value": "t_struct(TokenApprovalRef)3373_storage"
      },
      "t_mapping(t_uint256,t_uint256)": {
        "encoding": "mapping",
        "key": "t_uint256",
        "label": "mapping(uint256 => uint256)",
        "numberOfBytes": "32",
        "value": "t_uint256"
      },
      "t_string_storage": {
        "encoding": "bytes",
        "label": "string",
        "numberOfBytes": "32"
      },
      "t_struct(RoyaltyInfo)261_storage": {
        "encoding": "inplace",
        "label": "struct ERC2981.RoyaltyInfo",
        "members": [
          {
            "astId": 258,
            "contract": "contracts/IlkelBenlik.sol:IlkelBenlik",
            "label": "receiver",
            "offset": 0,
            "slot": "0",
            "type": "t_address"
          },
          {
            "astId": 260,
            "contract": "contracts/IlkelBenlik.sol:IlkelBenlik",
            "label": "royaltyFraction",
            "offset": 20,
            "slot": "0",
            "type": "t_uint96"
          }
        ],
        "numberOfBytes": "32"
      },
      "t_struct(TokenApprovalRef)3373_storage": {
        "encoding": "inplace",
        "label": "struct ERC721A.TokenApprovalRef",
        "members": [
          {
            "astId": 3372,
            "contract": "contracts/IlkelBenlik.sol:IlkelBenlik",
            "label": "value",
            "offset": 0,
            "slot": "0",
            "type": "t_address"
          }
        ],
        "numberOfBytes": "32"
      },
      "t_uint256": {
        "encoding": "inplace",
        "label": "uint256",
        "numberOfBytes": "32"
      },
      "t_uint96": {
        "encoding": "inplace",
        "label": "uint96",
        "numberOfBytes": "12"
      }
    }
  }
}